{
  "contractName": "StoryToken",
  "abi": [
    {
      "inputs": [
        {
          "internalType": "uint256",
          "name": "royalty",
          "type": "uint256"
        }
      ],
      "stateMutability": "nonpayable",
      "type": "constructor"
    },
    {
      "anonymous": false,
      "inputs": [
        {
          "indexed": true,
          "internalType": "address",
          "name": "owner",
          "type": "address"
        },
        {
          "indexed": true,
          "internalType": "address",
          "name": "approved",
          "type": "address"
        },
        {
          "indexed": true,
          "internalType": "uint256",
          "name": "tokenId",
          "type": "uint256"
        }
      ],
      "name": "Approval",
      "type": "event"
    },
    {
      "anonymous": false,
      "inputs": [
        {
          "indexed": true,
          "internalType": "address",
          "name": "owner",
          "type": "address"
        },
        {
          "indexed": true,
          "internalType": "address",
          "name": "operator",
          "type": "address"
        },
        {
          "indexed": false,
          "internalType": "bool",
          "name": "approved",
          "type": "bool"
        }
      ],
      "name": "ApprovalForAll",
      "type": "event"
    },
    {
      "anonymous": false,
      "inputs": [
        {
          "indexed": false,
          "internalType": "uint256",
          "name": "tokenNum",
          "type": "uint256"
        }
      ],
      "name": "BookCreated",
      "type": "event"
    },
    {
      "anonymous": false,
      "inputs": [
        {
          "indexed": true,
          "internalType": "address",
          "name": "previousOwner",
          "type": "address"
        },
        {
          "indexed": true,
          "internalType": "address",
          "name": "newOwner",
          "type": "address"
        }
      ],
      "name": "OwnershipTransferred",
      "type": "event"
    },
    {
      "anonymous": false,
      "inputs": [
        {
          "indexed": true,
          "internalType": "address",
          "name": "from",
          "type": "address"
        },
        {
          "indexed": true,
          "internalType": "address",
          "name": "to",
          "type": "address"
        },
        {
          "indexed": true,
          "internalType": "uint256",
          "name": "tokenId",
          "type": "uint256"
        }
      ],
      "name": "Transfer",
      "type": "event"
    },
    {
      "anonymous": false,
      "inputs": [
        {
          "indexed": false,
          "internalType": "string",
          "name": "title",
          "type": "string"
        },
        {
          "indexed": false,
          "internalType": "string",
          "name": "author",
          "type": "string"
        },
        {
          "indexed": false,
          "internalType": "uint256",
          "name": "price",
          "type": "uint256"
        }
      ],
      "name": "returnBook",
      "type": "event"
    },
    {
      "inputs": [
        {
          "internalType": "uint256",
          "name": "",
          "type": "uint256"
        }
      ],
      "name": "_books",
      "outputs": [
        {
          "internalType": "string",
          "name": "title",
          "type": "string"
        },
        {
          "internalType": "string",
          "name": "author",
          "type": "string"
        },
        {
          "internalType": "string",
          "name": "publisher",
          "type": "string"
        },
        {
          "internalType": "uint256",
          "name": "year",
          "type": "uint256"
        },
        {
          "internalType": "address",
          "name": "bookOwner",
          "type": "address"
        },
        {
          "internalType": "bool",
          "name": "forSale",
          "type": "bool"
        },
        {
          "internalType": "uint256",
          "name": "price",
          "type": "uint256"
        }
      ],
      "stateMutability": "view",
      "type": "function",
      "constant": true
    },
    {
      "inputs": [],
      "name": "_tokenIdCounter",
      "outputs": [
        {
          "internalType": "uint256",
          "name": "",
          "type": "uint256"
        }
      ],
      "stateMutability": "view",
      "type": "function",
      "constant": true
    },
    {
      "inputs": [
        {
          "internalType": "address",
          "name": "to",
          "type": "address"
        },
        {
          "internalType": "uint256",
          "name": "tokenId",
          "type": "uint256"
        }
      ],
      "name": "approve",
      "outputs": [],
      "stateMutability": "nonpayable",
      "type": "function"
    },
    {
      "inputs": [
        {
          "internalType": "address",
          "name": "owner",
          "type": "address"
        }
      ],
      "name": "balanceOf",
      "outputs": [
        {
          "internalType": "uint256",
          "name": "",
          "type": "uint256"
        }
      ],
      "stateMutability": "view",
      "type": "function",
      "constant": true
    },
    {
      "inputs": [
        {
          "internalType": "uint256",
          "name": "tokenId",
          "type": "uint256"
        }
      ],
      "name": "getApproved",
      "outputs": [
        {
          "internalType": "address",
          "name": "",
          "type": "address"
        }
      ],
      "stateMutability": "view",
      "type": "function",
      "constant": true
    },
    {
      "inputs": [
        {
          "internalType": "address",
          "name": "owner",
          "type": "address"
        },
        {
          "internalType": "address",
          "name": "operator",
          "type": "address"
        }
      ],
      "name": "isApprovedForAll",
      "outputs": [
        {
          "internalType": "bool",
          "name": "",
          "type": "bool"
        }
      ],
      "stateMutability": "view",
      "type": "function",
      "constant": true
    },
    {
      "inputs": [],
      "name": "name",
      "outputs": [
        {
          "internalType": "string",
          "name": "",
          "type": "string"
        }
      ],
      "stateMutability": "view",
      "type": "function",
      "constant": true
    },
    {
      "inputs": [],
      "name": "owner",
      "outputs": [
        {
          "internalType": "address",
          "name": "",
          "type": "address"
        }
      ],
      "stateMutability": "view",
      "type": "function",
      "constant": true
    },
    {
      "inputs": [
        {
          "internalType": "uint256",
          "name": "tokenId",
          "type": "uint256"
        }
      ],
      "name": "ownerOf",
      "outputs": [
        {
          "internalType": "address",
          "name": "",
          "type": "address"
        }
      ],
      "stateMutability": "view",
      "type": "function",
      "constant": true
    },
    {
      "inputs": [],
      "name": "renounceOwnership",
      "outputs": [],
      "stateMutability": "nonpayable",
      "type": "function"
    },
    {
      "inputs": [
        {
          "internalType": "address",
          "name": "from",
          "type": "address"
        },
        {
          "internalType": "address",
          "name": "to",
          "type": "address"
        },
        {
          "internalType": "uint256",
          "name": "tokenId",
          "type": "uint256"
        }
      ],
      "name": "safeTransferFrom",
      "outputs": [],
      "stateMutability": "nonpayable",
      "type": "function"
    },
    {
      "inputs": [
        {
          "internalType": "address",
          "name": "from",
          "type": "address"
        },
        {
          "internalType": "address",
          "name": "to",
          "type": "address"
        },
        {
          "internalType": "uint256",
          "name": "tokenId",
          "type": "uint256"
        },
        {
          "internalType": "bytes",
          "name": "data",
          "type": "bytes"
        }
      ],
      "name": "safeTransferFrom",
      "outputs": [],
      "stateMutability": "nonpayable",
      "type": "function"
    },
    {
      "inputs": [
        {
          "internalType": "address",
          "name": "operator",
          "type": "address"
        },
        {
          "internalType": "bool",
          "name": "approved",
          "type": "bool"
        }
      ],
      "name": "setApprovalForAll",
      "outputs": [],
      "stateMutability": "nonpayable",
      "type": "function"
    },
    {
      "inputs": [
        {
          "internalType": "bytes4",
          "name": "interfaceId",
          "type": "bytes4"
        }
      ],
      "name": "supportsInterface",
      "outputs": [
        {
          "internalType": "bool",
          "name": "",
          "type": "bool"
        }
      ],
      "stateMutability": "view",
      "type": "function",
      "constant": true
    },
    {
      "inputs": [],
      "name": "symbol",
      "outputs": [
        {
          "internalType": "string",
          "name": "",
          "type": "string"
        }
      ],
      "stateMutability": "view",
      "type": "function",
      "constant": true
    },
    {
      "inputs": [
        {
          "internalType": "uint256",
          "name": "tokenId",
          "type": "uint256"
        }
      ],
      "name": "tokenURI",
      "outputs": [
        {
          "internalType": "string",
          "name": "",
          "type": "string"
        }
      ],
      "stateMutability": "view",
      "type": "function",
      "constant": true
    },
    {
      "inputs": [
        {
          "internalType": "address",
          "name": "from",
          "type": "address"
        },
        {
          "internalType": "address",
          "name": "to",
          "type": "address"
        },
        {
          "internalType": "uint256",
          "name": "tokenId",
          "type": "uint256"
        }
      ],
      "name": "transferFrom",
      "outputs": [],
      "stateMutability": "nonpayable",
      "type": "function"
    },
    {
      "inputs": [
        {
          "internalType": "address",
          "name": "newOwner",
          "type": "address"
        }
      ],
      "name": "transferOwnership",
      "outputs": [],
      "stateMutability": "nonpayable",
      "type": "function"
    },
    {
      "inputs": [
        {
          "internalType": "string",
          "name": "title",
          "type": "string"
        },
        {
          "internalType": "string",
          "name": "author",
          "type": "string"
        },
        {
          "internalType": "string",
          "name": "publisher",
          "type": "string"
        },
        {
          "internalType": "uint256",
          "name": "year",
          "type": "uint256"
        },
        {
          "internalType": "uint256",
          "name": "price",
          "type": "uint256"
        }
      ],
      "name": "createBook",
      "outputs": [
        {
          "internalType": "uint256",
          "name": "",
          "type": "uint256"
        }
      ],
      "stateMutability": "nonpayable",
      "type": "function"
    },
    {
      "inputs": [
        {
          "internalType": "uint256",
          "name": "tokenId",
          "type": "uint256"
        }
      ],
      "name": "getBookInfo",
      "outputs": [
        {
          "components": [
            {
              "internalType": "string",
              "name": "title",
              "type": "string"
            },
            {
              "internalType": "string",
              "name": "author",
              "type": "string"
            },
            {
              "internalType": "string",
              "name": "publisher",
              "type": "string"
            },
            {
              "internalType": "uint256",
              "name": "year",
              "type": "uint256"
            },
            {
              "internalType": "address",
              "name": "bookOwner",
              "type": "address"
            },
            {
              "internalType": "bool",
              "name": "forSale",
              "type": "bool"
            },
            {
              "internalType": "uint256",
              "name": "price",
              "type": "uint256"
            }
          ],
          "internalType": "struct StoryToken.Book",
          "name": "",
          "type": "tuple"
        }
      ],
      "stateMutability": "nonpayable",
      "type": "function"
    },
    {
      "inputs": [
        {
          "internalType": "uint256",
          "name": "tokenId",
          "type": "uint256"
        },
        {
          "internalType": "address",
          "name": "to",
          "type": "address"
        }
      ],
      "name": "transferBook",
      "outputs": [],
      "stateMutability": "nonpayable",
      "type": "function"
    },
    {
      "inputs": [
        {
          "internalType": "uint256",
          "name": "tokenId",
          "type": "uint256"
        },
        {
          "internalType": "bool",
          "name": "forSale",
          "type": "bool"
        },
        {
          "internalType": "uint256",
          "name": "price",
          "type": "uint256"
        }
      ],
      "name": "setForSale",
      "outputs": [],
      "stateMutability": "nonpayable",
      "type": "function"
    },
    {
      "inputs": [
        {
          "internalType": "uint256",
          "name": "tokenId",
          "type": "uint256"
        }
      ],
      "name": "buyBook",
      "outputs": [],
      "stateMutability": "payable",
      "type": "function",
      "payable": true
    },
    {
      "inputs": [],
      "name": "withdrawRoyalty",
      "outputs": [],
      "stateMutability": "nonpayable",
      "type": "function"
    }
  ],
  "bytecode": "0x608060405260006007553480156200001657600080fd5b506040516200458b3803806200458b83398181016040528101906200003c91906200020a565b6040518060400160405280600a81526020017f53746f7279546f6b656e000000000000000000000000000000000000000000008152506040518060400160405280600281526020017f53540000000000000000000000000000000000000000000000000000000000008152508160009081620000b99190620004ac565b508060019081620000cb9190620004ac565b505050620000ee620000e2620000fc60201b60201c565b6200010460201b60201c565b806009819055505062000593565b600033905090565b6000600660009054906101000a900473ffffffffffffffffffffffffffffffffffffffff16905081600660006101000a81548173ffffffffffffffffffffffffffffffffffffffff021916908373ffffffffffffffffffffffffffffffffffffffff1602179055508173ffffffffffffffffffffffffffffffffffffffff168173ffffffffffffffffffffffffffffffffffffffff167f8be0079c531659141344cd1fd0a4f28419497f9722a3daafe3b4186f6b6457e060405160405180910390a35050565b600080fd5b6000819050919050565b620001e481620001cf565b8114620001f057600080fd5b50565b6000815190506200020481620001d9565b92915050565b600060208284031215620002235762000222620001ca565b5b60006200023384828501620001f3565b91505092915050565b600081519050919050565b7f4e487b7100000000000000000000000000000000000000000000000000000000600052604160045260246000fd5b7f4e487b7100000000000000000000000000000000000000000000000000000000600052602260045260246000fd5b60006002820490506001821680620002be57607f821691505b602082108103620002d457620002d362000276565b5b50919050565b60008190508160005260206000209050919050565b60006020601f8301049050919050565b600082821b905092915050565b6000600883026200033e7fffffffffffffffffffffffffffffffffffffffffffffffffffffffffffffffff82620002ff565b6200034a8683620002ff565b95508019841693508086168417925050509392505050565b6000819050919050565b60006200038d620003876200038184620001cf565b62000362565b620001cf565b9050919050565b6000819050919050565b620003a9836200036c565b620003c1620003b88262000394565b8484546200030c565b825550505050565b600090565b620003d8620003c9565b620003e58184846200039e565b505050565b5b818110156200040d5762000401600082620003ce565b600181019050620003eb565b5050565b601f8211156200045c576200042681620002da565b6200043184620002ef565b8101602085101562000441578190505b620004596200045085620002ef565b830182620003ea565b50505b505050565b600082821c905092915050565b6000620004816000198460080262000461565b1980831691505092915050565b60006200049c83836200046e565b9150826002028217905092915050565b620004b7826200023c565b67ffffffffffffffff811115620004d357620004d262000247565b5b620004df8254620002a5565b620004ec82828562000411565b600060209050601f8311600181146200052457600084156200050f578287015190505b6200051b85826200048e565b8655506200058b565b601f1984166200053486620002da565b60005b828110156200055e5784890151825560018201915060208501945060208101905062000537565b868310156200057e57848901516200057a601f8916826200046e565b8355505b6001600288020188555050505b505050505050565b613fe880620005a36000396000f3fe60806040526004361061014b5760003560e01c80638da5cb5b116100b6578063cf5c1b521161006f578063cf5c1b52146104ad578063e985e9c5146104d6578063f1147bae14610513578063f2fde38b1461052a578063f4eea0f214610553578063fc1a15c2146105905761014b565b80638da5cb5b1461038557806395d89b41146103b05780639f4e5de7146103db578063a22cb4651461041e578063b88d4fde14610447578063c87b56dd146104705761014b565b806357a268471161010857806357a26847146102705780636352211e146102ad5780636ee26566146102ea57806370a0823114610306578063715018a61461034357806384c4bd4b1461035a5761014b565b806301ffc9a71461015057806306fdde031461018d578063081812fc146101b8578063095ea7b3146101f557806323b872dd1461021e57806342842e0e14610247575b600080fd5b34801561015c57600080fd5b50610177600480360381019061017291906127c7565b6105b9565b604051610184919061280f565b60405180910390f35b34801561019957600080fd5b506101a261069b565b6040516101af91906128ba565b60405180910390f35b3480156101c457600080fd5b506101df60048036038101906101da9190612912565b61072d565b6040516101ec9190612980565b60405180910390f35b34801561020157600080fd5b5061021c600480360381019061021791906129c7565b610773565b005b34801561022a57600080fd5b5061024560048036038101906102409190612a07565b61088a565b005b34801561025357600080fd5b5061026e60048036038101906102699190612a07565b6108ea565b005b34801561027c57600080fd5b5061029760048036038101906102929190612912565b61090a565b6040516102a49190612b7b565b60405180910390f35b3480156102b957600080fd5b506102d460048036038101906102cf9190612912565b610afe565b6040516102e19190612980565b60405180910390f35b61030460048036038101906102ff9190612912565b610b84565b005b34801561031257600080fd5b5061032d60048036038101906103289190612b9d565b610e2c565b60405161033a9190612bd9565b60405180910390f35b34801561034f57600080fd5b50610358610ee3565b005b34801561036657600080fd5b5061036f610ef7565b60405161037c9190612bd9565b60405180910390f35b34801561039157600080fd5b5061039a610efd565b6040516103a79190612980565b60405180910390f35b3480156103bc57600080fd5b506103c5610f27565b6040516103d291906128ba565b60405180910390f35b3480156103e757600080fd5b5061040260048036038101906103fd9190612912565b610fb9565b6040516104159796959493929190612bf4565b60405180910390f35b34801561042a57600080fd5b5061044560048036038101906104409190612ca4565b6111c0565b005b34801561045357600080fd5b5061046e60048036038101906104699190612e19565b6111d6565b005b34801561047c57600080fd5b5061049760048036038101906104929190612912565b611238565b6040516104a491906128ba565b60405180910390f35b3480156104b957600080fd5b506104d460048036038101906104cf9190612e9c565b6112a0565b005b3480156104e257600080fd5b506104fd60048036038101906104f89190612eef565b6113b3565b60405161050a919061280f565b60405180910390f35b34801561051f57600080fd5b50610528611447565b005b34801561053657600080fd5b50610551600480360381019061054c9190612b9d565b61149f565b005b34801561055f57600080fd5b5061057a60048036038101906105759190612fd0565b611522565b6040516105879190612bd9565b60405180910390f35b34801561059c57600080fd5b506105b760048036038101906105b2919061309f565b6116c4565b005b60007f80ac58cd000000000000000000000000000000000000000000000000000000007bffffffffffffffffffffffffffffffffffffffffffffffffffffffff1916827bffffffffffffffffffffffffffffffffffffffffffffffffffffffff1916148061068457507f5b5e139f000000000000000000000000000000000000000000000000000000007bffffffffffffffffffffffffffffffffffffffffffffffffffffffff1916827bffffffffffffffffffffffffffffffffffffffffffffffffffffffff1916145b806106945750610693826117f4565b5b9050919050565b6060600080546106aa9061310e565b80601f01602080910402602001604051908101604052809291908181526020018280546106d69061310e565b80156107235780601f106106f857610100808354040283529160200191610723565b820191906000526020600020905b81548152906001019060200180831161070657829003601f168201915b5050505050905090565b60006107388261185e565b6004600083815260200190815260200160002060009054906101000a900473ffffffffffffffffffffffffffffffffffffffff169050919050565b600061077e82610afe565b90508073ffffffffffffffffffffffffffffffffffffffff168373ffffffffffffffffffffffffffffffffffffffff16036107ee576040517f08c379a00000000000000000000000000000000000000000000000000000000081526004016107e5906131b1565b60405180910390fd5b8073ffffffffffffffffffffffffffffffffffffffff1661080d6118a9565b73ffffffffffffffffffffffffffffffffffffffff16148061083c575061083b816108366118a9565b6113b3565b5b61087b576040517f08c379a000000000000000000000000000000000000000000000000000000000815260040161087290613243565b60405180910390fd5b61088583836118b1565b505050565b61089b6108956118a9565b8261196a565b6108da576040517f08c379a00000000000000000000000000000000000000000000000000000000081526004016108d1906132d5565b60405180910390fd5b6108e58383836119ff565b505050565b610905838383604051806020016040528060008152506111d6565b505050565b610912612706565b61091b82611cf8565b61095a576040517f08c379a000000000000000000000000000000000000000000000000000000000815260040161095190613341565b60405180910390fd5b600060086000848152602001908152602001600020600001805461097d9061310e565b80601f01602080910402602001604051908101604052809291908181526020018280546109a99061310e565b80156109f65780601f106109cb576101008083540402835291602001916109f6565b820191906000526020600020905b8154815290600101906020018083116109d957829003601f168201915b505050505090506000600860008581526020019081526020016000206001018054610a209061310e565b80601f0160208091040260200160405190810160405280929190818152602001828054610a4c9061310e565b8015610a995780601f10610a6e57610100808354040283529160200191610a99565b820191906000526020600020905b815481529060010190602001808311610a7c57829003601f168201915b505050505090506000600860008681526020019081526020016000206005015490507fa6777378c86a5ba4a5817abb50db2ee06645485a1246599050f541e5374a2aab838383604051610aee93929190613361565b60405180910390a1505050919050565b600080610b0a83611d39565b9050600073ffffffffffffffffffffffffffffffffffffffff168173ffffffffffffffffffffffffffffffffffffffff1603610b7b576040517f08c379a0000000000000000000000000000000000000000000000000000000008152600401610b72906133f2565b60405180910390fd5b80915050919050565b610b8d81611cf8565b610bcc576040517f08c379a0000000000000000000000000000000000000000000000000000000008152600401610bc390613341565b60405180910390fd5b6008600082815260200190815260200160002060040160149054906101000a900460ff16610c2f576040517f08c379a0000000000000000000000000000000000000000000000000000000008152600401610c269061345e565b60405180910390fd5b6000610c3a82610afe565b9050610c446118a9565b73ffffffffffffffffffffffffffffffffffffffff168173ffffffffffffffffffffffffffffffffffffffff1603610cb1576040517f08c379a0000000000000000000000000000000000000000000000000000000008152600401610ca8906134ca565b60405180910390fd5b6008600083815260200190815260200160002060050154341015610d0a576040517f08c379a0000000000000000000000000000000000000000000000000000000008152600401610d0190613536565b60405180910390fd5b610d2c81610d166118a9565b8460405180602001604052806000815250611d76565b610d346118a9565b6008600084815260200190815260200160002060040160006101000a81548173ffffffffffffffffffffffffffffffffffffffff021916908373ffffffffffffffffffffffffffffffffffffffff16021790555060006008600084815260200190815260200160002060040160146101000a81548160ff0219169083151502179055506000606460095434610dc99190613585565b610dd391906135f6565b90508173ffffffffffffffffffffffffffffffffffffffff166108fc8234610dfb9190613627565b9081150290604051600060405180830381858888f19350505050158015610e26573d6000803e3d6000fd5b50505050565b60008073ffffffffffffffffffffffffffffffffffffffff168273ffffffffffffffffffffffffffffffffffffffff1603610e9c576040517f08c379a0000000000000000000000000000000000000000000000000000000008152600401610e93906136cd565b60405180910390fd5b600360008373ffffffffffffffffffffffffffffffffffffffff1673ffffffffffffffffffffffffffffffffffffffff168152602001908152602001600020549050919050565b610eeb611dd2565b610ef56000611e50565b565b60075481565b6000600660009054906101000a900473ffffffffffffffffffffffffffffffffffffffff16905090565b606060018054610f369061310e565b80601f0160208091040260200160405190810160405280929190818152602001828054610f629061310e565b8015610faf5780601f10610f8457610100808354040283529160200191610faf565b820191906000526020600020905b815481529060010190602001808311610f9257829003601f168201915b5050505050905090565b6008602052806000526040600020600091509050806000018054610fdc9061310e565b80601f01602080910402602001604051908101604052809291908181526020018280546110089061310e565b80156110555780601f1061102a57610100808354040283529160200191611055565b820191906000526020600020905b81548152906001019060200180831161103857829003601f168201915b50505050509080600101805461106a9061310e565b80601f01602080910402602001604051908101604052809291908181526020018280546110969061310e565b80156110e35780601f106110b8576101008083540402835291602001916110e3565b820191906000526020600020905b8154815290600101906020018083116110c657829003601f168201915b5050505050908060020180546110f89061310e565b80601f01602080910402602001604051908101604052809291908181526020018280546111249061310e565b80156111715780601f1061114657610100808354040283529160200191611171565b820191906000526020600020905b81548152906001019060200180831161115457829003601f168201915b5050505050908060030154908060040160009054906101000a900473ffffffffffffffffffffffffffffffffffffffff16908060040160149054906101000a900460ff16908060050154905087565b6111d26111cb6118a9565b8383611f16565b5050565b6111e76111e16118a9565b8361196a565b611226576040517f08c379a000000000000000000000000000000000000000000000000000000000815260040161121d906132d5565b60405180910390fd5b61123284848484611d76565b50505050565b60606112438261185e565b600061124d612082565b9050600081511161126d5760405180602001604052806000815250611298565b8061127784612099565b604051602001611288929190613729565b6040516020818303038152906040525b915050919050565b6112a983611cf8565b6112e8576040517f08c379a00000000000000000000000000000000000000000000000000000000081526004016112df90613341565b60405180910390fd5b6112f06118a9565b73ffffffffffffffffffffffffffffffffffffffff1661130f84610afe565b73ffffffffffffffffffffffffffffffffffffffff1614611365576040517f08c379a000000000000000000000000000000000000000000000000000000000815260040161135c90613799565b60405180910390fd5b816008600085815260200190815260200160002060040160146101000a81548160ff021916908315150217905550806008600085815260200190815260200160002060050181905550505050565b6000600560008473ffffffffffffffffffffffffffffffffffffffff1673ffffffffffffffffffffffffffffffffffffffff16815260200190815260200160002060008373ffffffffffffffffffffffffffffffffffffffff1673ffffffffffffffffffffffffffffffffffffffff16815260200190815260200160002060009054906101000a900460ff16905092915050565b61144f611dd2565b611457610efd565b73ffffffffffffffffffffffffffffffffffffffff166108fc479081150290604051600060405180830381858888f1935050505015801561149c573d6000803e3d6000fd5b50565b6114a7611dd2565b600073ffffffffffffffffffffffffffffffffffffffff168173ffffffffffffffffffffffffffffffffffffffff1603611516576040517f08c379a000000000000000000000000000000000000000000000000000000000815260040161150d9061382b565b60405180910390fd5b61151f81611e50565b50565b600061152c611dd2565b60016007600082825461153f919061384b565b925050819055506000600754905060006115576118a9565b90506115638183612167565b6040518060e001604052808981526020018881526020018781526020018681526020018273ffffffffffffffffffffffffffffffffffffffff168152602001600015158152602001858152506008600084815260200190815260200160002060008201518160000190816115d79190613a2b565b5060208201518160010190816115ed9190613a2b565b5060408201518160020190816116039190613a2b565b506060820151816003015560808201518160040160006101000a81548173ffffffffffffffffffffffffffffffffffffffff021916908373ffffffffffffffffffffffffffffffffffffffff16021790555060a08201518160040160146101000a81548160ff02191690831515021790555060c082015181600501559050507f4931befe04b8ef8a98f4b360614a166851a16a8c40326718fb8817059900bed5826040516116b19190612bd9565b60405180910390a1505095945050505050565b6116cd82611cf8565b61170c576040517f08c379a000000000000000000000000000000000000000000000000000000000815260040161170390613341565b60405180910390fd5b6117146118a9565b73ffffffffffffffffffffffffffffffffffffffff166117338361072d565b73ffffffffffffffffffffffffffffffffffffffff1614611789576040517f08c379a000000000000000000000000000000000000000000000000000000000815260040161178090613b49565b60405180910390fd5b61179b6117946118a9565b82846119ff565b806008600084815260200190815260200160002060040160006101000a81548173ffffffffffffffffffffffffffffffffffffffff021916908373ffffffffffffffffffffffffffffffffffffffff1602179055505050565b60007f01ffc9a7000000000000000000000000000000000000000000000000000000007bffffffffffffffffffffffffffffffffffffffffffffffffffffffff1916827bffffffffffffffffffffffffffffffffffffffffffffffffffffffff1916149050919050565b61186781611cf8565b6118a6576040517f08c379a000000000000000000000000000000000000000000000000000000000815260040161189d906133f2565b60405180910390fd5b50565b600033905090565b816004600083815260200190815260200160002060006101000a81548173ffffffffffffffffffffffffffffffffffffffff021916908373ffffffffffffffffffffffffffffffffffffffff160217905550808273ffffffffffffffffffffffffffffffffffffffff1661192483610afe565b73ffffffffffffffffffffffffffffffffffffffff167f8c5be1e5ebec7d5bd14f71427d1e84f3dd0314c0f7b2291e5b200ac8c7c3b92560405160405180910390a45050565b60008061197683610afe565b90508073ffffffffffffffffffffffffffffffffffffffff168473ffffffffffffffffffffffffffffffffffffffff1614806119b857506119b781856113b3565b5b806119f657508373ffffffffffffffffffffffffffffffffffffffff166119de8461072d565b73ffffffffffffffffffffffffffffffffffffffff16145b91505092915050565b8273ffffffffffffffffffffffffffffffffffffffff16611a1f82610afe565b73ffffffffffffffffffffffffffffffffffffffff1614611a75576040517f08c379a0000000000000000000000000000000000000000000000000000000008152600401611a6c90613bdb565b60405180910390fd5b600073ffffffffffffffffffffffffffffffffffffffff168273ffffffffffffffffffffffffffffffffffffffff1603611ae4576040517f08c379a0000000000000000000000000000000000000000000000000000000008152600401611adb90613c6d565b60405180910390fd5b611af18383836001612185565b8273ffffffffffffffffffffffffffffffffffffffff16611b1182610afe565b73ffffffffffffffffffffffffffffffffffffffff1614611b67576040517f08c379a0000000000000000000000000000000000000000000000000000000008152600401611b5e90613bdb565b60405180910390fd5b6004600082815260200190815260200160002060006101000a81549073ffffffffffffffffffffffffffffffffffffffff02191690556001600360008573ffffffffffffffffffffffffffffffffffffffff1673ffffffffffffffffffffffffffffffffffffffff168152602001908152602001600020600082825403925050819055506001600360008473ffffffffffffffffffffffffffffffffffffffff1673ffffffffffffffffffffffffffffffffffffffff16815260200190815260200160002060008282540192505081905550816002600083815260200190815260200160002060006101000a81548173ffffffffffffffffffffffffffffffffffffffff021916908373ffffffffffffffffffffffffffffffffffffffff160217905550808273ffffffffffffffffffffffffffffffffffffffff168473ffffffffffffffffffffffffffffffffffffffff167fddf252ad1be2c89b69c2b068fc378daa952ba7f163c4a11628f55a4df523b3ef60405160405180910390a4611cf3838383600161218b565b505050565b60008073ffffffffffffffffffffffffffffffffffffffff16611d1a83611d39565b73ffffffffffffffffffffffffffffffffffffffff1614159050919050565b60006002600083815260200190815260200160002060009054906101000a900473ffffffffffffffffffffffffffffffffffffffff169050919050565b611d818484846119ff565b611d8d84848484612191565b611dcc576040517f08c379a0000000000000000000000000000000000000000000000000000000008152600401611dc390613cff565b60405180910390fd5b50505050565b611dda6118a9565b73ffffffffffffffffffffffffffffffffffffffff16611df8610efd565b73ffffffffffffffffffffffffffffffffffffffff1614611e4e576040517f08c379a0000000000000000000000000000000000000000000000000000000008152600401611e4590613d6b565b60405180910390fd5b565b6000600660009054906101000a900473ffffffffffffffffffffffffffffffffffffffff16905081600660006101000a81548173ffffffffffffffffffffffffffffffffffffffff021916908373ffffffffffffffffffffffffffffffffffffffff1602179055508173ffffffffffffffffffffffffffffffffffffffff168173ffffffffffffffffffffffffffffffffffffffff167f8be0079c531659141344cd1fd0a4f28419497f9722a3daafe3b4186f6b6457e060405160405180910390a35050565b8173ffffffffffffffffffffffffffffffffffffffff168373ffffffffffffffffffffffffffffffffffffffff1603611f84576040517f08c379a0000000000000000000000000000000000000000000000000000000008152600401611f7b90613dd7565b60405180910390fd5b80600560008573ffffffffffffffffffffffffffffffffffffffff1673ffffffffffffffffffffffffffffffffffffffff16815260200190815260200160002060008473ffffffffffffffffffffffffffffffffffffffff1673ffffffffffffffffffffffffffffffffffffffff16815260200190815260200160002060006101000a81548160ff0219169083151502179055508173ffffffffffffffffffffffffffffffffffffffff168373ffffffffffffffffffffffffffffffffffffffff167f17307eab39ab6107e8899845ad3d59bd9653f200f220920489ca2b5937696c3183604051612075919061280f565b60405180910390a3505050565b606060405180602001604052806000815250905090565b6060600060016120a884612318565b01905060008167ffffffffffffffff8111156120c7576120c6612cee565b5b6040519080825280601f01601f1916602001820160405280156120f95781602001600182028036833780820191505090505b509050600082602001820190505b60011561215c578080600190039150507f3031323334353637383961626364656600000000000000000000000000000000600a86061a8153600a85816121505761214f6135c7565b5b04945060008503612107575b819350505050919050565b61218182826040518060200160405280600081525061246b565b5050565b50505050565b50505050565b60006121b28473ffffffffffffffffffffffffffffffffffffffff166124c6565b1561230b578373ffffffffffffffffffffffffffffffffffffffff1663150b7a026121db6118a9565b8786866040518563ffffffff1660e01b81526004016121fd9493929190613e4c565b6020604051808303816000875af192505050801561223957506040513d601f19601f820116820180604052508101906122369190613ead565b60015b6122bb573d8060008114612269576040519150601f19603f3d011682016040523d82523d6000602084013e61226e565b606091505b5060008151036122b3576040517f08c379a00000000000000000000000000000000000000000000000000000000081526004016122aa90613cff565b60405180910390fd5b805181602001fd5b63150b7a0260e01b7bffffffffffffffffffffffffffffffffffffffffffffffffffffffff1916817bffffffffffffffffffffffffffffffffffffffffffffffffffffffff191614915050612310565b600190505b949350505050565b600080600090507a184f03e93ff9f4daa797ed6e38ed64bf6a1f0100000000000000008310612376577a184f03e93ff9f4daa797ed6e38ed64bf6a1f010000000000000000838161236c5761236b6135c7565b5b0492506040810190505b6d04ee2d6d415b85acef810000000083106123b3576d04ee2d6d415b85acef810000000083816123a9576123a86135c7565b5b0492506020810190505b662386f26fc1000083106123e257662386f26fc1000083816123d8576123d76135c7565b5b0492506010810190505b6305f5e100831061240b576305f5e1008381612401576124006135c7565b5b0492506008810190505b6127108310612430576127108381612426576124256135c7565b5b0492506004810190505b606483106124535760648381612449576124486135c7565b5b0492506002810190505b600a8310612462576001810190505b80915050919050565b61247583836124e9565b6124826000848484612191565b6124c1576040517f08c379a00000000000000000000000000000000000000000000000000000000081526004016124b890613cff565b60405180910390fd5b505050565b6000808273ffffffffffffffffffffffffffffffffffffffff163b119050919050565b600073ffffffffffffffffffffffffffffffffffffffff168273ffffffffffffffffffffffffffffffffffffffff1603612558576040517f08c379a000000000000000000000000000000000000000000000000000000000815260040161254f90613f26565b60405180910390fd5b61256181611cf8565b156125a1576040517f08c379a000000000000000000000000000000000000000000000000000000000815260040161259890613f92565b60405180910390fd5b6125af600083836001612185565b6125b881611cf8565b156125f8576040517f08c379a00000000000000000000000000000000000000000000000000000000081526004016125ef90613f92565b60405180910390fd5b6001600360008473ffffffffffffffffffffffffffffffffffffffff1673ffffffffffffffffffffffffffffffffffffffff16815260200190815260200160002060008282540192505081905550816002600083815260200190815260200160002060006101000a81548173ffffffffffffffffffffffffffffffffffffffff021916908373ffffffffffffffffffffffffffffffffffffffff160217905550808273ffffffffffffffffffffffffffffffffffffffff16600073ffffffffffffffffffffffffffffffffffffffff167fddf252ad1be2c89b69c2b068fc378daa952ba7f163c4a11628f55a4df523b3ef60405160405180910390a461270260008383600161218b565b5050565b6040518060e0016040528060608152602001606081526020016060815260200160008152602001600073ffffffffffffffffffffffffffffffffffffffff168152602001600015158152602001600081525090565b6000604051905090565b600080fd5b600080fd5b60007fffffffff0000000000000000000000000000000000000000000000000000000082169050919050565b6127a48161276f565b81146127af57600080fd5b50565b6000813590506127c18161279b565b92915050565b6000602082840312156127dd576127dc612765565b5b60006127eb848285016127b2565b91505092915050565b60008115159050919050565b612809816127f4565b82525050565b60006020820190506128246000830184612800565b92915050565b600081519050919050565b600082825260208201905092915050565b60005b83811015612864578082015181840152602081019050612849565b60008484015250505050565b6000601f19601f8301169050919050565b600061288c8261282a565b6128968185612835565b93506128a6818560208601612846565b6128af81612870565b840191505092915050565b600060208201905081810360008301526128d48184612881565b905092915050565b6000819050919050565b6128ef816128dc565b81146128fa57600080fd5b50565b60008135905061290c816128e6565b92915050565b60006020828403121561292857612927612765565b5b6000612936848285016128fd565b91505092915050565b600073ffffffffffffffffffffffffffffffffffffffff82169050919050565b600061296a8261293f565b9050919050565b61297a8161295f565b82525050565b60006020820190506129956000830184612971565b92915050565b6129a48161295f565b81146129af57600080fd5b50565b6000813590506129c18161299b565b92915050565b600080604083850312156129de576129dd612765565b5b60006129ec858286016129b2565b92505060206129fd858286016128fd565b9150509250929050565b600080600060608486031215612a2057612a1f612765565b5b6000612a2e868287016129b2565b9350506020612a3f868287016129b2565b9250506040612a50868287016128fd565b9150509250925092565b600082825260208201905092915050565b6000612a768261282a565b612a808185612a5a565b9350612a90818560208601612846565b612a9981612870565b840191505092915050565b612aad816128dc565b82525050565b612abc8161295f565b82525050565b612acb816127f4565b82525050565b600060e0830160008301518482036000860152612aee8282612a6b565b91505060208301518482036020860152612b088282612a6b565b91505060408301518482036040860152612b228282612a6b565b9150506060830151612b376060860182612aa4565b506080830151612b4a6080860182612ab3565b5060a0830151612b5d60a0860182612ac2565b5060c0830151612b7060c0860182612aa4565b508091505092915050565b60006020820190508181036000830152612b958184612ad1565b905092915050565b600060208284031215612bb357612bb2612765565b5b6000612bc1848285016129b2565b91505092915050565b612bd3816128dc565b82525050565b6000602082019050612bee6000830184612bca565b92915050565b600060e0820190508181036000830152612c0e818a612881565b90508181036020830152612c228189612881565b90508181036040830152612c368188612881565b9050612c456060830187612bca565b612c526080830186612971565b612c5f60a0830185612800565b612c6c60c0830184612bca565b98975050505050505050565b612c81816127f4565b8114612c8c57600080fd5b50565b600081359050612c9e81612c78565b92915050565b60008060408385031215612cbb57612cba612765565b5b6000612cc9858286016129b2565b9250506020612cda85828601612c8f565b9150509250929050565b600080fd5b600080fd5b7f4e487b7100000000000000000000000000000000000000000000000000000000600052604160045260246000fd5b612d2682612870565b810181811067ffffffffffffffff82111715612d4557612d44612cee565b5b80604052505050565b6000612d5861275b565b9050612d648282612d1d565b919050565b600067ffffffffffffffff821115612d8457612d83612cee565b5b612d8d82612870565b9050602081019050919050565b82818337600083830152505050565b6000612dbc612db784612d69565b612d4e565b905082815260208101848484011115612dd857612dd7612ce9565b5b612de3848285612d9a565b509392505050565b600082601f830112612e0057612dff612ce4565b5b8135612e10848260208601612da9565b91505092915050565b60008060008060808587031215612e3357612e32612765565b5b6000612e41878288016129b2565b9450506020612e52878288016129b2565b9350506040612e63878288016128fd565b925050606085013567ffffffffffffffff811115612e8457612e8361276a565b5b612e9087828801612deb565b91505092959194509250565b600080600060608486031215612eb557612eb4612765565b5b6000612ec3868287016128fd565b9350506020612ed486828701612c8f565b9250506040612ee5868287016128fd565b9150509250925092565b60008060408385031215612f0657612f05612765565b5b6000612f14858286016129b2565b9250506020612f25858286016129b2565b9150509250929050565b600067ffffffffffffffff821115612f4a57612f49612cee565b5b612f5382612870565b9050602081019050919050565b6000612f73612f6e84612f2f565b612d4e565b905082815260208101848484011115612f8f57612f8e612ce9565b5b612f9a848285612d9a565b509392505050565b600082601f830112612fb757612fb6612ce4565b5b8135612fc7848260208601612f60565b91505092915050565b600080600080600060a08688031215612fec57612feb612765565b5b600086013567ffffffffffffffff81111561300a5761300961276a565b5b61301688828901612fa2565b955050602086013567ffffffffffffffff8111156130375761303661276a565b5b61304388828901612fa2565b945050604086013567ffffffffffffffff8111156130645761306361276a565b5b61307088828901612fa2565b9350506060613081888289016128fd565b9250506080613092888289016128fd565b9150509295509295909350565b600080604083850312156130b6576130b5612765565b5b60006130c4858286016128fd565b92505060206130d5858286016129b2565b9150509250929050565b7f4e487b7100000000000000000000000000000000000000000000000000000000600052602260045260246000fd5b6000600282049050600182168061312657607f821691505b602082108103613139576131386130df565b5b50919050565b7f4552433732313a20617070726f76616c20746f2063757272656e74206f776e6560008201527f7200000000000000000000000000000000000000000000000000000000000000602082015250565b600061319b602183612835565b91506131a68261313f565b604082019050919050565b600060208201905081810360008301526131ca8161318e565b9050919050565b7f4552433732313a20617070726f76652063616c6c6572206973206e6f7420746f60008201527f6b656e206f776e6572206f7220617070726f76656420666f7220616c6c000000602082015250565b600061322d603d83612835565b9150613238826131d1565b604082019050919050565b6000602082019050818103600083015261325c81613220565b9050919050565b7f4552433732313a2063616c6c6572206973206e6f7420746f6b656e206f776e6560008201527f72206f7220617070726f76656400000000000000000000000000000000000000602082015250565b60006132bf602d83612835565b91506132ca82613263565b604082019050919050565b600060208201905081810360008301526132ee816132b2565b9050919050565b7f546f6b656e20646f6573206e6f74206578697374000000000000000000000000600082015250565b600061332b601483612835565b9150613336826132f5565b602082019050919050565b6000602082019050818103600083015261335a8161331e565b9050919050565b6000606082019050818103600083015261337b8186612881565b9050818103602083015261338f8185612881565b905061339e6040830184612bca565b949350505050565b7f4552433732313a20696e76616c696420746f6b656e2049440000000000000000600082015250565b60006133dc601883612835565b91506133e7826133a6565b602082019050919050565b6000602082019050818103600083015261340b816133cf565b9050919050565b7f426f6f6b206973206e6f7420666f722073616c65000000000000000000000000600082015250565b6000613448601483612835565b915061345382613412565b602082019050919050565b600060208201905081810360008301526134778161343b565b9050919050565b7f43616e6e6f7420627579206f776e20626f6f6b00000000000000000000000000600082015250565b60006134b4601383612835565b91506134bf8261347e565b602082019050919050565b600060208201905081810360008301526134e3816134a7565b9050919050565b7f4d75737420706179206d696e696d756d20736574207072696365000000000000600082015250565b6000613520601a83612835565b915061352b826134ea565b602082019050919050565b6000602082019050818103600083015261354f81613513565b9050919050565b7f4e487b7100000000000000000000000000000000000000000000000000000000600052601160045260246000fd5b6000613590826128dc565b915061359b836128dc565b92508282026135a9816128dc565b915082820484148315176135c0576135bf613556565b5b5092915050565b7f4e487b7100000000000000000000000000000000000000000000000000000000600052601260045260246000fd5b6000613601826128dc565b915061360c836128dc565b92508261361c5761361b6135c7565b5b828204905092915050565b6000613632826128dc565b915061363d836128dc565b925082820390508181111561365557613654613556565b5b92915050565b7f4552433732313a2061646472657373207a65726f206973206e6f74206120766160008201527f6c6964206f776e65720000000000000000000000000000000000000000000000602082015250565b60006136b7602983612835565b91506136c28261365b565b604082019050919050565b600060208201905081810360008301526136e6816136aa565b9050919050565b600081905092915050565b60006137038261282a565b61370d81856136ed565b935061371d818560208601612846565b80840191505092915050565b600061373582856136f8565b915061374182846136f8565b91508190509392505050565b7f4e6f7420617070726f76656420746f2073657420666f722073616c6500000000600082015250565b6000613783601c83612835565b915061378e8261374d565b602082019050919050565b600060208201905081810360008301526137b281613776565b9050919050565b7f4f776e61626c653a206e6577206f776e657220697320746865207a65726f206160008201527f6464726573730000000000000000000000000000000000000000000000000000602082015250565b6000613815602683612835565b9150613820826137b9565b604082019050919050565b6000602082019050818103600083015261384481613808565b9050919050565b6000613856826128dc565b9150613861836128dc565b925082820190508082111561387957613878613556565b5b92915050565b60008190508160005260206000209050919050565b60006020601f8301049050919050565b600082821b905092915050565b6000600883026138e17fffffffffffffffffffffffffffffffffffffffffffffffffffffffffffffffff826138a4565b6138eb86836138a4565b95508019841693508086168417925050509392505050565b6000819050919050565b600061392861392361391e846128dc565b613903565b6128dc565b9050919050565b6000819050919050565b6139428361390d565b61395661394e8261392f565b8484546138b1565b825550505050565b600090565b61396b61395e565b613976818484613939565b505050565b5b8181101561399a5761398f600082613963565b60018101905061397c565b5050565b601f8211156139df576139b08161387f565b6139b984613894565b810160208510156139c8578190505b6139dc6139d485613894565b83018261397b565b50505b505050565b600082821c905092915050565b6000613a02600019846008026139e4565b1980831691505092915050565b6000613a1b83836139f1565b9150826002028217905092915050565b613a348261282a565b67ffffffffffffffff811115613a4d57613a4c612cee565b5b613a57825461310e565b613a6282828561399e565b600060209050601f831160018114613a955760008415613a83578287015190505b613a8d8582613a0f565b865550613af5565b601f198416613aa38661387f565b60005b82811015613acb57848901518255600182019150602085019450602081019050613aa6565b86831015613ae85784890151613ae4601f8916826139f1565b8355505b6001600288020188555050505b505050505050565b7f53656e646572206e6f7420617070726f76656420746f207472616e7366657200600082015250565b6000613b33601f83612835565b9150613b3e82613afd565b602082019050919050565b60006020820190508181036000830152613b6281613b26565b9050919050565b7f4552433732313a207472616e736665722066726f6d20696e636f72726563742060008201527f6f776e6572000000000000000000000000000000000000000000000000000000602082015250565b6000613bc5602583612835565b9150613bd082613b69565b604082019050919050565b60006020820190508181036000830152613bf481613bb8565b9050919050565b7f4552433732313a207472616e7366657220746f20746865207a65726f2061646460008201527f7265737300000000000000000000000000000000000000000000000000000000602082015250565b6000613c57602483612835565b9150613c6282613bfb565b604082019050919050565b60006020820190508181036000830152613c8681613c4a565b9050919050565b7f4552433732313a207472616e7366657220746f206e6f6e20455243373231526560008201527f63656976657220696d706c656d656e7465720000000000000000000000000000602082015250565b6000613ce9603283612835565b9150613cf482613c8d565b604082019050919050565b60006020820190508181036000830152613d1881613cdc565b9050919050565b7f4f776e61626c653a2063616c6c6572206973206e6f7420746865206f776e6572600082015250565b6000613d55602083612835565b9150613d6082613d1f565b602082019050919050565b60006020820190508181036000830152613d8481613d48565b9050919050565b7f4552433732313a20617070726f766520746f2063616c6c657200000000000000600082015250565b6000613dc1601983612835565b9150613dcc82613d8b565b602082019050919050565b60006020820190508181036000830152613df081613db4565b9050919050565b600081519050919050565b600082825260208201905092915050565b6000613e1e82613df7565b613e288185613e02565b9350613e38818560208601612846565b613e4181612870565b840191505092915050565b6000608082019050613e616000830187612971565b613e6e6020830186612971565b613e7b6040830185612bca565b8181036060830152613e8d8184613e13565b905095945050505050565b600081519050613ea78161279b565b92915050565b600060208284031215613ec357613ec2612765565b5b6000613ed184828501613e98565b91505092915050565b7f4552433732313a206d696e7420746f20746865207a65726f2061646472657373600082015250565b6000613f10602083612835565b9150613f1b82613eda565b602082019050919050565b60006020820190508181036000830152613f3f81613f03565b9050919050565b7f4552433732313a20746f6b656e20616c7265616479206d696e74656400000000600082015250565b6000613f7c601c83612835565b9150613f8782613f46565b602082019050919050565b60006020820190508181036000830152613fab81613f6f565b905091905056fea2646970667358221220c88dc0645c92acecae97b29e9fafa69a8bea0e9f674588e24891f32a3febe72864736f6c63430008130033",
  "immutableReferences": {},
  "source": "//SPDX-License-Identifier: UNLICENSED\npragma solidity ^0.8.0;\n\nimport \"@openzeppelin/contracts/token/ERC721/ERC721.sol\";\nimport \"@openzeppelin/contracts/access/Ownable.sol\";\n\ncontract StoryToken is ERC721, Ownable {\n    \n    uint256 public _tokenIdCounter = 0;\n    \n    struct Book {\n        string title;\n        string author;\n        string publisher;\n        uint256 year;\n        address bookOwner;\n        bool forSale;\n        uint price;\n    }\n    // Owner of Smart Contract is Author\n    // bookOwner of book is owner of token ID\n    mapping (uint256 => Book) public _books;\n    uint royaltyPercent;\n\n    event BookCreated(uint256 tokenNum);\n    event returnBook(string title, string author, uint price);\n    constructor(uint royalty) ERC721(\"StoryToken\", \"ST\") {\n        royaltyPercent = royalty;\n    }\n\n    function createBook(\n        string memory title,\n        string memory author,\n        string memory publisher,\n        uint256 year,\n        uint price\n    ) public onlyOwner returns (uint256) {\n        _tokenIdCounter += 1;\n        uint256 tokenId = _tokenIdCounter;\n        address bookOwner = _msgSender();\n        _safeMint(bookOwner, tokenId);\n        _books[tokenId] = Book(title, author, publisher, year, bookOwner, false, price);\n        // return tokenId;\n        emit BookCreated(tokenId);\n    }\n\n    function getBookInfo(uint256 tokenId) public returns (Book memory) {\n        require(_exists(tokenId), \"Token does not exist\");\n        // return _books[tokenId];\n        // Book memory book = _books[tokenId];\n        string memory title  = _books[tokenId].title;\n        string memory author  = _books[tokenId].author;\n        uint price =  _books[tokenId].price;\n        emit returnBook(title, author, price);\n    }\n\n    function transferBook(uint256 tokenId, address to) public {\n        require(_exists(tokenId), \"Token does not exist\");\n        require(getApproved(tokenId)== _msgSender(), \"Sender not approved to transfer\");\n        _transfer(_msgSender(), to, tokenId);\n        _books[tokenId].bookOwner = to;\n    }\n\n    function setForSale(uint256 tokenId, bool forSale, uint price) public {\n        require(_exists(tokenId), \"Token does not exist\");\n        require(ownerOf(tokenId) == _msgSender(), \"Not approved to set for sale\");\n\n        _books[tokenId].forSale = forSale;\n        _books[tokenId].price = price;\n    }\n\n\n    function buyBook(uint256 tokenId) public payable {\n        require(_exists(tokenId), \"Token does not exist\");\n        require(_books[tokenId].forSale, \"Book is not for sale\");\n        address bookOwner = ownerOf(tokenId);\n        require(bookOwner != _msgSender(), \"Cannot buy own book\");\n        require(msg.value >= _books[tokenId].price, \"Must pay minimum set price\");\n        \n        _safeTransfer(bookOwner, _msgSender(), tokenId, \"\");\n        _books[tokenId].bookOwner = _msgSender();\n        _books[tokenId].forSale = false;\n        uint royalty = (msg.value * royaltyPercent)/100;\n        payable(bookOwner).transfer(msg.value-royalty);\n    }\n\n    function withdrawRoyalty() public onlyOwner {\n        payable(owner()).transfer(address(this).balance);\n    }\n}\n",
  "sourcePath": "/Users/debasmitroy/BC526/StoryTokenV2/StoryToken/StoryToken-contract/contracts/StoryTokenV1.sol",
  "compiler": {
    "name": "solc",
    "version": "0.8.19+commit.7dd6d404.Emscripten.clang"
  },
  "schemaVersion": "3.4.13",
  "updatedAt": "2023-04-28T18:21:20.108Z",
  "networkType": "ethereum",
  "devdoc": {
    "events": {
      "Approval(address,address,uint256)": {
        "details": "Emitted when `owner` enables `approved` to manage the `tokenId` token."
      },
      "ApprovalForAll(address,address,bool)": {
        "details": "Emitted when `owner` enables or disables (`approved`) `operator` to manage all of its assets."
      },
      "Transfer(address,address,uint256)": {
        "details": "Emitted when `tokenId` token is transferred from `from` to `to`."
      }
    },
    "kind": "dev",
    "methods": {
      "approve(address,uint256)": {
        "details": "See {IERC721-approve}."
      },
      "balanceOf(address)": {
        "details": "See {IERC721-balanceOf}."
      },
      "getApproved(uint256)": {
        "details": "See {IERC721-getApproved}."
      },
      "isApprovedForAll(address,address)": {
        "details": "See {IERC721-isApprovedForAll}."
      },
      "name()": {
        "details": "See {IERC721Metadata-name}."
      },
      "owner()": {
        "details": "Returns the address of the current owner."
      },
      "ownerOf(uint256)": {
        "details": "See {IERC721-ownerOf}."
      },
      "renounceOwnership()": {
        "details": "Leaves the contract without owner. It will not be possible to call `onlyOwner` functions anymore. Can only be called by the current owner. NOTE: Renouncing ownership will leave the contract without an owner, thereby removing any functionality that is only available to the owner."
      },
      "safeTransferFrom(address,address,uint256)": {
        "details": "See {IERC721-safeTransferFrom}."
      },
      "safeTransferFrom(address,address,uint256,bytes)": {
        "details": "See {IERC721-safeTransferFrom}."
      },
      "setApprovalForAll(address,bool)": {
        "details": "See {IERC721-setApprovalForAll}."
      },
      "supportsInterface(bytes4)": {
        "details": "See {IERC165-supportsInterface}."
      },
      "symbol()": {
        "details": "See {IERC721Metadata-symbol}."
      },
      "tokenURI(uint256)": {
        "details": "See {IERC721Metadata-tokenURI}."
      },
      "transferFrom(address,address,uint256)": {
        "details": "See {IERC721-transferFrom}."
      },
      "transferOwnership(address)": {
        "details": "Transfers ownership of the contract to a new account (`newOwner`). Can only be called by the current owner."
      }
    },
    "version": 1
  },
  "userdoc": {
    "kind": "user",
    "methods": {},
    "version": 1
  }
}