{
  "contractName": "StoryToken",
  "abi": [
    {
      "inputs": [
        {
          "internalType": "uint256",
          "name": "royalty",
          "type": "uint256"
        }
      ],
      "stateMutability": "nonpayable",
      "type": "constructor"
    },
    {
      "anonymous": false,
      "inputs": [
        {
          "indexed": true,
          "internalType": "address",
          "name": "owner",
          "type": "address"
        },
        {
          "indexed": true,
          "internalType": "address",
          "name": "approved",
          "type": "address"
        },
        {
          "indexed": true,
          "internalType": "uint256",
          "name": "tokenId",
          "type": "uint256"
        }
      ],
      "name": "Approval",
      "type": "event"
    },
    {
      "anonymous": false,
      "inputs": [
        {
          "indexed": true,
          "internalType": "address",
          "name": "owner",
          "type": "address"
        },
        {
          "indexed": true,
          "internalType": "address",
          "name": "operator",
          "type": "address"
        },
        {
          "indexed": false,
          "internalType": "bool",
          "name": "approved",
          "type": "bool"
        }
      ],
      "name": "ApprovalForAll",
      "type": "event"
    },
    {
      "anonymous": false,
      "inputs": [
        {
          "indexed": false,
          "internalType": "uint256",
          "name": "tokenNum",
          "type": "uint256"
        }
      ],
      "name": "BookCreated",
      "type": "event"
    },
    {
      "anonymous": false,
      "inputs": [
        {
          "indexed": true,
          "internalType": "address",
          "name": "previousOwner",
          "type": "address"
        },
        {
          "indexed": true,
          "internalType": "address",
          "name": "newOwner",
          "type": "address"
        }
      ],
      "name": "OwnershipTransferred",
      "type": "event"
    },
    {
      "anonymous": false,
      "inputs": [
        {
          "indexed": false,
          "internalType": "uint256",
          "name": "royalty",
          "type": "uint256"
        }
      ],
      "name": "RoyaltyWithdrawn",
      "type": "event"
    },
    {
      "anonymous": false,
      "inputs": [
        {
          "indexed": true,
          "internalType": "address",
          "name": "from",
          "type": "address"
        },
        {
          "indexed": true,
          "internalType": "address",
          "name": "to",
          "type": "address"
        },
        {
          "indexed": true,
          "internalType": "uint256",
          "name": "tokenId",
          "type": "uint256"
        }
      ],
      "name": "Transfer",
      "type": "event"
    },
    {
      "inputs": [
        {
          "internalType": "uint256",
          "name": "",
          "type": "uint256"
        }
      ],
      "name": "_books",
      "outputs": [
        {
          "internalType": "address",
          "name": "bookOwner",
          "type": "address"
        },
        {
          "internalType": "bool",
          "name": "forSale",
          "type": "bool"
        },
        {
          "internalType": "uint256",
          "name": "price",
          "type": "uint256"
        }
      ],
      "stateMutability": "view",
      "type": "function",
      "constant": true
    },
    {
      "inputs": [],
      "name": "_tokenIdCounter",
      "outputs": [
        {
          "internalType": "uint256",
          "name": "",
          "type": "uint256"
        }
      ],
      "stateMutability": "view",
      "type": "function",
      "constant": true
    },
    {
      "inputs": [
        {
          "internalType": "address",
          "name": "to",
          "type": "address"
        },
        {
          "internalType": "uint256",
          "name": "tokenId",
          "type": "uint256"
        }
      ],
      "name": "approve",
      "outputs": [],
      "stateMutability": "nonpayable",
      "type": "function"
    },
    {
      "inputs": [
        {
          "internalType": "address",
          "name": "owner",
          "type": "address"
        }
      ],
      "name": "balanceOf",
      "outputs": [
        {
          "internalType": "uint256",
          "name": "",
          "type": "uint256"
        }
      ],
      "stateMutability": "view",
      "type": "function",
      "constant": true
    },
    {
      "inputs": [
        {
          "internalType": "uint256",
          "name": "tokenId",
          "type": "uint256"
        }
      ],
      "name": "getApproved",
      "outputs": [
        {
          "internalType": "address",
          "name": "",
          "type": "address"
        }
      ],
      "stateMutability": "view",
      "type": "function",
      "constant": true
    },
    {
      "inputs": [
        {
          "internalType": "address",
          "name": "owner",
          "type": "address"
        },
        {
          "internalType": "address",
          "name": "operator",
          "type": "address"
        }
      ],
      "name": "isApprovedForAll",
      "outputs": [
        {
          "internalType": "bool",
          "name": "",
          "type": "bool"
        }
      ],
      "stateMutability": "view",
      "type": "function",
      "constant": true
    },
    {
      "inputs": [],
      "name": "name",
      "outputs": [
        {
          "internalType": "string",
          "name": "",
          "type": "string"
        }
      ],
      "stateMutability": "view",
      "type": "function",
      "constant": true
    },
    {
      "inputs": [],
      "name": "owner",
      "outputs": [
        {
          "internalType": "address",
          "name": "",
          "type": "address"
        }
      ],
      "stateMutability": "view",
      "type": "function",
      "constant": true
    },
    {
      "inputs": [
        {
          "internalType": "uint256",
          "name": "tokenId",
          "type": "uint256"
        }
      ],
      "name": "ownerOf",
      "outputs": [
        {
          "internalType": "address",
          "name": "",
          "type": "address"
        }
      ],
      "stateMutability": "view",
      "type": "function",
      "constant": true
    },
    {
      "inputs": [],
      "name": "renounceOwnership",
      "outputs": [],
      "stateMutability": "nonpayable",
      "type": "function"
    },
    {
      "inputs": [
        {
          "internalType": "address",
          "name": "from",
          "type": "address"
        },
        {
          "internalType": "address",
          "name": "to",
          "type": "address"
        },
        {
          "internalType": "uint256",
          "name": "tokenId",
          "type": "uint256"
        }
      ],
      "name": "safeTransferFrom",
      "outputs": [],
      "stateMutability": "nonpayable",
      "type": "function"
    },
    {
      "inputs": [
        {
          "internalType": "address",
          "name": "from",
          "type": "address"
        },
        {
          "internalType": "address",
          "name": "to",
          "type": "address"
        },
        {
          "internalType": "uint256",
          "name": "tokenId",
          "type": "uint256"
        },
        {
          "internalType": "bytes",
          "name": "data",
          "type": "bytes"
        }
      ],
      "name": "safeTransferFrom",
      "outputs": [],
      "stateMutability": "nonpayable",
      "type": "function"
    },
    {
      "inputs": [
        {
          "internalType": "address",
          "name": "operator",
          "type": "address"
        },
        {
          "internalType": "bool",
          "name": "approved",
          "type": "bool"
        }
      ],
      "name": "setApprovalForAll",
      "outputs": [],
      "stateMutability": "nonpayable",
      "type": "function"
    },
    {
      "inputs": [
        {
          "internalType": "bytes4",
          "name": "interfaceId",
          "type": "bytes4"
        }
      ],
      "name": "supportsInterface",
      "outputs": [
        {
          "internalType": "bool",
          "name": "",
          "type": "bool"
        }
      ],
      "stateMutability": "view",
      "type": "function",
      "constant": true
    },
    {
      "inputs": [],
      "name": "symbol",
      "outputs": [
        {
          "internalType": "string",
          "name": "",
          "type": "string"
        }
      ],
      "stateMutability": "view",
      "type": "function",
      "constant": true
    },
    {
      "inputs": [
        {
          "internalType": "uint256",
          "name": "tokenId",
          "type": "uint256"
        }
      ],
      "name": "tokenURI",
      "outputs": [
        {
          "internalType": "string",
          "name": "",
          "type": "string"
        }
      ],
      "stateMutability": "view",
      "type": "function",
      "constant": true
    },
    {
      "inputs": [
        {
          "internalType": "address",
          "name": "from",
          "type": "address"
        },
        {
          "internalType": "address",
          "name": "to",
          "type": "address"
        },
        {
          "internalType": "uint256",
          "name": "tokenId",
          "type": "uint256"
        }
      ],
      "name": "transferFrom",
      "outputs": [],
      "stateMutability": "nonpayable",
      "type": "function"
    },
    {
      "inputs": [
        {
          "internalType": "address",
          "name": "newOwner",
          "type": "address"
        }
      ],
      "name": "transferOwnership",
      "outputs": [],
      "stateMutability": "nonpayable",
      "type": "function"
    },
    {
      "inputs": [
        {
          "internalType": "uint256",
          "name": "price",
          "type": "uint256"
        }
      ],
      "name": "createBook",
      "outputs": [],
      "stateMutability": "nonpayable",
      "type": "function"
    },
    {
      "inputs": [
        {
          "internalType": "uint256",
          "name": "tokenId",
          "type": "uint256"
        },
        {
          "internalType": "address",
          "name": "to",
          "type": "address"
        }
      ],
      "name": "transferBook",
      "outputs": [],
      "stateMutability": "nonpayable",
      "type": "function"
    },
    {
      "inputs": [
        {
          "internalType": "uint256",
          "name": "tokenId",
          "type": "uint256"
        },
        {
          "internalType": "bool",
          "name": "forSale",
          "type": "bool"
        },
        {
          "internalType": "uint256",
          "name": "price",
          "type": "uint256"
        }
      ],
      "name": "setForSale",
      "outputs": [],
      "stateMutability": "nonpayable",
      "type": "function"
    },
    {
      "inputs": [
        {
          "internalType": "uint256",
          "name": "tokenId",
          "type": "uint256"
        }
      ],
      "name": "buyBook",
      "outputs": [],
      "stateMutability": "payable",
      "type": "function",
      "payable": true
    },
    {
      "inputs": [],
      "name": "withdrawRoyalty",
      "outputs": [],
      "stateMutability": "nonpayable",
      "type": "function"
    }
  ],
  "bytecode": "0x608060405260006007553480156200001657600080fd5b5060405162003bf738038062003bf783398181016040528101906200003c91906200020a565b6040518060400160405280600a81526020017f53746f7279546f6b656e000000000000000000000000000000000000000000008152506040518060400160405280600281526020017f53540000000000000000000000000000000000000000000000000000000000008152508160009081620000b99190620004ac565b508060019081620000cb9190620004ac565b505050620000ee620000e2620000fc60201b60201c565b6200010460201b60201c565b806009819055505062000593565b600033905090565b6000600660009054906101000a900473ffffffffffffffffffffffffffffffffffffffff16905081600660006101000a81548173ffffffffffffffffffffffffffffffffffffffff021916908373ffffffffffffffffffffffffffffffffffffffff1602179055508173ffffffffffffffffffffffffffffffffffffffff168173ffffffffffffffffffffffffffffffffffffffff167f8be0079c531659141344cd1fd0a4f28419497f9722a3daafe3b4186f6b6457e060405160405180910390a35050565b600080fd5b6000819050919050565b620001e481620001cf565b8114620001f057600080fd5b50565b6000815190506200020481620001d9565b92915050565b600060208284031215620002235762000222620001ca565b5b60006200023384828501620001f3565b91505092915050565b600081519050919050565b7f4e487b7100000000000000000000000000000000000000000000000000000000600052604160045260246000fd5b7f4e487b7100000000000000000000000000000000000000000000000000000000600052602260045260246000fd5b60006002820490506001821680620002be57607f821691505b602082108103620002d457620002d362000276565b5b50919050565b60008190508160005260206000209050919050565b60006020601f8301049050919050565b600082821b905092915050565b6000600883026200033e7fffffffffffffffffffffffffffffffffffffffffffffffffffffffffffffffff82620002ff565b6200034a8683620002ff565b95508019841693508086168417925050509392505050565b6000819050919050565b60006200038d620003876200038184620001cf565b62000362565b620001cf565b9050919050565b6000819050919050565b620003a9836200036c565b620003c1620003b88262000394565b8484546200030c565b825550505050565b600090565b620003d8620003c9565b620003e58184846200039e565b505050565b5b818110156200040d5762000401600082620003ce565b600181019050620003eb565b5050565b601f8211156200045c576200042681620002da565b6200043184620002ef565b8101602085101562000441578190505b620004596200045085620002ef565b830182620003ea565b50505b505050565b600082821c905092915050565b6000620004816000198460080262000461565b1980831691505092915050565b60006200049c83836200046e565b9150826002028217905092915050565b620004b7826200023c565b67ffffffffffffffff811115620004d357620004d262000247565b5b620004df8254620002a5565b620004ec82828562000411565b600060209050601f8311600181146200052457600084156200050f578287015190505b6200051b85826200048e565b8655506200058b565b601f1984166200053486620002da565b60005b828110156200055e5784890151825560018201915060208501945060208101905062000537565b868310156200057e57848901516200057a601f8916826200046e565b8355505b6001600288020188555050505b505050505050565b61365480620005a36000396000f3fe6080604052600436106101405760003560e01c80638da5cb5b116100b6578063c87b56dd1161006f578063c87b56dd1461044d578063cf5c1b521461048a578063e985e9c5146104b3578063f1147bae146104f0578063f2fde38b14610507578063fc1a15c21461053057610140565b80638da5cb5b1461033d57806395d89b41146103685780639f4e5de714610393578063a22cb465146103d2578063b88d4fde146103fb578063b9ac67671461042457610140565b806342842e0e1161010857806342842e0e1461023c5780636352211e146102655780636ee26566146102a257806370a08231146102be578063715018a6146102fb57806384c4bd4b1461031257610140565b806301ffc9a71461014557806306fdde0314610182578063081812fc146101ad578063095ea7b3146101ea57806323b872dd14610213575b600080fd5b34801561015157600080fd5b5061016c600480360381019061016791906123aa565b610559565b60405161017991906123f2565b60405180910390f35b34801561018e57600080fd5b5061019761063b565b6040516101a4919061249d565b60405180910390f35b3480156101b957600080fd5b506101d460048036038101906101cf91906124f5565b6106cd565b6040516101e19190612563565b60405180910390f35b3480156101f657600080fd5b50610211600480360381019061020c91906125aa565b610713565b005b34801561021f57600080fd5b5061023a600480360381019061023591906125ea565b61082a565b005b34801561024857600080fd5b50610263600480360381019061025e91906125ea565b61088a565b005b34801561027157600080fd5b5061028c600480360381019061028791906124f5565b6108aa565b6040516102999190612563565b60405180910390f35b6102bc60048036038101906102b791906124f5565b610930565b005b3480156102ca57600080fd5b506102e560048036038101906102e0919061263d565b610bd8565b6040516102f29190612679565b60405180910390f35b34801561030757600080fd5b50610310610c8f565b005b34801561031e57600080fd5b50610327610ca3565b6040516103349190612679565b60405180910390f35b34801561034957600080fd5b50610352610ca9565b60405161035f9190612563565b60405180910390f35b34801561037457600080fd5b5061037d610cd3565b60405161038a919061249d565b60405180910390f35b34801561039f57600080fd5b506103ba60048036038101906103b591906124f5565b610d65565b6040516103c993929190612694565b60405180910390f35b3480156103de57600080fd5b506103f960048036038101906103f491906126f7565b610dbc565b005b34801561040757600080fd5b50610422600480360381019061041d919061286c565b610dd2565b005b34801561043057600080fd5b5061044b600480360381019061044691906124f5565b610e34565b005b34801561045957600080fd5b50610474600480360381019061046f91906124f5565b610f6a565b604051610481919061249d565b60405180910390f35b34801561049657600080fd5b506104b160048036038101906104ac91906128ef565b610fd2565b005b3480156104bf57600080fd5b506104da60048036038101906104d59190612942565b6110e7565b6040516104e791906123f2565b60405180910390f35b3480156104fc57600080fd5b5061050561117b565b005b34801561051357600080fd5b5061052e6004803603810190610529919061263d565b611277565b005b34801561053c57600080fd5b5061055760048036038101906105529190612982565b6112fa565b005b60007f80ac58cd000000000000000000000000000000000000000000000000000000007bffffffffffffffffffffffffffffffffffffffffffffffffffffffff1916827bffffffffffffffffffffffffffffffffffffffffffffffffffffffff1916148061062457507f5b5e139f000000000000000000000000000000000000000000000000000000007bffffffffffffffffffffffffffffffffffffffffffffffffffffffff1916827bffffffffffffffffffffffffffffffffffffffffffffffffffffffff1916145b8061063457506106338261142c565b5b9050919050565b60606000805461064a906129f1565b80601f0160208091040260200160405190810160405280929190818152602001828054610676906129f1565b80156106c35780601f10610698576101008083540402835291602001916106c3565b820191906000526020600020905b8154815290600101906020018083116106a657829003601f168201915b5050505050905090565b60006106d882611496565b6004600083815260200190815260200160002060009054906101000a900473ffffffffffffffffffffffffffffffffffffffff169050919050565b600061071e826108aa565b90508073ffffffffffffffffffffffffffffffffffffffff168373ffffffffffffffffffffffffffffffffffffffff160361078e576040517f08c379a000000000000000000000000000000000000000000000000000000000815260040161078590612a94565b60405180910390fd5b8073ffffffffffffffffffffffffffffffffffffffff166107ad6114e1565b73ffffffffffffffffffffffffffffffffffffffff1614806107dc57506107db816107d66114e1565b6110e7565b5b61081b576040517f08c379a000000000000000000000000000000000000000000000000000000000815260040161081290612b26565b60405180910390fd5b61082583836114e9565b505050565b61083b6108356114e1565b826115a2565b61087a576040517f08c379a000000000000000000000000000000000000000000000000000000000815260040161087190612bb8565b60405180910390fd5b610885838383611637565b505050565b6108a583838360405180602001604052806000815250610dd2565b505050565b6000806108b683611930565b9050600073ffffffffffffffffffffffffffffffffffffffff168173ffffffffffffffffffffffffffffffffffffffff1603610927576040517f08c379a000000000000000000000000000000000000000000000000000000000815260040161091e90612c24565b60405180910390fd5b80915050919050565b6109398161196d565b610978576040517f08c379a000000000000000000000000000000000000000000000000000000000815260040161096f90612c90565b60405180910390fd5b6008600082815260200190815260200160002060000160149054906101000a900460ff166109db576040517f08c379a00000000000000000000000000000000000000000000000000000000081526004016109d290612cfc565b60405180910390fd5b60006109e6826108aa565b90506109f06114e1565b73ffffffffffffffffffffffffffffffffffffffff168173ffffffffffffffffffffffffffffffffffffffff1603610a5d576040517f08c379a0000000000000000000000000000000000000000000000000000000008152600401610a5490612d68565b60405180910390fd5b6008600083815260200190815260200160002060010154341015610ab6576040517f08c379a0000000000000000000000000000000000000000000000000000000008152600401610aad90612dd4565b60405180910390fd5b610ad881610ac26114e1565b84604051806020016040528060008152506119ae565b610ae06114e1565b6008600084815260200190815260200160002060000160006101000a81548173ffffffffffffffffffffffffffffffffffffffff021916908373ffffffffffffffffffffffffffffffffffffffff16021790555060006008600084815260200190815260200160002060000160146101000a81548160ff0219169083151502179055506000606460095434610b759190612e23565b610b7f9190612e94565b90508173ffffffffffffffffffffffffffffffffffffffff166108fc8234610ba79190612ec5565b9081150290604051600060405180830381858888f19350505050158015610bd2573d6000803e3d6000fd5b50505050565b60008073ffffffffffffffffffffffffffffffffffffffff168273ffffffffffffffffffffffffffffffffffffffff1603610c48576040517f08c379a0000000000000000000000000000000000000000000000000000000008152600401610c3f90612f6b565b60405180910390fd5b600360008373ffffffffffffffffffffffffffffffffffffffff1673ffffffffffffffffffffffffffffffffffffffff168152602001908152602001600020549050919050565b610c97611a0a565b610ca16000611a88565b565b60075481565b6000600660009054906101000a900473ffffffffffffffffffffffffffffffffffffffff16905090565b606060018054610ce2906129f1565b80601f0160208091040260200160405190810160405280929190818152602001828054610d0e906129f1565b8015610d5b5780601f10610d3057610100808354040283529160200191610d5b565b820191906000526020600020905b815481529060010190602001808311610d3e57829003601f168201915b5050505050905090565b60086020528060005260406000206000915090508060000160009054906101000a900473ffffffffffffffffffffffffffffffffffffffff16908060000160149054906101000a900460ff16908060010154905083565b610dce610dc76114e1565b8383611b4e565b5050565b610de3610ddd6114e1565b836115a2565b610e22576040517f08c379a0000000000000000000000000000000000000000000000000000000008152600401610e1990612bb8565b60405180910390fd5b610e2e848484846119ae565b50505050565b610e3c611a0a565b600160076000828254610e4f9190612f8b565b92505081905550600060075490506000610e676114e1565b9050610e738183611cba565b60405180606001604052808273ffffffffffffffffffffffffffffffffffffffff168152602001600015158152602001848152506008600084815260200190815260200160002060008201518160000160006101000a81548173ffffffffffffffffffffffffffffffffffffffff021916908373ffffffffffffffffffffffffffffffffffffffff16021790555060208201518160000160146101000a81548160ff021916908315150217905550604082015181600101559050507f4931befe04b8ef8a98f4b360614a166851a16a8c40326718fb8817059900bed582604051610f5d9190612679565b60405180910390a1505050565b6060610f7582611496565b6000610f7f611cd8565b90506000815111610f9f5760405180602001604052806000815250610fca565b80610fa984611cef565b604051602001610fba929190612ffb565b6040516020818303038152906040525b915050919050565b82610fdc8161196d565b61101b576040517f08c379a000000000000000000000000000000000000000000000000000000000815260040161101290612c90565b60405180910390fd5b6110236114e1565b73ffffffffffffffffffffffffffffffffffffffff16611042826108aa565b73ffffffffffffffffffffffffffffffffffffffff1614611098576040517f08c379a000000000000000000000000000000000000000000000000000000000815260040161108f90613091565b60405180910390fd5b826008600086815260200190815260200160002060000160146101000a81548160ff02191690831515021790555081600860008681526020019081526020016000206001018190555050505050565b6000600560008473ffffffffffffffffffffffffffffffffffffffff1673ffffffffffffffffffffffffffffffffffffffff16815260200190815260200160002060008373ffffffffffffffffffffffffffffffffffffffff1673ffffffffffffffffffffffffffffffffffffffff16815260200190815260200160002060009054906101000a900460ff16905092915050565b611183610ca9565b73ffffffffffffffffffffffffffffffffffffffff163373ffffffffffffffffffffffffffffffffffffffff16146111f0576040517f08c379a00000000000000000000000000000000000000000000000000000000081526004016111e790613123565b60405180910390fd5b7f72fb1011e9a3cffadd213283977ca02d00edc32afd0c456d4e83b4d2d9d1612a4760405161121f9190612679565b60405180910390a161122f610ca9565b73ffffffffffffffffffffffffffffffffffffffff166108fc479081150290604051600060405180830381858888f19350505050158015611274573d6000803e3d6000fd5b50565b61127f611a0a565b600073ffffffffffffffffffffffffffffffffffffffff168173ffffffffffffffffffffffffffffffffffffffff16036112ee576040517f08c379a00000000000000000000000000000000000000000000000000000000081526004016112e5906131b5565b60405180910390fd5b6112f781611a88565b50565b816113048161196d565b611343576040517f08c379a000000000000000000000000000000000000000000000000000000000815260040161133a90612c90565b60405180910390fd5b61134b6114e1565b73ffffffffffffffffffffffffffffffffffffffff1661136a826108aa565b73ffffffffffffffffffffffffffffffffffffffff16146113c0576040517f08c379a00000000000000000000000000000000000000000000000000000000081526004016113b790613091565b60405180910390fd5b6113d26113cb6114e1565b8385611637565b816008600085815260200190815260200160002060000160006101000a81548173ffffffffffffffffffffffffffffffffffffffff021916908373ffffffffffffffffffffffffffffffffffffffff160217905550505050565b60007f01ffc9a7000000000000000000000000000000000000000000000000000000007bffffffffffffffffffffffffffffffffffffffffffffffffffffffff1916827bffffffffffffffffffffffffffffffffffffffffffffffffffffffff1916149050919050565b61149f8161196d565b6114de576040517f08c379a00000000000000000000000000000000000000000000000000000000081526004016114d590612c24565b60405180910390fd5b50565b600033905090565b816004600083815260200190815260200160002060006101000a81548173ffffffffffffffffffffffffffffffffffffffff021916908373ffffffffffffffffffffffffffffffffffffffff160217905550808273ffffffffffffffffffffffffffffffffffffffff1661155c836108aa565b73ffffffffffffffffffffffffffffffffffffffff167f8c5be1e5ebec7d5bd14f71427d1e84f3dd0314c0f7b2291e5b200ac8c7c3b92560405160405180910390a45050565b6000806115ae836108aa565b90508073ffffffffffffffffffffffffffffffffffffffff168473ffffffffffffffffffffffffffffffffffffffff1614806115f057506115ef81856110e7565b5b8061162e57508373ffffffffffffffffffffffffffffffffffffffff16611616846106cd565b73ffffffffffffffffffffffffffffffffffffffff16145b91505092915050565b8273ffffffffffffffffffffffffffffffffffffffff16611657826108aa565b73ffffffffffffffffffffffffffffffffffffffff16146116ad576040517f08c379a00000000000000000000000000000000000000000000000000000000081526004016116a490613247565b60405180910390fd5b600073ffffffffffffffffffffffffffffffffffffffff168273ffffffffffffffffffffffffffffffffffffffff160361171c576040517f08c379a0000000000000000000000000000000000000000000000000000000008152600401611713906132d9565b60405180910390fd5b6117298383836001611dbd565b8273ffffffffffffffffffffffffffffffffffffffff16611749826108aa565b73ffffffffffffffffffffffffffffffffffffffff161461179f576040517f08c379a000000000000000000000000000000000000000000000000000000000815260040161179690613247565b60405180910390fd5b6004600082815260200190815260200160002060006101000a81549073ffffffffffffffffffffffffffffffffffffffff02191690556001600360008573ffffffffffffffffffffffffffffffffffffffff1673ffffffffffffffffffffffffffffffffffffffff168152602001908152602001600020600082825403925050819055506001600360008473ffffffffffffffffffffffffffffffffffffffff1673ffffffffffffffffffffffffffffffffffffffff16815260200190815260200160002060008282540192505081905550816002600083815260200190815260200160002060006101000a81548173ffffffffffffffffffffffffffffffffffffffff021916908373ffffffffffffffffffffffffffffffffffffffff160217905550808273ffffffffffffffffffffffffffffffffffffffff168473ffffffffffffffffffffffffffffffffffffffff167fddf252ad1be2c89b69c2b068fc378daa952ba7f163c4a11628f55a4df523b3ef60405160405180910390a461192b8383836001611dc3565b505050565b60006002600083815260200190815260200160002060009054906101000a900473ffffffffffffffffffffffffffffffffffffffff169050919050565b60008073ffffffffffffffffffffffffffffffffffffffff1661198f83611930565b73ffffffffffffffffffffffffffffffffffffffff1614159050919050565b6119b9848484611637565b6119c584848484611dc9565b611a04576040517f08c379a00000000000000000000000000000000000000000000000000000000081526004016119fb9061336b565b60405180910390fd5b50505050565b611a126114e1565b73ffffffffffffffffffffffffffffffffffffffff16611a30610ca9565b73ffffffffffffffffffffffffffffffffffffffff1614611a86576040517f08c379a0000000000000000000000000000000000000000000000000000000008152600401611a7d906133d7565b60405180910390fd5b565b6000600660009054906101000a900473ffffffffffffffffffffffffffffffffffffffff16905081600660006101000a81548173ffffffffffffffffffffffffffffffffffffffff021916908373ffffffffffffffffffffffffffffffffffffffff1602179055508173ffffffffffffffffffffffffffffffffffffffff168173ffffffffffffffffffffffffffffffffffffffff167f8be0079c531659141344cd1fd0a4f28419497f9722a3daafe3b4186f6b6457e060405160405180910390a35050565b8173ffffffffffffffffffffffffffffffffffffffff168373ffffffffffffffffffffffffffffffffffffffff1603611bbc576040517f08c379a0000000000000000000000000000000000000000000000000000000008152600401611bb390613443565b60405180910390fd5b80600560008573ffffffffffffffffffffffffffffffffffffffff1673ffffffffffffffffffffffffffffffffffffffff16815260200190815260200160002060008473ffffffffffffffffffffffffffffffffffffffff1673ffffffffffffffffffffffffffffffffffffffff16815260200190815260200160002060006101000a81548160ff0219169083151502179055508173ffffffffffffffffffffffffffffffffffffffff168373ffffffffffffffffffffffffffffffffffffffff167f17307eab39ab6107e8899845ad3d59bd9653f200f220920489ca2b5937696c3183604051611cad91906123f2565b60405180910390a3505050565b611cd4828260405180602001604052806000815250611f50565b5050565b606060405180602001604052806000815250905090565b606060006001611cfe84611fab565b01905060008167ffffffffffffffff811115611d1d57611d1c612741565b5b6040519080825280601f01601f191660200182016040528015611d4f5781602001600182028036833780820191505090505b509050600082602001820190505b600115611db2578080600190039150507f3031323334353637383961626364656600000000000000000000000000000000600a86061a8153600a8581611da657611da5612e65565b5b04945060008503611d5d575b819350505050919050565b50505050565b50505050565b6000611dea8473ffffffffffffffffffffffffffffffffffffffff166120fe565b15611f43578373ffffffffffffffffffffffffffffffffffffffff1663150b7a02611e136114e1565b8786866040518563ffffffff1660e01b8152600401611e3594939291906134b8565b6020604051808303816000875af1925050508015611e7157506040513d601f19601f82011682018060405250810190611e6e9190613519565b60015b611ef3573d8060008114611ea1576040519150601f19603f3d011682016040523d82523d6000602084013e611ea6565b606091505b506000815103611eeb576040517f08c379a0000000000000000000000000000000000000000000000000000000008152600401611ee29061336b565b60405180910390fd5b805181602001fd5b63150b7a0260e01b7bffffffffffffffffffffffffffffffffffffffffffffffffffffffff1916817bffffffffffffffffffffffffffffffffffffffffffffffffffffffff191614915050611f48565b600190505b949350505050565b611f5a8383612121565b611f676000848484611dc9565b611fa6576040517f08c379a0000000000000000000000000000000000000000000000000000000008152600401611f9d9061336b565b60405180910390fd5b505050565b600080600090507a184f03e93ff9f4daa797ed6e38ed64bf6a1f0100000000000000008310612009577a184f03e93ff9f4daa797ed6e38ed64bf6a1f0100000000000000008381611fff57611ffe612e65565b5b0492506040810190505b6d04ee2d6d415b85acef81000000008310612046576d04ee2d6d415b85acef8100000000838161203c5761203b612e65565b5b0492506020810190505b662386f26fc10000831061207557662386f26fc10000838161206b5761206a612e65565b5b0492506010810190505b6305f5e100831061209e576305f5e100838161209457612093612e65565b5b0492506008810190505b61271083106120c35761271083816120b9576120b8612e65565b5b0492506004810190505b606483106120e657606483816120dc576120db612e65565b5b0492506002810190505b600a83106120f5576001810190505b80915050919050565b6000808273ffffffffffffffffffffffffffffffffffffffff163b119050919050565b600073ffffffffffffffffffffffffffffffffffffffff168273ffffffffffffffffffffffffffffffffffffffff1603612190576040517f08c379a000000000000000000000000000000000000000000000000000000000815260040161218790613592565b60405180910390fd5b6121998161196d565b156121d9576040517f08c379a00000000000000000000000000000000000000000000000000000000081526004016121d0906135fe565b60405180910390fd5b6121e7600083836001611dbd565b6121f08161196d565b15612230576040517f08c379a0000000000000000000000000000000000000000000000000000000008152600401612227906135fe565b60405180910390fd5b6001600360008473ffffffffffffffffffffffffffffffffffffffff1673ffffffffffffffffffffffffffffffffffffffff16815260200190815260200160002060008282540192505081905550816002600083815260200190815260200160002060006101000a81548173ffffffffffffffffffffffffffffffffffffffff021916908373ffffffffffffffffffffffffffffffffffffffff160217905550808273ffffffffffffffffffffffffffffffffffffffff16600073ffffffffffffffffffffffffffffffffffffffff167fddf252ad1be2c89b69c2b068fc378daa952ba7f163c4a11628f55a4df523b3ef60405160405180910390a461233a600083836001611dc3565b5050565b6000604051905090565b600080fd5b600080fd5b60007fffffffff0000000000000000000000000000000000000000000000000000000082169050919050565b61238781612352565b811461239257600080fd5b50565b6000813590506123a48161237e565b92915050565b6000602082840312156123c0576123bf612348565b5b60006123ce84828501612395565b91505092915050565b60008115159050919050565b6123ec816123d7565b82525050565b600060208201905061240760008301846123e3565b92915050565b600081519050919050565b600082825260208201905092915050565b60005b8381101561244757808201518184015260208101905061242c565b60008484015250505050565b6000601f19601f8301169050919050565b600061246f8261240d565b6124798185612418565b9350612489818560208601612429565b61249281612453565b840191505092915050565b600060208201905081810360008301526124b78184612464565b905092915050565b6000819050919050565b6124d2816124bf565b81146124dd57600080fd5b50565b6000813590506124ef816124c9565b92915050565b60006020828403121561250b5761250a612348565b5b6000612519848285016124e0565b91505092915050565b600073ffffffffffffffffffffffffffffffffffffffff82169050919050565b600061254d82612522565b9050919050565b61255d81612542565b82525050565b60006020820190506125786000830184612554565b92915050565b61258781612542565b811461259257600080fd5b50565b6000813590506125a48161257e565b92915050565b600080604083850312156125c1576125c0612348565b5b60006125cf85828601612595565b92505060206125e0858286016124e0565b9150509250929050565b60008060006060848603121561260357612602612348565b5b600061261186828701612595565b935050602061262286828701612595565b9250506040612633868287016124e0565b9150509250925092565b60006020828403121561265357612652612348565b5b600061266184828501612595565b91505092915050565b612673816124bf565b82525050565b600060208201905061268e600083018461266a565b92915050565b60006060820190506126a96000830186612554565b6126b660208301856123e3565b6126c3604083018461266a565b949350505050565b6126d4816123d7565b81146126df57600080fd5b50565b6000813590506126f1816126cb565b92915050565b6000806040838503121561270e5761270d612348565b5b600061271c85828601612595565b925050602061272d858286016126e2565b9150509250929050565b600080fd5b600080fd5b7f4e487b7100000000000000000000000000000000000000000000000000000000600052604160045260246000fd5b61277982612453565b810181811067ffffffffffffffff8211171561279857612797612741565b5b80604052505050565b60006127ab61233e565b90506127b78282612770565b919050565b600067ffffffffffffffff8211156127d7576127d6612741565b5b6127e082612453565b9050602081019050919050565b82818337600083830152505050565b600061280f61280a846127bc565b6127a1565b90508281526020810184848401111561282b5761282a61273c565b5b6128368482856127ed565b509392505050565b600082601f83011261285357612852612737565b5b81356128638482602086016127fc565b91505092915050565b6000806000806080858703121561288657612885612348565b5b600061289487828801612595565b94505060206128a587828801612595565b93505060406128b6878288016124e0565b925050606085013567ffffffffffffffff8111156128d7576128d661234d565b5b6128e38782880161283e565b91505092959194509250565b60008060006060848603121561290857612907612348565b5b6000612916868287016124e0565b9350506020612927868287016126e2565b9250506040612938868287016124e0565b9150509250925092565b6000806040838503121561295957612958612348565b5b600061296785828601612595565b925050602061297885828601612595565b9150509250929050565b6000806040838503121561299957612998612348565b5b60006129a7858286016124e0565b92505060206129b885828601612595565b9150509250929050565b7f4e487b7100000000000000000000000000000000000000000000000000000000600052602260045260246000fd5b60006002820490506001821680612a0957607f821691505b602082108103612a1c57612a1b6129c2565b5b50919050565b7f4552433732313a20617070726f76616c20746f2063757272656e74206f776e6560008201527f7200000000000000000000000000000000000000000000000000000000000000602082015250565b6000612a7e602183612418565b9150612a8982612a22565b604082019050919050565b60006020820190508181036000830152612aad81612a71565b9050919050565b7f4552433732313a20617070726f76652063616c6c6572206973206e6f7420746f60008201527f6b656e206f776e6572206f7220617070726f76656420666f7220616c6c000000602082015250565b6000612b10603d83612418565b9150612b1b82612ab4565b604082019050919050565b60006020820190508181036000830152612b3f81612b03565b9050919050565b7f4552433732313a2063616c6c6572206973206e6f7420746f6b656e206f776e6560008201527f72206f7220617070726f76656400000000000000000000000000000000000000602082015250565b6000612ba2602d83612418565b9150612bad82612b46565b604082019050919050565b60006020820190508181036000830152612bd181612b95565b9050919050565b7f4552433732313a20696e76616c696420746f6b656e2049440000000000000000600082015250565b6000612c0e601883612418565b9150612c1982612bd8565b602082019050919050565b60006020820190508181036000830152612c3d81612c01565b9050919050565b7f546f6b656e20646f6573206e6f74206578697374000000000000000000000000600082015250565b6000612c7a601483612418565b9150612c8582612c44565b602082019050919050565b60006020820190508181036000830152612ca981612c6d565b9050919050565b7f426f6f6b206973206e6f7420666f722073616c65000000000000000000000000600082015250565b6000612ce6601483612418565b9150612cf182612cb0565b602082019050919050565b60006020820190508181036000830152612d1581612cd9565b9050919050565b7f43616e6e6f7420627579206f776e20626f6f6b00000000000000000000000000600082015250565b6000612d52601383612418565b9150612d5d82612d1c565b602082019050919050565b60006020820190508181036000830152612d8181612d45565b9050919050565b7f4d75737420706179206d696e696d756d20736574207072696365000000000000600082015250565b6000612dbe601a83612418565b9150612dc982612d88565b602082019050919050565b60006020820190508181036000830152612ded81612db1565b9050919050565b7f4e487b7100000000000000000000000000000000000000000000000000000000600052601160045260246000fd5b6000612e2e826124bf565b9150612e39836124bf565b9250828202612e47816124bf565b91508282048414831517612e5e57612e5d612df4565b5b5092915050565b7f4e487b7100000000000000000000000000000000000000000000000000000000600052601260045260246000fd5b6000612e9f826124bf565b9150612eaa836124bf565b925082612eba57612eb9612e65565b5b828204905092915050565b6000612ed0826124bf565b9150612edb836124bf565b9250828203905081811115612ef357612ef2612df4565b5b92915050565b7f4552433732313a2061646472657373207a65726f206973206e6f74206120766160008201527f6c6964206f776e65720000000000000000000000000000000000000000000000602082015250565b6000612f55602983612418565b9150612f6082612ef9565b604082019050919050565b60006020820190508181036000830152612f8481612f48565b9050919050565b6000612f96826124bf565b9150612fa1836124bf565b9250828201905080821115612fb957612fb8612df4565b5b92915050565b600081905092915050565b6000612fd58261240d565b612fdf8185612fbf565b9350612fef818560208601612429565b80840191505092915050565b60006130078285612fca565b91506130138284612fca565b91508190509392505050565b7f43616c6c6572206973206e6f7420746865206f776e6572206f6620746865207460008201527f6f6b656e00000000000000000000000000000000000000000000000000000000602082015250565b600061307b602483612418565b91506130868261301f565b604082019050919050565b600060208201905081810360008301526130aa8161306e565b9050919050565b7f43616c6c6572206973206e6f7420746865206f776e6572206f6620746865206360008201527f6f6e747261637400000000000000000000000000000000000000000000000000602082015250565b600061310d602783612418565b9150613118826130b1565b604082019050919050565b6000602082019050818103600083015261313c81613100565b9050919050565b7f4f776e61626c653a206e6577206f776e657220697320746865207a65726f206160008201527f6464726573730000000000000000000000000000000000000000000000000000602082015250565b600061319f602683612418565b91506131aa82613143565b604082019050919050565b600060208201905081810360008301526131ce81613192565b9050919050565b7f4552433732313a207472616e736665722066726f6d20696e636f72726563742060008201527f6f776e6572000000000000000000000000000000000000000000000000000000602082015250565b6000613231602583612418565b915061323c826131d5565b604082019050919050565b6000602082019050818103600083015261326081613224565b9050919050565b7f4552433732313a207472616e7366657220746f20746865207a65726f2061646460008201527f7265737300000000000000000000000000000000000000000000000000000000602082015250565b60006132c3602483612418565b91506132ce82613267565b604082019050919050565b600060208201905081810360008301526132f2816132b6565b9050919050565b7f4552433732313a207472616e7366657220746f206e6f6e20455243373231526560008201527f63656976657220696d706c656d656e7465720000000000000000000000000000602082015250565b6000613355603283612418565b9150613360826132f9565b604082019050919050565b6000602082019050818103600083015261338481613348565b9050919050565b7f4f776e61626c653a2063616c6c6572206973206e6f7420746865206f776e6572600082015250565b60006133c1602083612418565b91506133cc8261338b565b602082019050919050565b600060208201905081810360008301526133f0816133b4565b9050919050565b7f4552433732313a20617070726f766520746f2063616c6c657200000000000000600082015250565b600061342d601983612418565b9150613438826133f7565b602082019050919050565b6000602082019050818103600083015261345c81613420565b9050919050565b600081519050919050565b600082825260208201905092915050565b600061348a82613463565b613494818561346e565b93506134a4818560208601612429565b6134ad81612453565b840191505092915050565b60006080820190506134cd6000830187612554565b6134da6020830186612554565b6134e7604083018561266a565b81810360608301526134f9818461347f565b905095945050505050565b6000815190506135138161237e565b92915050565b60006020828403121561352f5761352e612348565b5b600061353d84828501613504565b91505092915050565b7f4552433732313a206d696e7420746f20746865207a65726f2061646472657373600082015250565b600061357c602083612418565b915061358782613546565b602082019050919050565b600060208201905081810360008301526135ab8161356f565b9050919050565b7f4552433732313a20746f6b656e20616c7265616479206d696e74656400000000600082015250565b60006135e8601c83612418565b91506135f3826135b2565b602082019050919050565b60006020820190508181036000830152613617816135db565b905091905056fea2646970667358221220612b6a705e4df503c6f3a0c9989f0e41d64e89531f2cb848e5ada91df7afcee564736f6c63430008130033",
  "immutableReferences": {},
  "source": "//SPDX-License-Identifier: UNLICENSED\npragma solidity ^0.8.0;\n\nimport \"@openzeppelin/contracts/token/ERC721/ERC721.sol\";\nimport \"@openzeppelin/contracts/access/Ownable.sol\";\n\ncontract StoryToken is ERC721, Ownable {\n    // Structure representing the book and its properties\n    struct Book {\n        address bookOwner; // the address of the book owner\n        bool forSale; // whether the book is for sale or not\n        uint price; // the price of the book\n    }\n\n    uint256 public _tokenIdCounter = 0; // counter for token IDs\n    mapping (uint256 => Book) public _books; // mapping of token IDs to books\n    uint royaltyPercent; // the percentage of each sale that goes to the contract owner as royalty\n\n    // Modifier for Author\n    modifier onlyAuthor() {\n        require(msg.sender == owner(), \"Caller is not the owner of the contract\");\n        _;\n    }\n\n    // Modifier for book owner\n    modifier onlyTokenOwner(uint256 tokenId) {\n        require(_exists(tokenId), \"Token does not exist\");\n        require(ownerOf(tokenId) == _msgSender(), \"Caller is not the owner of the token\");\n        _;\n    }\n\n    event BookCreated(uint256 tokenNum); // Event emitted when a book is created\n    event RoyaltyWithdrawn(uint256 royalty); // Event emitted when royalty is withdrawn\n\n    // Constructor that sets the contract name, symbol and the royalty percentage\n    constructor(uint royalty) ERC721(\"StoryToken\", \"ST\") {\n        royaltyPercent = royalty;\n    }\n\n    // Function to create a new book\n    function createBook(uint price) public onlyOwner {\n        _tokenIdCounter += 1; // Increment the tokenIdCounter\n        uint256 tokenId = _tokenIdCounter;\n        address bookOwner = _msgSender();\n        _safeMint(bookOwner, tokenId); // Mint a new token\n        _books[tokenId] = Book(bookOwner, false, price); // Add the new token to the map\n        emit BookCreated(tokenId); // Emit the tokenId number which was created\n    }\n\n    // Function to transfer ownership of a book to another address\n    function transferBook(uint256 tokenId, address to) public onlyTokenOwner(tokenId) {\n        _transfer(_msgSender(), to, tokenId);\n        _books[tokenId].bookOwner = to; // Update the bookOwner in the mapping\n    }\n\n    // Function to set/unset a book for sale and set its price\n    function setForSale(uint256 tokenId, bool forSale, uint price) public onlyTokenOwner(tokenId) {\n        _books[tokenId].forSale = forSale;\n        _books[tokenId].price = price;\n    }\n\n    // Function to buy a book\n    function buyBook(uint256 tokenId) public payable {\n        require(_exists(tokenId), \"Token does not exist\"); // Require the book to exist\n        require(_books[tokenId].forSale, \"Book is not for sale\"); // Require the book to be set for sale\n        address bookOwner = ownerOf(tokenId);\n        require(bookOwner != _msgSender(), \"Cannot buy own book\"); // Require the buyer not equal to the owner\n        require(msg.value >= _books[tokenId].price, \"Must pay minimum set price\"); // Require to pay minimum set price\n        \n        _safeTransfer(bookOwner, _msgSender(), tokenId, \"\"); // Transfer the ownership of book to buyer\n        _books[tokenId].bookOwner = _msgSender(); // Update the bookOwner in the mapping\n        _books[tokenId].forSale = false; // Set the for sale to be false\n        uint royalty = (msg.value * royaltyPercent)/100; // Calculate the royalty\n        payable(bookOwner).transfer(msg.value-royalty); // Send the price - royalty to the previous owner\n    }\n\n    // Function to withdraw royalty from the smart contract\n    function withdrawRoyalty() public onlyAuthor {\n        emit RoyaltyWithdrawn(address(this).balance); // Emit the royalty value\n        payable(owner()).transfer(address(this).balance); // Transfer the royalty to Author\n    }\n}\n",
  "sourcePath": "/Users/debasmitroy/BC526/StoryToken/StoryToken/StoryToken-contract/contracts/StoryTokenV1.sol",
  "compiler": {
    "name": "solc",
    "version": "0.8.19+commit.7dd6d404.Emscripten.clang"
  },
  "schemaVersion": "3.4.13",
  "updatedAt": "2023-04-30T02:44:15.845Z",
  "networkType": "ethereum",
  "devdoc": {
    "events": {
      "Approval(address,address,uint256)": {
        "details": "Emitted when `owner` enables `approved` to manage the `tokenId` token."
      },
      "ApprovalForAll(address,address,bool)": {
        "details": "Emitted when `owner` enables or disables (`approved`) `operator` to manage all of its assets."
      },
      "Transfer(address,address,uint256)": {
        "details": "Emitted when `tokenId` token is transferred from `from` to `to`."
      }
    },
    "kind": "dev",
    "methods": {
      "approve(address,uint256)": {
        "details": "See {IERC721-approve}."
      },
      "balanceOf(address)": {
        "details": "See {IERC721-balanceOf}."
      },
      "getApproved(uint256)": {
        "details": "See {IERC721-getApproved}."
      },
      "isApprovedForAll(address,address)": {
        "details": "See {IERC721-isApprovedForAll}."
      },
      "name()": {
        "details": "See {IERC721Metadata-name}."
      },
      "owner()": {
        "details": "Returns the address of the current owner."
      },
      "ownerOf(uint256)": {
        "details": "See {IERC721-ownerOf}."
      },
      "renounceOwnership()": {
        "details": "Leaves the contract without owner. It will not be possible to call `onlyOwner` functions anymore. Can only be called by the current owner. NOTE: Renouncing ownership will leave the contract without an owner, thereby removing any functionality that is only available to the owner."
      },
      "safeTransferFrom(address,address,uint256)": {
        "details": "See {IERC721-safeTransferFrom}."
      },
      "safeTransferFrom(address,address,uint256,bytes)": {
        "details": "See {IERC721-safeTransferFrom}."
      },
      "setApprovalForAll(address,bool)": {
        "details": "See {IERC721-setApprovalForAll}."
      },
      "supportsInterface(bytes4)": {
        "details": "See {IERC165-supportsInterface}."
      },
      "symbol()": {
        "details": "See {IERC721Metadata-symbol}."
      },
      "tokenURI(uint256)": {
        "details": "See {IERC721Metadata-tokenURI}."
      },
      "transferFrom(address,address,uint256)": {
        "details": "See {IERC721-transferFrom}."
      },
      "transferOwnership(address)": {
        "details": "Transfers ownership of the contract to a new account (`newOwner`). Can only be called by the current owner."
      }
    },
    "version": 1
  },
  "userdoc": {
    "kind": "user",
    "methods": {},
    "version": 1
  }
}