{
  "contractName": "StoryToken",
  "abi": [
    {
      "inputs": [
        {
          "internalType": "uint256",
          "name": "royalty",
          "type": "uint256"
        }
      ],
      "stateMutability": "nonpayable",
      "type": "constructor"
    },
    {
      "anonymous": false,
      "inputs": [
        {
          "indexed": true,
          "internalType": "address",
          "name": "owner",
          "type": "address"
        },
        {
          "indexed": true,
          "internalType": "address",
          "name": "approved",
          "type": "address"
        },
        {
          "indexed": true,
          "internalType": "uint256",
          "name": "tokenId",
          "type": "uint256"
        }
      ],
      "name": "Approval",
      "type": "event"
    },
    {
      "anonymous": false,
      "inputs": [
        {
          "indexed": true,
          "internalType": "address",
          "name": "owner",
          "type": "address"
        },
        {
          "indexed": true,
          "internalType": "address",
          "name": "operator",
          "type": "address"
        },
        {
          "indexed": false,
          "internalType": "bool",
          "name": "approved",
          "type": "bool"
        }
      ],
      "name": "ApprovalForAll",
      "type": "event"
    },
    {
      "anonymous": false,
      "inputs": [
        {
          "indexed": false,
          "internalType": "uint256",
          "name": "tokenNum",
          "type": "uint256"
        }
      ],
      "name": "BookCreated",
      "type": "event"
    },
    {
      "anonymous": false,
      "inputs": [
        {
          "indexed": true,
          "internalType": "address",
          "name": "previousOwner",
          "type": "address"
        },
        {
          "indexed": true,
          "internalType": "address",
          "name": "newOwner",
          "type": "address"
        }
      ],
      "name": "OwnershipTransferred",
      "type": "event"
    },
    {
      "anonymous": false,
      "inputs": [
        {
          "indexed": false,
          "internalType": "uint256",
          "name": "tokenNum",
          "type": "uint256"
        }
      ],
      "name": "RoyaltyWithdrawn",
      "type": "event"
    },
    {
      "anonymous": false,
      "inputs": [
        {
          "indexed": true,
          "internalType": "address",
          "name": "from",
          "type": "address"
        },
        {
          "indexed": true,
          "internalType": "address",
          "name": "to",
          "type": "address"
        },
        {
          "indexed": true,
          "internalType": "uint256",
          "name": "tokenId",
          "type": "uint256"
        }
      ],
      "name": "Transfer",
      "type": "event"
    },
    {
      "inputs": [
        {
          "internalType": "uint256",
          "name": "",
          "type": "uint256"
        }
      ],
      "name": "_books",
      "outputs": [
        {
          "internalType": "string",
          "name": "title",
          "type": "string"
        },
        {
          "internalType": "string",
          "name": "author",
          "type": "string"
        },
        {
          "internalType": "string",
          "name": "publisher",
          "type": "string"
        },
        {
          "internalType": "uint256",
          "name": "year",
          "type": "uint256"
        },
        {
          "internalType": "address",
          "name": "bookOwner",
          "type": "address"
        },
        {
          "internalType": "bool",
          "name": "forSale",
          "type": "bool"
        },
        {
          "internalType": "uint256",
          "name": "price",
          "type": "uint256"
        }
      ],
      "stateMutability": "view",
      "type": "function",
      "constant": true
    },
    {
      "inputs": [],
      "name": "_tokenIdCounter",
      "outputs": [
        {
          "internalType": "uint256",
          "name": "",
          "type": "uint256"
        }
      ],
      "stateMutability": "view",
      "type": "function",
      "constant": true
    },
    {
      "inputs": [
        {
          "internalType": "address",
          "name": "to",
          "type": "address"
        },
        {
          "internalType": "uint256",
          "name": "tokenId",
          "type": "uint256"
        }
      ],
      "name": "approve",
      "outputs": [],
      "stateMutability": "nonpayable",
      "type": "function"
    },
    {
      "inputs": [
        {
          "internalType": "address",
          "name": "owner",
          "type": "address"
        }
      ],
      "name": "balanceOf",
      "outputs": [
        {
          "internalType": "uint256",
          "name": "",
          "type": "uint256"
        }
      ],
      "stateMutability": "view",
      "type": "function",
      "constant": true
    },
    {
      "inputs": [
        {
          "internalType": "uint256",
          "name": "tokenId",
          "type": "uint256"
        }
      ],
      "name": "getApproved",
      "outputs": [
        {
          "internalType": "address",
          "name": "",
          "type": "address"
        }
      ],
      "stateMutability": "view",
      "type": "function",
      "constant": true
    },
    {
      "inputs": [
        {
          "internalType": "address",
          "name": "owner",
          "type": "address"
        },
        {
          "internalType": "address",
          "name": "operator",
          "type": "address"
        }
      ],
      "name": "isApprovedForAll",
      "outputs": [
        {
          "internalType": "bool",
          "name": "",
          "type": "bool"
        }
      ],
      "stateMutability": "view",
      "type": "function",
      "constant": true
    },
    {
      "inputs": [],
      "name": "name",
      "outputs": [
        {
          "internalType": "string",
          "name": "",
          "type": "string"
        }
      ],
      "stateMutability": "view",
      "type": "function",
      "constant": true
    },
    {
      "inputs": [],
      "name": "owner",
      "outputs": [
        {
          "internalType": "address",
          "name": "",
          "type": "address"
        }
      ],
      "stateMutability": "view",
      "type": "function",
      "constant": true
    },
    {
      "inputs": [
        {
          "internalType": "uint256",
          "name": "tokenId",
          "type": "uint256"
        }
      ],
      "name": "ownerOf",
      "outputs": [
        {
          "internalType": "address",
          "name": "",
          "type": "address"
        }
      ],
      "stateMutability": "view",
      "type": "function",
      "constant": true
    },
    {
      "inputs": [],
      "name": "renounceOwnership",
      "outputs": [],
      "stateMutability": "nonpayable",
      "type": "function"
    },
    {
      "inputs": [
        {
          "internalType": "address",
          "name": "from",
          "type": "address"
        },
        {
          "internalType": "address",
          "name": "to",
          "type": "address"
        },
        {
          "internalType": "uint256",
          "name": "tokenId",
          "type": "uint256"
        }
      ],
      "name": "safeTransferFrom",
      "outputs": [],
      "stateMutability": "nonpayable",
      "type": "function"
    },
    {
      "inputs": [
        {
          "internalType": "address",
          "name": "from",
          "type": "address"
        },
        {
          "internalType": "address",
          "name": "to",
          "type": "address"
        },
        {
          "internalType": "uint256",
          "name": "tokenId",
          "type": "uint256"
        },
        {
          "internalType": "bytes",
          "name": "data",
          "type": "bytes"
        }
      ],
      "name": "safeTransferFrom",
      "outputs": [],
      "stateMutability": "nonpayable",
      "type": "function"
    },
    {
      "inputs": [
        {
          "internalType": "address",
          "name": "operator",
          "type": "address"
        },
        {
          "internalType": "bool",
          "name": "approved",
          "type": "bool"
        }
      ],
      "name": "setApprovalForAll",
      "outputs": [],
      "stateMutability": "nonpayable",
      "type": "function"
    },
    {
      "inputs": [
        {
          "internalType": "bytes4",
          "name": "interfaceId",
          "type": "bytes4"
        }
      ],
      "name": "supportsInterface",
      "outputs": [
        {
          "internalType": "bool",
          "name": "",
          "type": "bool"
        }
      ],
      "stateMutability": "view",
      "type": "function",
      "constant": true
    },
    {
      "inputs": [],
      "name": "symbol",
      "outputs": [
        {
          "internalType": "string",
          "name": "",
          "type": "string"
        }
      ],
      "stateMutability": "view",
      "type": "function",
      "constant": true
    },
    {
      "inputs": [
        {
          "internalType": "uint256",
          "name": "tokenId",
          "type": "uint256"
        }
      ],
      "name": "tokenURI",
      "outputs": [
        {
          "internalType": "string",
          "name": "",
          "type": "string"
        }
      ],
      "stateMutability": "view",
      "type": "function",
      "constant": true
    },
    {
      "inputs": [
        {
          "internalType": "address",
          "name": "from",
          "type": "address"
        },
        {
          "internalType": "address",
          "name": "to",
          "type": "address"
        },
        {
          "internalType": "uint256",
          "name": "tokenId",
          "type": "uint256"
        }
      ],
      "name": "transferFrom",
      "outputs": [],
      "stateMutability": "nonpayable",
      "type": "function"
    },
    {
      "inputs": [
        {
          "internalType": "address",
          "name": "newOwner",
          "type": "address"
        }
      ],
      "name": "transferOwnership",
      "outputs": [],
      "stateMutability": "nonpayable",
      "type": "function"
    },
    {
      "inputs": [
        {
          "internalType": "string",
          "name": "title",
          "type": "string"
        },
        {
          "internalType": "string",
          "name": "author",
          "type": "string"
        },
        {
          "internalType": "string",
          "name": "publisher",
          "type": "string"
        },
        {
          "internalType": "uint256",
          "name": "year",
          "type": "uint256"
        },
        {
          "internalType": "uint256",
          "name": "price",
          "type": "uint256"
        }
      ],
      "name": "createBook",
      "outputs": [],
      "stateMutability": "nonpayable",
      "type": "function"
    },
    {
      "inputs": [
        {
          "internalType": "uint256",
          "name": "tokenId",
          "type": "uint256"
        },
        {
          "internalType": "address",
          "name": "to",
          "type": "address"
        }
      ],
      "name": "transferBook",
      "outputs": [],
      "stateMutability": "nonpayable",
      "type": "function"
    },
    {
      "inputs": [
        {
          "internalType": "uint256",
          "name": "tokenId",
          "type": "uint256"
        },
        {
          "internalType": "bool",
          "name": "forSale",
          "type": "bool"
        },
        {
          "internalType": "uint256",
          "name": "price",
          "type": "uint256"
        }
      ],
      "name": "setForSale",
      "outputs": [],
      "stateMutability": "nonpayable",
      "type": "function"
    },
    {
      "inputs": [
        {
          "internalType": "uint256",
          "name": "tokenId",
          "type": "uint256"
        }
      ],
      "name": "buyBook",
      "outputs": [],
      "stateMutability": "payable",
      "type": "function",
      "payable": true
    },
    {
      "inputs": [],
      "name": "withdrawRoyalty",
      "outputs": [],
      "stateMutability": "nonpayable",
      "type": "function"
    }
  ],
  "bytecode": "0x608060405260006007553480156200001657600080fd5b50604051620041913803806200419183398181016040528101906200003c91906200020a565b6040518060400160405280600a81526020017f53746f7279546f6b656e000000000000000000000000000000000000000000008152506040518060400160405280600281526020017f53540000000000000000000000000000000000000000000000000000000000008152508160009081620000b99190620004ac565b508060019081620000cb9190620004ac565b505050620000ee620000e2620000fc60201b60201c565b6200010460201b60201c565b806009819055505062000593565b600033905090565b6000600660009054906101000a900473ffffffffffffffffffffffffffffffffffffffff16905081600660006101000a81548173ffffffffffffffffffffffffffffffffffffffff021916908373ffffffffffffffffffffffffffffffffffffffff1602179055508173ffffffffffffffffffffffffffffffffffffffff168173ffffffffffffffffffffffffffffffffffffffff167f8be0079c531659141344cd1fd0a4f28419497f9722a3daafe3b4186f6b6457e060405160405180910390a35050565b600080fd5b6000819050919050565b620001e481620001cf565b8114620001f057600080fd5b50565b6000815190506200020481620001d9565b92915050565b600060208284031215620002235762000222620001ca565b5b60006200023384828501620001f3565b91505092915050565b600081519050919050565b7f4e487b7100000000000000000000000000000000000000000000000000000000600052604160045260246000fd5b7f4e487b7100000000000000000000000000000000000000000000000000000000600052602260045260246000fd5b60006002820490506001821680620002be57607f821691505b602082108103620002d457620002d362000276565b5b50919050565b60008190508160005260206000209050919050565b60006020601f8301049050919050565b600082821b905092915050565b6000600883026200033e7fffffffffffffffffffffffffffffffffffffffffffffffffffffffffffffffff82620002ff565b6200034a8683620002ff565b95508019841693508086168417925050509392505050565b6000819050919050565b60006200038d620003876200038184620001cf565b62000362565b620001cf565b9050919050565b6000819050919050565b620003a9836200036c565b620003c1620003b88262000394565b8484546200030c565b825550505050565b600090565b620003d8620003c9565b620003e58184846200039e565b505050565b5b818110156200040d5762000401600082620003ce565b600181019050620003eb565b5050565b601f8211156200045c576200042681620002da565b6200043184620002ef565b8101602085101562000441578190505b620004596200045085620002ef565b830182620003ea565b50505b505050565b600082821c905092915050565b6000620004816000198460080262000461565b1980831691505092915050565b60006200049c83836200046e565b9150826002028217905092915050565b620004b7826200023c565b67ffffffffffffffff811115620004d357620004d262000247565b5b620004df8254620002a5565b620004ec82828562000411565b600060209050601f8311600181146200052457600084156200050f578287015190505b6200051b85826200048e565b8655506200058b565b601f1984166200053486620002da565b60005b828110156200055e5784890151825560018201915060208501945060208101905062000537565b868310156200057e57848901516200057a601f8916826200046e565b8355505b6001600288020188555050505b505050505050565b613bee80620005a36000396000f3fe6080604052600436106101405760003560e01c80638da5cb5b116100b6578063cf5c1b521161006f578063cf5c1b5214610465578063e985e9c51461048e578063f1147bae146104cb578063f2fde38b146104e2578063f4eea0f21461050b578063fc1a15c21461053457610140565b80638da5cb5b1461033d57806395d89b41146103685780639f4e5de714610393578063a22cb465146103d6578063b88d4fde146103ff578063c87b56dd1461042857610140565b806342842e0e1161010857806342842e0e1461023c5780636352211e146102655780636ee26566146102a257806370a08231146102be578063715018a6146102fb57806384c4bd4b1461031257610140565b806301ffc9a71461014557806306fdde0314610182578063081812fc146101ad578063095ea7b3146101ea57806323b872dd14610213575b600080fd5b34801561015157600080fd5b5061016c60048036038101906101679190612555565b61055d565b604051610179919061259d565b60405180910390f35b34801561018e57600080fd5b5061019761063f565b6040516101a49190612648565b60405180910390f35b3480156101b957600080fd5b506101d460048036038101906101cf91906126a0565b6106d1565b6040516101e1919061270e565b60405180910390f35b3480156101f657600080fd5b50610211600480360381019061020c9190612755565b610717565b005b34801561021f57600080fd5b5061023a60048036038101906102359190612795565b61082e565b005b34801561024857600080fd5b50610263600480360381019061025e9190612795565b61088e565b005b34801561027157600080fd5b5061028c600480360381019061028791906126a0565b6108ae565b604051610299919061270e565b60405180910390f35b6102bc60048036038101906102b791906126a0565b610934565b005b3480156102ca57600080fd5b506102e560048036038101906102e091906127e8565b610bdc565b6040516102f29190612824565b60405180910390f35b34801561030757600080fd5b50610310610c93565b005b34801561031e57600080fd5b50610327610ca7565b6040516103349190612824565b60405180910390f35b34801561034957600080fd5b50610352610cad565b60405161035f919061270e565b60405180910390f35b34801561037457600080fd5b5061037d610cd7565b60405161038a9190612648565b60405180910390f35b34801561039f57600080fd5b506103ba60048036038101906103b591906126a0565b610d69565b6040516103cd979695949392919061283f565b60405180910390f35b3480156103e257600080fd5b506103fd60048036038101906103f891906128ef565b610f70565b005b34801561040b57600080fd5b5061042660048036038101906104219190612a64565b610f86565b005b34801561043457600080fd5b5061044f600480360381019061044a91906126a0565b610fe8565b60405161045c9190612648565b60405180910390f35b34801561047157600080fd5b5061048c60048036038101906104879190612ae7565b611050565b005b34801561049a57600080fd5b506104b560048036038101906104b09190612b3a565b611163565b6040516104c2919061259d565b60405180910390f35b3480156104d757600080fd5b506104e06111f7565b005b3480156104ee57600080fd5b50610509600480360381019061050491906127e8565b611286565b005b34801561051757600080fd5b50610532600480360381019061052d9190612c1b565b611309565b005b34801561054057600080fd5b5061055b60048036038101906105569190612cea565b6114a7565b005b60007f80ac58cd000000000000000000000000000000000000000000000000000000007bffffffffffffffffffffffffffffffffffffffffffffffffffffffff1916827bffffffffffffffffffffffffffffffffffffffffffffffffffffffff1916148061062857507f5b5e139f000000000000000000000000000000000000000000000000000000007bffffffffffffffffffffffffffffffffffffffffffffffffffffffff1916827bffffffffffffffffffffffffffffffffffffffffffffffffffffffff1916145b806106385750610637826115d7565b5b9050919050565b60606000805461064e90612d59565b80601f016020809104026020016040519081016040528092919081815260200182805461067a90612d59565b80156106c75780601f1061069c576101008083540402835291602001916106c7565b820191906000526020600020905b8154815290600101906020018083116106aa57829003601f168201915b5050505050905090565b60006106dc82611641565b6004600083815260200190815260200160002060009054906101000a900473ffffffffffffffffffffffffffffffffffffffff169050919050565b6000610722826108ae565b90508073ffffffffffffffffffffffffffffffffffffffff168373ffffffffffffffffffffffffffffffffffffffff1603610792576040517f08c379a000000000000000000000000000000000000000000000000000000000815260040161078990612dfc565b60405180910390fd5b8073ffffffffffffffffffffffffffffffffffffffff166107b161168c565b73ffffffffffffffffffffffffffffffffffffffff1614806107e057506107df816107da61168c565b611163565b5b61081f576040517f08c379a000000000000000000000000000000000000000000000000000000000815260040161081690612e8e565b60405180910390fd5b6108298383611694565b505050565b61083f61083961168c565b8261174d565b61087e576040517f08c379a000000000000000000000000000000000000000000000000000000000815260040161087590612f20565b60405180910390fd5b6108898383836117e2565b505050565b6108a983838360405180602001604052806000815250610f86565b505050565b6000806108ba83611adb565b9050600073ffffffffffffffffffffffffffffffffffffffff168173ffffffffffffffffffffffffffffffffffffffff160361092b576040517f08c379a000000000000000000000000000000000000000000000000000000000815260040161092290612f8c565b60405180910390fd5b80915050919050565b61093d81611b18565b61097c576040517f08c379a000000000000000000000000000000000000000000000000000000000815260040161097390612ff8565b60405180910390fd5b6008600082815260200190815260200160002060040160149054906101000a900460ff166109df576040517f08c379a00000000000000000000000000000000000000000000000000000000081526004016109d690613064565b60405180910390fd5b60006109ea826108ae565b90506109f461168c565b73ffffffffffffffffffffffffffffffffffffffff168173ffffffffffffffffffffffffffffffffffffffff1603610a61576040517f08c379a0000000000000000000000000000000000000000000000000000000008152600401610a58906130d0565b60405180910390fd5b6008600083815260200190815260200160002060050154341015610aba576040517f08c379a0000000000000000000000000000000000000000000000000000000008152600401610ab19061313c565b60405180910390fd5b610adc81610ac661168c565b8460405180602001604052806000815250611b59565b610ae461168c565b6008600084815260200190815260200160002060040160006101000a81548173ffffffffffffffffffffffffffffffffffffffff021916908373ffffffffffffffffffffffffffffffffffffffff16021790555060006008600084815260200190815260200160002060040160146101000a81548160ff0219169083151502179055506000606460095434610b79919061318b565b610b8391906131fc565b90508173ffffffffffffffffffffffffffffffffffffffff166108fc8234610bab919061322d565b9081150290604051600060405180830381858888f19350505050158015610bd6573d6000803e3d6000fd5b50505050565b60008073ffffffffffffffffffffffffffffffffffffffff168273ffffffffffffffffffffffffffffffffffffffff1603610c4c576040517f08c379a0000000000000000000000000000000000000000000000000000000008152600401610c43906132d3565b60405180910390fd5b600360008373ffffffffffffffffffffffffffffffffffffffff1673ffffffffffffffffffffffffffffffffffffffff168152602001908152602001600020549050919050565b610c9b611bb5565b610ca56000611c33565b565b60075481565b6000600660009054906101000a900473ffffffffffffffffffffffffffffffffffffffff16905090565b606060018054610ce690612d59565b80601f0160208091040260200160405190810160405280929190818152602001828054610d1290612d59565b8015610d5f5780601f10610d3457610100808354040283529160200191610d5f565b820191906000526020600020905b815481529060010190602001808311610d4257829003601f168201915b5050505050905090565b6008602052806000526040600020600091509050806000018054610d8c90612d59565b80601f0160208091040260200160405190810160405280929190818152602001828054610db890612d59565b8015610e055780601f10610dda57610100808354040283529160200191610e05565b820191906000526020600020905b815481529060010190602001808311610de857829003601f168201915b505050505090806001018054610e1a90612d59565b80601f0160208091040260200160405190810160405280929190818152602001828054610e4690612d59565b8015610e935780601f10610e6857610100808354040283529160200191610e93565b820191906000526020600020905b815481529060010190602001808311610e7657829003601f168201915b505050505090806002018054610ea890612d59565b80601f0160208091040260200160405190810160405280929190818152602001828054610ed490612d59565b8015610f215780601f10610ef657610100808354040283529160200191610f21565b820191906000526020600020905b815481529060010190602001808311610f0457829003601f168201915b5050505050908060030154908060040160009054906101000a900473ffffffffffffffffffffffffffffffffffffffff16908060040160149054906101000a900460ff16908060050154905087565b610f82610f7b61168c565b8383611cf9565b5050565b610f97610f9161168c565b8361174d565b610fd6576040517f08c379a0000000000000000000000000000000000000000000000000000000008152600401610fcd90612f20565b60405180910390fd5b610fe284848484611b59565b50505050565b6060610ff382611641565b6000610ffd611e65565b9050600081511161101d5760405180602001604052806000815250611048565b8061102784611e7c565b60405160200161103892919061332f565b6040516020818303038152906040525b915050919050565b61105983611b18565b611098576040517f08c379a000000000000000000000000000000000000000000000000000000000815260040161108f90612ff8565b60405180910390fd5b6110a061168c565b73ffffffffffffffffffffffffffffffffffffffff166110bf846108ae565b73ffffffffffffffffffffffffffffffffffffffff1614611115576040517f08c379a000000000000000000000000000000000000000000000000000000000815260040161110c9061339f565b60405180910390fd5b816008600085815260200190815260200160002060040160146101000a81548160ff021916908315150217905550806008600085815260200190815260200160002060050181905550505050565b6000600560008473ffffffffffffffffffffffffffffffffffffffff1673ffffffffffffffffffffffffffffffffffffffff16815260200190815260200160002060008373ffffffffffffffffffffffffffffffffffffffff1673ffffffffffffffffffffffffffffffffffffffff16815260200190815260200160002060009054906101000a900460ff16905092915050565b6111ff611bb5565b7f72fb1011e9a3cffadd213283977ca02d00edc32afd0c456d4e83b4d2d9d1612a4760405161122e9190612824565b60405180910390a161123e610cad565b73ffffffffffffffffffffffffffffffffffffffff166108fc479081150290604051600060405180830381858888f19350505050158015611283573d6000803e3d6000fd5b50565b61128e611bb5565b600073ffffffffffffffffffffffffffffffffffffffff168173ffffffffffffffffffffffffffffffffffffffff16036112fd576040517f08c379a00000000000000000000000000000000000000000000000000000000081526004016112f490613431565b60405180910390fd5b61130681611c33565b50565b611311611bb5565b6001600760008282546113249190613451565b9250508190555060006007549050600061133c61168c565b90506113488183611f4a565b6040518060e001604052808881526020018781526020018681526020018581526020018273ffffffffffffffffffffffffffffffffffffffff168152602001600015158152602001848152506008600084815260200190815260200160002060008201518160000190816113bc9190613631565b5060208201518160010190816113d29190613631565b5060408201518160020190816113e89190613631565b506060820151816003015560808201518160040160006101000a81548173ffffffffffffffffffffffffffffffffffffffff021916908373ffffffffffffffffffffffffffffffffffffffff16021790555060a08201518160040160146101000a81548160ff02191690831515021790555060c082015181600501559050507f4931befe04b8ef8a98f4b360614a166851a16a8c40326718fb8817059900bed5826040516114969190612824565b60405180910390a150505050505050565b6114b082611b18565b6114ef576040517f08c379a00000000000000000000000000000000000000000000000000000000081526004016114e690612ff8565b60405180910390fd5b6114f761168c565b73ffffffffffffffffffffffffffffffffffffffff16611516836108ae565b73ffffffffffffffffffffffffffffffffffffffff161461156c576040517f08c379a00000000000000000000000000000000000000000000000000000000081526004016115639061374f565b60405180910390fd5b61157e61157761168c565b82846117e2565b806008600084815260200190815260200160002060040160006101000a81548173ffffffffffffffffffffffffffffffffffffffff021916908373ffffffffffffffffffffffffffffffffffffffff1602179055505050565b60007f01ffc9a7000000000000000000000000000000000000000000000000000000007bffffffffffffffffffffffffffffffffffffffffffffffffffffffff1916827bffffffffffffffffffffffffffffffffffffffffffffffffffffffff1916149050919050565b61164a81611b18565b611689576040517f08c379a000000000000000000000000000000000000000000000000000000000815260040161168090612f8c565b60405180910390fd5b50565b600033905090565b816004600083815260200190815260200160002060006101000a81548173ffffffffffffffffffffffffffffffffffffffff021916908373ffffffffffffffffffffffffffffffffffffffff160217905550808273ffffffffffffffffffffffffffffffffffffffff16611707836108ae565b73ffffffffffffffffffffffffffffffffffffffff167f8c5be1e5ebec7d5bd14f71427d1e84f3dd0314c0f7b2291e5b200ac8c7c3b92560405160405180910390a45050565b600080611759836108ae565b90508073ffffffffffffffffffffffffffffffffffffffff168473ffffffffffffffffffffffffffffffffffffffff16148061179b575061179a8185611163565b5b806117d957508373ffffffffffffffffffffffffffffffffffffffff166117c1846106d1565b73ffffffffffffffffffffffffffffffffffffffff16145b91505092915050565b8273ffffffffffffffffffffffffffffffffffffffff16611802826108ae565b73ffffffffffffffffffffffffffffffffffffffff1614611858576040517f08c379a000000000000000000000000000000000000000000000000000000000815260040161184f906137e1565b60405180910390fd5b600073ffffffffffffffffffffffffffffffffffffffff168273ffffffffffffffffffffffffffffffffffffffff16036118c7576040517f08c379a00000000000000000000000000000000000000000000000000000000081526004016118be90613873565b60405180910390fd5b6118d48383836001611f68565b8273ffffffffffffffffffffffffffffffffffffffff166118f4826108ae565b73ffffffffffffffffffffffffffffffffffffffff161461194a576040517f08c379a0000000000000000000000000000000000000000000000000000000008152600401611941906137e1565b60405180910390fd5b6004600082815260200190815260200160002060006101000a81549073ffffffffffffffffffffffffffffffffffffffff02191690556001600360008573ffffffffffffffffffffffffffffffffffffffff1673ffffffffffffffffffffffffffffffffffffffff168152602001908152602001600020600082825403925050819055506001600360008473ffffffffffffffffffffffffffffffffffffffff1673ffffffffffffffffffffffffffffffffffffffff16815260200190815260200160002060008282540192505081905550816002600083815260200190815260200160002060006101000a81548173ffffffffffffffffffffffffffffffffffffffff021916908373ffffffffffffffffffffffffffffffffffffffff160217905550808273ffffffffffffffffffffffffffffffffffffffff168473ffffffffffffffffffffffffffffffffffffffff167fddf252ad1be2c89b69c2b068fc378daa952ba7f163c4a11628f55a4df523b3ef60405160405180910390a4611ad68383836001611f6e565b505050565b60006002600083815260200190815260200160002060009054906101000a900473ffffffffffffffffffffffffffffffffffffffff169050919050565b60008073ffffffffffffffffffffffffffffffffffffffff16611b3a83611adb565b73ffffffffffffffffffffffffffffffffffffffff1614159050919050565b611b648484846117e2565b611b7084848484611f74565b611baf576040517f08c379a0000000000000000000000000000000000000000000000000000000008152600401611ba690613905565b60405180910390fd5b50505050565b611bbd61168c565b73ffffffffffffffffffffffffffffffffffffffff16611bdb610cad565b73ffffffffffffffffffffffffffffffffffffffff1614611c31576040517f08c379a0000000000000000000000000000000000000000000000000000000008152600401611c2890613971565b60405180910390fd5b565b6000600660009054906101000a900473ffffffffffffffffffffffffffffffffffffffff16905081600660006101000a81548173ffffffffffffffffffffffffffffffffffffffff021916908373ffffffffffffffffffffffffffffffffffffffff1602179055508173ffffffffffffffffffffffffffffffffffffffff168173ffffffffffffffffffffffffffffffffffffffff167f8be0079c531659141344cd1fd0a4f28419497f9722a3daafe3b4186f6b6457e060405160405180910390a35050565b8173ffffffffffffffffffffffffffffffffffffffff168373ffffffffffffffffffffffffffffffffffffffff1603611d67576040517f08c379a0000000000000000000000000000000000000000000000000000000008152600401611d5e906139dd565b60405180910390fd5b80600560008573ffffffffffffffffffffffffffffffffffffffff1673ffffffffffffffffffffffffffffffffffffffff16815260200190815260200160002060008473ffffffffffffffffffffffffffffffffffffffff1673ffffffffffffffffffffffffffffffffffffffff16815260200190815260200160002060006101000a81548160ff0219169083151502179055508173ffffffffffffffffffffffffffffffffffffffff168373ffffffffffffffffffffffffffffffffffffffff167f17307eab39ab6107e8899845ad3d59bd9653f200f220920489ca2b5937696c3183604051611e58919061259d565b60405180910390a3505050565b606060405180602001604052806000815250905090565b606060006001611e8b846120fb565b01905060008167ffffffffffffffff811115611eaa57611ea9612939565b5b6040519080825280601f01601f191660200182016040528015611edc5781602001600182028036833780820191505090505b509050600082602001820190505b600115611f3f578080600190039150507f3031323334353637383961626364656600000000000000000000000000000000600a86061a8153600a8581611f3357611f326131cd565b5b04945060008503611eea575b819350505050919050565b611f6482826040518060200160405280600081525061224e565b5050565b50505050565b50505050565b6000611f958473ffffffffffffffffffffffffffffffffffffffff166122a9565b156120ee578373ffffffffffffffffffffffffffffffffffffffff1663150b7a02611fbe61168c565b8786866040518563ffffffff1660e01b8152600401611fe09493929190613a52565b6020604051808303816000875af192505050801561201c57506040513d601f19601f820116820180604052508101906120199190613ab3565b60015b61209e573d806000811461204c576040519150601f19603f3d011682016040523d82523d6000602084013e612051565b606091505b506000815103612096576040517f08c379a000000000000000000000000000000000000000000000000000000000815260040161208d90613905565b60405180910390fd5b805181602001fd5b63150b7a0260e01b7bffffffffffffffffffffffffffffffffffffffffffffffffffffffff1916817bffffffffffffffffffffffffffffffffffffffffffffffffffffffff1916149150506120f3565b600190505b949350505050565b600080600090507a184f03e93ff9f4daa797ed6e38ed64bf6a1f0100000000000000008310612159577a184f03e93ff9f4daa797ed6e38ed64bf6a1f010000000000000000838161214f5761214e6131cd565b5b0492506040810190505b6d04ee2d6d415b85acef81000000008310612196576d04ee2d6d415b85acef8100000000838161218c5761218b6131cd565b5b0492506020810190505b662386f26fc1000083106121c557662386f26fc1000083816121bb576121ba6131cd565b5b0492506010810190505b6305f5e10083106121ee576305f5e10083816121e4576121e36131cd565b5b0492506008810190505b6127108310612213576127108381612209576122086131cd565b5b0492506004810190505b60648310612236576064838161222c5761222b6131cd565b5b0492506002810190505b600a8310612245576001810190505b80915050919050565b61225883836122cc565b6122656000848484611f74565b6122a4576040517f08c379a000000000000000000000000000000000000000000000000000000000815260040161229b90613905565b60405180910390fd5b505050565b6000808273ffffffffffffffffffffffffffffffffffffffff163b119050919050565b600073ffffffffffffffffffffffffffffffffffffffff168273ffffffffffffffffffffffffffffffffffffffff160361233b576040517f08c379a000000000000000000000000000000000000000000000000000000000815260040161233290613b2c565b60405180910390fd5b61234481611b18565b15612384576040517f08c379a000000000000000000000000000000000000000000000000000000000815260040161237b90613b98565b60405180910390fd5b612392600083836001611f68565b61239b81611b18565b156123db576040517f08c379a00000000000000000000000000000000000000000000000000000000081526004016123d290613b98565b60405180910390fd5b6001600360008473ffffffffffffffffffffffffffffffffffffffff1673ffffffffffffffffffffffffffffffffffffffff16815260200190815260200160002060008282540192505081905550816002600083815260200190815260200160002060006101000a81548173ffffffffffffffffffffffffffffffffffffffff021916908373ffffffffffffffffffffffffffffffffffffffff160217905550808273ffffffffffffffffffffffffffffffffffffffff16600073ffffffffffffffffffffffffffffffffffffffff167fddf252ad1be2c89b69c2b068fc378daa952ba7f163c4a11628f55a4df523b3ef60405160405180910390a46124e5600083836001611f6e565b5050565b6000604051905090565b600080fd5b600080fd5b60007fffffffff0000000000000000000000000000000000000000000000000000000082169050919050565b612532816124fd565b811461253d57600080fd5b50565b60008135905061254f81612529565b92915050565b60006020828403121561256b5761256a6124f3565b5b600061257984828501612540565b91505092915050565b60008115159050919050565b61259781612582565b82525050565b60006020820190506125b2600083018461258e565b92915050565b600081519050919050565b600082825260208201905092915050565b60005b838110156125f25780820151818401526020810190506125d7565b60008484015250505050565b6000601f19601f8301169050919050565b600061261a826125b8565b61262481856125c3565b93506126348185602086016125d4565b61263d816125fe565b840191505092915050565b60006020820190508181036000830152612662818461260f565b905092915050565b6000819050919050565b61267d8161266a565b811461268857600080fd5b50565b60008135905061269a81612674565b92915050565b6000602082840312156126b6576126b56124f3565b5b60006126c48482850161268b565b91505092915050565b600073ffffffffffffffffffffffffffffffffffffffff82169050919050565b60006126f8826126cd565b9050919050565b612708816126ed565b82525050565b600060208201905061272360008301846126ff565b92915050565b612732816126ed565b811461273d57600080fd5b50565b60008135905061274f81612729565b92915050565b6000806040838503121561276c5761276b6124f3565b5b600061277a85828601612740565b925050602061278b8582860161268b565b9150509250929050565b6000806000606084860312156127ae576127ad6124f3565b5b60006127bc86828701612740565b93505060206127cd86828701612740565b92505060406127de8682870161268b565b9150509250925092565b6000602082840312156127fe576127fd6124f3565b5b600061280c84828501612740565b91505092915050565b61281e8161266a565b82525050565b60006020820190506128396000830184612815565b92915050565b600060e0820190508181036000830152612859818a61260f565b9050818103602083015261286d818961260f565b90508181036040830152612881818861260f565b90506128906060830187612815565b61289d60808301866126ff565b6128aa60a083018561258e565b6128b760c0830184612815565b98975050505050505050565b6128cc81612582565b81146128d757600080fd5b50565b6000813590506128e9816128c3565b92915050565b60008060408385031215612906576129056124f3565b5b600061291485828601612740565b9250506020612925858286016128da565b9150509250929050565b600080fd5b600080fd5b7f4e487b7100000000000000000000000000000000000000000000000000000000600052604160045260246000fd5b612971826125fe565b810181811067ffffffffffffffff821117156129905761298f612939565b5b80604052505050565b60006129a36124e9565b90506129af8282612968565b919050565b600067ffffffffffffffff8211156129cf576129ce612939565b5b6129d8826125fe565b9050602081019050919050565b82818337600083830152505050565b6000612a07612a02846129b4565b612999565b905082815260208101848484011115612a2357612a22612934565b5b612a2e8482856129e5565b509392505050565b600082601f830112612a4b57612a4a61292f565b5b8135612a5b8482602086016129f4565b91505092915050565b60008060008060808587031215612a7e57612a7d6124f3565b5b6000612a8c87828801612740565b9450506020612a9d87828801612740565b9350506040612aae8782880161268b565b925050606085013567ffffffffffffffff811115612acf57612ace6124f8565b5b612adb87828801612a36565b91505092959194509250565b600080600060608486031215612b0057612aff6124f3565b5b6000612b0e8682870161268b565b9350506020612b1f868287016128da565b9250506040612b308682870161268b565b9150509250925092565b60008060408385031215612b5157612b506124f3565b5b6000612b5f85828601612740565b9250506020612b7085828601612740565b9150509250929050565b600067ffffffffffffffff821115612b9557612b94612939565b5b612b9e826125fe565b9050602081019050919050565b6000612bbe612bb984612b7a565b612999565b905082815260208101848484011115612bda57612bd9612934565b5b612be58482856129e5565b509392505050565b600082601f830112612c0257612c0161292f565b5b8135612c12848260208601612bab565b91505092915050565b600080600080600060a08688031215612c3757612c366124f3565b5b600086013567ffffffffffffffff811115612c5557612c546124f8565b5b612c6188828901612bed565b955050602086013567ffffffffffffffff811115612c8257612c816124f8565b5b612c8e88828901612bed565b945050604086013567ffffffffffffffff811115612caf57612cae6124f8565b5b612cbb88828901612bed565b9350506060612ccc8882890161268b565b9250506080612cdd8882890161268b565b9150509295509295909350565b60008060408385031215612d0157612d006124f3565b5b6000612d0f8582860161268b565b9250506020612d2085828601612740565b9150509250929050565b7f4e487b7100000000000000000000000000000000000000000000000000000000600052602260045260246000fd5b60006002820490506001821680612d7157607f821691505b602082108103612d8457612d83612d2a565b5b50919050565b7f4552433732313a20617070726f76616c20746f2063757272656e74206f776e6560008201527f7200000000000000000000000000000000000000000000000000000000000000602082015250565b6000612de66021836125c3565b9150612df182612d8a565b604082019050919050565b60006020820190508181036000830152612e1581612dd9565b9050919050565b7f4552433732313a20617070726f76652063616c6c6572206973206e6f7420746f60008201527f6b656e206f776e6572206f7220617070726f76656420666f7220616c6c000000602082015250565b6000612e78603d836125c3565b9150612e8382612e1c565b604082019050919050565b60006020820190508181036000830152612ea781612e6b565b9050919050565b7f4552433732313a2063616c6c6572206973206e6f7420746f6b656e206f776e6560008201527f72206f7220617070726f76656400000000000000000000000000000000000000602082015250565b6000612f0a602d836125c3565b9150612f1582612eae565b604082019050919050565b60006020820190508181036000830152612f3981612efd565b9050919050565b7f4552433732313a20696e76616c696420746f6b656e2049440000000000000000600082015250565b6000612f766018836125c3565b9150612f8182612f40565b602082019050919050565b60006020820190508181036000830152612fa581612f69565b9050919050565b7f546f6b656e20646f6573206e6f74206578697374000000000000000000000000600082015250565b6000612fe26014836125c3565b9150612fed82612fac565b602082019050919050565b6000602082019050818103600083015261301181612fd5565b9050919050565b7f426f6f6b206973206e6f7420666f722073616c65000000000000000000000000600082015250565b600061304e6014836125c3565b915061305982613018565b602082019050919050565b6000602082019050818103600083015261307d81613041565b9050919050565b7f43616e6e6f7420627579206f776e20626f6f6b00000000000000000000000000600082015250565b60006130ba6013836125c3565b91506130c582613084565b602082019050919050565b600060208201905081810360008301526130e9816130ad565b9050919050565b7f4d75737420706179206d696e696d756d20736574207072696365000000000000600082015250565b6000613126601a836125c3565b9150613131826130f0565b602082019050919050565b6000602082019050818103600083015261315581613119565b9050919050565b7f4e487b7100000000000000000000000000000000000000000000000000000000600052601160045260246000fd5b60006131968261266a565b91506131a18361266a565b92508282026131af8161266a565b915082820484148315176131c6576131c561315c565b5b5092915050565b7f4e487b7100000000000000000000000000000000000000000000000000000000600052601260045260246000fd5b60006132078261266a565b91506132128361266a565b925082613222576132216131cd565b5b828204905092915050565b60006132388261266a565b91506132438361266a565b925082820390508181111561325b5761325a61315c565b5b92915050565b7f4552433732313a2061646472657373207a65726f206973206e6f74206120766160008201527f6c6964206f776e65720000000000000000000000000000000000000000000000602082015250565b60006132bd6029836125c3565b91506132c882613261565b604082019050919050565b600060208201905081810360008301526132ec816132b0565b9050919050565b600081905092915050565b6000613309826125b8565b61331381856132f3565b93506133238185602086016125d4565b80840191505092915050565b600061333b82856132fe565b915061334782846132fe565b91508190509392505050565b7f4e6f7420617070726f76656420746f2073657420666f722073616c6500000000600082015250565b6000613389601c836125c3565b915061339482613353565b602082019050919050565b600060208201905081810360008301526133b88161337c565b9050919050565b7f4f776e61626c653a206e6577206f776e657220697320746865207a65726f206160008201527f6464726573730000000000000000000000000000000000000000000000000000602082015250565b600061341b6026836125c3565b9150613426826133bf565b604082019050919050565b6000602082019050818103600083015261344a8161340e565b9050919050565b600061345c8261266a565b91506134678361266a565b925082820190508082111561347f5761347e61315c565b5b92915050565b60008190508160005260206000209050919050565b60006020601f8301049050919050565b600082821b905092915050565b6000600883026134e77fffffffffffffffffffffffffffffffffffffffffffffffffffffffffffffffff826134aa565b6134f186836134aa565b95508019841693508086168417925050509392505050565b6000819050919050565b600061352e6135296135248461266a565b613509565b61266a565b9050919050565b6000819050919050565b61354883613513565b61355c61355482613535565b8484546134b7565b825550505050565b600090565b613571613564565b61357c81848461353f565b505050565b5b818110156135a057613595600082613569565b600181019050613582565b5050565b601f8211156135e5576135b681613485565b6135bf8461349a565b810160208510156135ce578190505b6135e26135da8561349a565b830182613581565b50505b505050565b600082821c905092915050565b6000613608600019846008026135ea565b1980831691505092915050565b600061362183836135f7565b9150826002028217905092915050565b61363a826125b8565b67ffffffffffffffff81111561365357613652612939565b5b61365d8254612d59565b6136688282856135a4565b600060209050601f83116001811461369b5760008415613689578287015190505b6136938582613615565b8655506136fb565b601f1984166136a986613485565b60005b828110156136d1578489015182556001820191506020850194506020810190506136ac565b868310156136ee57848901516136ea601f8916826135f7565b8355505b6001600288020188555050505b505050505050565b7f53656e646572206e6f7420617070726f76656420746f207472616e7366657200600082015250565b6000613739601f836125c3565b915061374482613703565b602082019050919050565b600060208201905081810360008301526137688161372c565b9050919050565b7f4552433732313a207472616e736665722066726f6d20696e636f72726563742060008201527f6f776e6572000000000000000000000000000000000000000000000000000000602082015250565b60006137cb6025836125c3565b91506137d68261376f565b604082019050919050565b600060208201905081810360008301526137fa816137be565b9050919050565b7f4552433732313a207472616e7366657220746f20746865207a65726f2061646460008201527f7265737300000000000000000000000000000000000000000000000000000000602082015250565b600061385d6024836125c3565b915061386882613801565b604082019050919050565b6000602082019050818103600083015261388c81613850565b9050919050565b7f4552433732313a207472616e7366657220746f206e6f6e20455243373231526560008201527f63656976657220696d706c656d656e7465720000000000000000000000000000602082015250565b60006138ef6032836125c3565b91506138fa82613893565b604082019050919050565b6000602082019050818103600083015261391e816138e2565b9050919050565b7f4f776e61626c653a2063616c6c6572206973206e6f7420746865206f776e6572600082015250565b600061395b6020836125c3565b915061396682613925565b602082019050919050565b6000602082019050818103600083015261398a8161394e565b9050919050565b7f4552433732313a20617070726f766520746f2063616c6c657200000000000000600082015250565b60006139c76019836125c3565b91506139d282613991565b602082019050919050565b600060208201905081810360008301526139f6816139ba565b9050919050565b600081519050919050565b600082825260208201905092915050565b6000613a24826139fd565b613a2e8185613a08565b9350613a3e8185602086016125d4565b613a47816125fe565b840191505092915050565b6000608082019050613a6760008301876126ff565b613a7460208301866126ff565b613a816040830185612815565b8181036060830152613a938184613a19565b905095945050505050565b600081519050613aad81612529565b92915050565b600060208284031215613ac957613ac86124f3565b5b6000613ad784828501613a9e565b91505092915050565b7f4552433732313a206d696e7420746f20746865207a65726f2061646472657373600082015250565b6000613b166020836125c3565b9150613b2182613ae0565b602082019050919050565b60006020820190508181036000830152613b4581613b09565b9050919050565b7f4552433732313a20746f6b656e20616c7265616479206d696e74656400000000600082015250565b6000613b82601c836125c3565b9150613b8d82613b4c565b602082019050919050565b60006020820190508181036000830152613bb181613b75565b905091905056fea2646970667358221220a623add54dea7a5183251cad33e4e2ea32c1a8592ed9f1853d701ae34fd6d43a64736f6c63430008130033",
  "immutableReferences": {},
  "source": "//SPDX-License-Identifier: UNLICENSED\npragma solidity ^0.8.0;\n\nimport \"@openzeppelin/contracts/token/ERC721/ERC721.sol\";\nimport \"@openzeppelin/contracts/access/Ownable.sol\";\n\ncontract StoryToken is ERC721, Ownable {\n    \n    uint256 public _tokenIdCounter = 0;\n    \n    struct Book {\n        string title;\n        string author;\n        string publisher;\n        uint256 year;\n        address bookOwner;\n        bool forSale;\n        uint price;\n    }\n    // Owner of Smart Contract is Author\n    // bookOwner of book is owner of token ID\n    mapping (uint256 => Book) public _books;\n    uint royaltyPercent;\n\n    event BookCreated(uint256 tokenNum);\n    event RoyaltyWithdrawn(uint256 tokenNum);\n    // event returnBook(string title, string author, uint price);\n    constructor(uint royalty) ERC721(\"StoryToken\", \"ST\") {\n        royaltyPercent = royalty;\n    }\n\n    function createBook(\n        string memory title,\n        string memory author,\n        string memory publisher,\n        uint256 year,\n        uint price\n    ) public onlyOwner {\n        _tokenIdCounter += 1;\n        uint256 tokenId = _tokenIdCounter;\n        address bookOwner = _msgSender();\n        _safeMint(bookOwner, tokenId);\n        _books[tokenId] = Book(title, author, publisher, year, bookOwner, false, price);\n        // return tokenId;\n        emit BookCreated(tokenId);\n    }\n\n    function transferBook(uint256 tokenId, address to) public {\n        require(_exists(tokenId), \"Token does not exist\");\n        require(ownerOf(tokenId)== _msgSender(), \"Sender not approved to transfer\");\n        _transfer(_msgSender(), to, tokenId);\n        _books[tokenId].bookOwner = to;\n    }\n\n    function setForSale(uint256 tokenId, bool forSale, uint price) public {\n        require(_exists(tokenId), \"Token does not exist\");\n        require(ownerOf(tokenId) == _msgSender(), \"Not approved to set for sale\");\n\n        _books[tokenId].forSale = forSale;\n        _books[tokenId].price = price;\n    }\n\n\n    function buyBook(uint256 tokenId) public payable {\n        require(_exists(tokenId), \"Token does not exist\");\n        require(_books[tokenId].forSale, \"Book is not for sale\");\n        address bookOwner = ownerOf(tokenId);\n        require(bookOwner != _msgSender(), \"Cannot buy own book\");\n        require(msg.value >= _books[tokenId].price, \"Must pay minimum set price\");\n        \n        _safeTransfer(bookOwner, _msgSender(), tokenId, \"\");\n        _books[tokenId].bookOwner = _msgSender();\n        _books[tokenId].forSale = false;\n        uint royalty = (msg.value * royaltyPercent)/100;\n        payable(bookOwner).transfer(msg.value-royalty);\n    }\n\n    function withdrawRoyalty() public onlyOwner {\n        emit RoyaltyWithdrawn(address(this).balance);\n        payable(owner()).transfer(address(this).balance);\n    }\n}\n",
  "sourcePath": "/Users/debasmitroy/BC526/StoryToken/StoryToken/StoryToken-contract/contracts/StoryTokenV1.sol",
  "compiler": {
    "name": "solc",
    "version": "0.8.19+commit.7dd6d404.Emscripten.clang"
  },
  "schemaVersion": "3.4.13",
  "updatedAt": "2023-04-29T00:58:57.408Z",
  "networkType": "ethereum",
  "devdoc": {
    "events": {
      "Approval(address,address,uint256)": {
        "details": "Emitted when `owner` enables `approved` to manage the `tokenId` token."
      },
      "ApprovalForAll(address,address,bool)": {
        "details": "Emitted when `owner` enables or disables (`approved`) `operator` to manage all of its assets."
      },
      "Transfer(address,address,uint256)": {
        "details": "Emitted when `tokenId` token is transferred from `from` to `to`."
      }
    },
    "kind": "dev",
    "methods": {
      "approve(address,uint256)": {
        "details": "See {IERC721-approve}."
      },
      "balanceOf(address)": {
        "details": "See {IERC721-balanceOf}."
      },
      "getApproved(uint256)": {
        "details": "See {IERC721-getApproved}."
      },
      "isApprovedForAll(address,address)": {
        "details": "See {IERC721-isApprovedForAll}."
      },
      "name()": {
        "details": "See {IERC721Metadata-name}."
      },
      "owner()": {
        "details": "Returns the address of the current owner."
      },
      "ownerOf(uint256)": {
        "details": "See {IERC721-ownerOf}."
      },
      "renounceOwnership()": {
        "details": "Leaves the contract without owner. It will not be possible to call `onlyOwner` functions anymore. Can only be called by the current owner. NOTE: Renouncing ownership will leave the contract without an owner, thereby removing any functionality that is only available to the owner."
      },
      "safeTransferFrom(address,address,uint256)": {
        "details": "See {IERC721-safeTransferFrom}."
      },
      "safeTransferFrom(address,address,uint256,bytes)": {
        "details": "See {IERC721-safeTransferFrom}."
      },
      "setApprovalForAll(address,bool)": {
        "details": "See {IERC721-setApprovalForAll}."
      },
      "supportsInterface(bytes4)": {
        "details": "See {IERC165-supportsInterface}."
      },
      "symbol()": {
        "details": "See {IERC721Metadata-symbol}."
      },
      "tokenURI(uint256)": {
        "details": "See {IERC721Metadata-tokenURI}."
      },
      "transferFrom(address,address,uint256)": {
        "details": "See {IERC721-transferFrom}."
      },
      "transferOwnership(address)": {
        "details": "Transfers ownership of the contract to a new account (`newOwner`). Can only be called by the current owner."
      }
    },
    "version": 1
  },
  "userdoc": {
    "kind": "user",
    "methods": {},
    "version": 1
  }
}