{
  "contractName": "StoryToken",
  "abi": [
    {
      "inputs": [
        {
          "internalType": "uint256",
          "name": "royalty",
          "type": "uint256"
        }
      ],
      "stateMutability": "nonpayable",
      "type": "constructor"
    },
    {
      "anonymous": false,
      "inputs": [
        {
          "indexed": true,
          "internalType": "address",
          "name": "owner",
          "type": "address"
        },
        {
          "indexed": true,
          "internalType": "address",
          "name": "approved",
          "type": "address"
        },
        {
          "indexed": true,
          "internalType": "uint256",
          "name": "tokenId",
          "type": "uint256"
        }
      ],
      "name": "Approval",
      "type": "event"
    },
    {
      "anonymous": false,
      "inputs": [
        {
          "indexed": true,
          "internalType": "address",
          "name": "owner",
          "type": "address"
        },
        {
          "indexed": true,
          "internalType": "address",
          "name": "operator",
          "type": "address"
        },
        {
          "indexed": false,
          "internalType": "bool",
          "name": "approved",
          "type": "bool"
        }
      ],
      "name": "ApprovalForAll",
      "type": "event"
    },
    {
      "anonymous": false,
      "inputs": [
        {
          "indexed": false,
          "internalType": "uint256",
          "name": "tokenNum",
          "type": "uint256"
        }
      ],
      "name": "BookCreated",
      "type": "event"
    },
    {
      "anonymous": false,
      "inputs": [
        {
          "indexed": true,
          "internalType": "address",
          "name": "previousOwner",
          "type": "address"
        },
        {
          "indexed": true,
          "internalType": "address",
          "name": "newOwner",
          "type": "address"
        }
      ],
      "name": "OwnershipTransferred",
      "type": "event"
    },
    {
      "anonymous": false,
      "inputs": [
        {
          "indexed": false,
          "internalType": "uint256",
          "name": "tokenNum",
          "type": "uint256"
        }
      ],
      "name": "RoyaltyWithdrawn",
      "type": "event"
    },
    {
      "anonymous": false,
      "inputs": [
        {
          "indexed": true,
          "internalType": "address",
          "name": "from",
          "type": "address"
        },
        {
          "indexed": true,
          "internalType": "address",
          "name": "to",
          "type": "address"
        },
        {
          "indexed": true,
          "internalType": "uint256",
          "name": "tokenId",
          "type": "uint256"
        }
      ],
      "name": "Transfer",
      "type": "event"
    },
    {
      "inputs": [
        {
          "internalType": "uint256",
          "name": "",
          "type": "uint256"
        }
      ],
      "name": "_books",
      "outputs": [
        {
          "internalType": "address",
          "name": "bookOwner",
          "type": "address"
        },
        {
          "internalType": "bool",
          "name": "forSale",
          "type": "bool"
        },
        {
          "internalType": "uint256",
          "name": "price",
          "type": "uint256"
        }
      ],
      "stateMutability": "view",
      "type": "function",
      "constant": true
    },
    {
      "inputs": [],
      "name": "_tokenIdCounter",
      "outputs": [
        {
          "internalType": "uint256",
          "name": "",
          "type": "uint256"
        }
      ],
      "stateMutability": "view",
      "type": "function",
      "constant": true
    },
    {
      "inputs": [
        {
          "internalType": "address",
          "name": "to",
          "type": "address"
        },
        {
          "internalType": "uint256",
          "name": "tokenId",
          "type": "uint256"
        }
      ],
      "name": "approve",
      "outputs": [],
      "stateMutability": "nonpayable",
      "type": "function"
    },
    {
      "inputs": [
        {
          "internalType": "address",
          "name": "owner",
          "type": "address"
        }
      ],
      "name": "balanceOf",
      "outputs": [
        {
          "internalType": "uint256",
          "name": "",
          "type": "uint256"
        }
      ],
      "stateMutability": "view",
      "type": "function",
      "constant": true
    },
    {
      "inputs": [
        {
          "internalType": "uint256",
          "name": "tokenId",
          "type": "uint256"
        }
      ],
      "name": "getApproved",
      "outputs": [
        {
          "internalType": "address",
          "name": "",
          "type": "address"
        }
      ],
      "stateMutability": "view",
      "type": "function",
      "constant": true
    },
    {
      "inputs": [
        {
          "internalType": "address",
          "name": "owner",
          "type": "address"
        },
        {
          "internalType": "address",
          "name": "operator",
          "type": "address"
        }
      ],
      "name": "isApprovedForAll",
      "outputs": [
        {
          "internalType": "bool",
          "name": "",
          "type": "bool"
        }
      ],
      "stateMutability": "view",
      "type": "function",
      "constant": true
    },
    {
      "inputs": [],
      "name": "name",
      "outputs": [
        {
          "internalType": "string",
          "name": "",
          "type": "string"
        }
      ],
      "stateMutability": "view",
      "type": "function",
      "constant": true
    },
    {
      "inputs": [],
      "name": "owner",
      "outputs": [
        {
          "internalType": "address",
          "name": "",
          "type": "address"
        }
      ],
      "stateMutability": "view",
      "type": "function",
      "constant": true
    },
    {
      "inputs": [
        {
          "internalType": "uint256",
          "name": "tokenId",
          "type": "uint256"
        }
      ],
      "name": "ownerOf",
      "outputs": [
        {
          "internalType": "address",
          "name": "",
          "type": "address"
        }
      ],
      "stateMutability": "view",
      "type": "function",
      "constant": true
    },
    {
      "inputs": [],
      "name": "renounceOwnership",
      "outputs": [],
      "stateMutability": "nonpayable",
      "type": "function"
    },
    {
      "inputs": [
        {
          "internalType": "address",
          "name": "from",
          "type": "address"
        },
        {
          "internalType": "address",
          "name": "to",
          "type": "address"
        },
        {
          "internalType": "uint256",
          "name": "tokenId",
          "type": "uint256"
        }
      ],
      "name": "safeTransferFrom",
      "outputs": [],
      "stateMutability": "nonpayable",
      "type": "function"
    },
    {
      "inputs": [
        {
          "internalType": "address",
          "name": "from",
          "type": "address"
        },
        {
          "internalType": "address",
          "name": "to",
          "type": "address"
        },
        {
          "internalType": "uint256",
          "name": "tokenId",
          "type": "uint256"
        },
        {
          "internalType": "bytes",
          "name": "data",
          "type": "bytes"
        }
      ],
      "name": "safeTransferFrom",
      "outputs": [],
      "stateMutability": "nonpayable",
      "type": "function"
    },
    {
      "inputs": [
        {
          "internalType": "address",
          "name": "operator",
          "type": "address"
        },
        {
          "internalType": "bool",
          "name": "approved",
          "type": "bool"
        }
      ],
      "name": "setApprovalForAll",
      "outputs": [],
      "stateMutability": "nonpayable",
      "type": "function"
    },
    {
      "inputs": [
        {
          "internalType": "bytes4",
          "name": "interfaceId",
          "type": "bytes4"
        }
      ],
      "name": "supportsInterface",
      "outputs": [
        {
          "internalType": "bool",
          "name": "",
          "type": "bool"
        }
      ],
      "stateMutability": "view",
      "type": "function",
      "constant": true
    },
    {
      "inputs": [],
      "name": "symbol",
      "outputs": [
        {
          "internalType": "string",
          "name": "",
          "type": "string"
        }
      ],
      "stateMutability": "view",
      "type": "function",
      "constant": true
    },
    {
      "inputs": [
        {
          "internalType": "uint256",
          "name": "tokenId",
          "type": "uint256"
        }
      ],
      "name": "tokenURI",
      "outputs": [
        {
          "internalType": "string",
          "name": "",
          "type": "string"
        }
      ],
      "stateMutability": "view",
      "type": "function",
      "constant": true
    },
    {
      "inputs": [
        {
          "internalType": "address",
          "name": "from",
          "type": "address"
        },
        {
          "internalType": "address",
          "name": "to",
          "type": "address"
        },
        {
          "internalType": "uint256",
          "name": "tokenId",
          "type": "uint256"
        }
      ],
      "name": "transferFrom",
      "outputs": [],
      "stateMutability": "nonpayable",
      "type": "function"
    },
    {
      "inputs": [
        {
          "internalType": "address",
          "name": "newOwner",
          "type": "address"
        }
      ],
      "name": "transferOwnership",
      "outputs": [],
      "stateMutability": "nonpayable",
      "type": "function"
    },
    {
      "inputs": [
        {
          "internalType": "uint256",
          "name": "price",
          "type": "uint256"
        }
      ],
      "name": "createBook",
      "outputs": [],
      "stateMutability": "nonpayable",
      "type": "function"
    },
    {
      "inputs": [
        {
          "internalType": "uint256",
          "name": "tokenId",
          "type": "uint256"
        },
        {
          "internalType": "address",
          "name": "to",
          "type": "address"
        }
      ],
      "name": "transferBook",
      "outputs": [],
      "stateMutability": "nonpayable",
      "type": "function"
    },
    {
      "inputs": [
        {
          "internalType": "uint256",
          "name": "tokenId",
          "type": "uint256"
        },
        {
          "internalType": "bool",
          "name": "forSale",
          "type": "bool"
        },
        {
          "internalType": "uint256",
          "name": "price",
          "type": "uint256"
        }
      ],
      "name": "setForSale",
      "outputs": [],
      "stateMutability": "nonpayable",
      "type": "function"
    },
    {
      "inputs": [
        {
          "internalType": "uint256",
          "name": "tokenId",
          "type": "uint256"
        }
      ],
      "name": "buyBook",
      "outputs": [],
      "stateMutability": "payable",
      "type": "function",
      "payable": true
    },
    {
      "inputs": [],
      "name": "withdrawRoyalty",
      "outputs": [],
      "stateMutability": "nonpayable",
      "type": "function"
    }
  ],
  "bytecode": "0x608060405260006007553480156200001657600080fd5b5060405162003b3a38038062003b3a83398181016040528101906200003c91906200020a565b6040518060400160405280600a81526020017f53746f7279546f6b656e000000000000000000000000000000000000000000008152506040518060400160405280600281526020017f53540000000000000000000000000000000000000000000000000000000000008152508160009081620000b99190620004ac565b508060019081620000cb9190620004ac565b505050620000ee620000e2620000fc60201b60201c565b6200010460201b60201c565b806009819055505062000593565b600033905090565b6000600660009054906101000a900473ffffffffffffffffffffffffffffffffffffffff16905081600660006101000a81548173ffffffffffffffffffffffffffffffffffffffff021916908373ffffffffffffffffffffffffffffffffffffffff1602179055508173ffffffffffffffffffffffffffffffffffffffff168173ffffffffffffffffffffffffffffffffffffffff167f8be0079c531659141344cd1fd0a4f28419497f9722a3daafe3b4186f6b6457e060405160405180910390a35050565b600080fd5b6000819050919050565b620001e481620001cf565b8114620001f057600080fd5b50565b6000815190506200020481620001d9565b92915050565b600060208284031215620002235762000222620001ca565b5b60006200023384828501620001f3565b91505092915050565b600081519050919050565b7f4e487b7100000000000000000000000000000000000000000000000000000000600052604160045260246000fd5b7f4e487b7100000000000000000000000000000000000000000000000000000000600052602260045260246000fd5b60006002820490506001821680620002be57607f821691505b602082108103620002d457620002d362000276565b5b50919050565b60008190508160005260206000209050919050565b60006020601f8301049050919050565b600082821b905092915050565b6000600883026200033e7fffffffffffffffffffffffffffffffffffffffffffffffffffffffffffffffff82620002ff565b6200034a8683620002ff565b95508019841693508086168417925050509392505050565b6000819050919050565b60006200038d620003876200038184620001cf565b62000362565b620001cf565b9050919050565b6000819050919050565b620003a9836200036c565b620003c1620003b88262000394565b8484546200030c565b825550505050565b600090565b620003d8620003c9565b620003e58184846200039e565b505050565b5b818110156200040d5762000401600082620003ce565b600181019050620003eb565b5050565b601f8211156200045c576200042681620002da565b6200043184620002ef565b8101602085101562000441578190505b620004596200045085620002ef565b830182620003ea565b50505b505050565b600082821c905092915050565b6000620004816000198460080262000461565b1980831691505092915050565b60006200049c83836200046e565b9150826002028217905092915050565b620004b7826200023c565b67ffffffffffffffff811115620004d357620004d262000247565b5b620004df8254620002a5565b620004ec82828562000411565b600060209050601f8311600181146200052457600084156200050f578287015190505b6200051b85826200048e565b8655506200058b565b601f1984166200053486620002da565b60005b828110156200055e5784890151825560018201915060208501945060208101905062000537565b868310156200057e57848901516200057a601f8916826200046e565b8355505b6001600288020188555050505b505050505050565b61359780620005a36000396000f3fe6080604052600436106101405760003560e01c80638da5cb5b116100b6578063c87b56dd1161006f578063c87b56dd1461044d578063cf5c1b521461048a578063e985e9c5146104b3578063f1147bae146104f0578063f2fde38b14610507578063fc1a15c21461053057610140565b80638da5cb5b1461033d57806395d89b41146103685780639f4e5de714610393578063a22cb465146103d2578063b88d4fde146103fb578063b9ac67671461042457610140565b806342842e0e1161010857806342842e0e1461023c5780636352211e146102655780636ee26566146102a257806370a08231146102be578063715018a6146102fb57806384c4bd4b1461031257610140565b806301ffc9a71461014557806306fdde0314610182578063081812fc146101ad578063095ea7b3146101ea57806323b872dd14610213575b600080fd5b34801561015157600080fd5b5061016c60048036038101906101679190612339565b610559565b6040516101799190612381565b60405180910390f35b34801561018e57600080fd5b5061019761063b565b6040516101a4919061242c565b60405180910390f35b3480156101b957600080fd5b506101d460048036038101906101cf9190612484565b6106cd565b6040516101e191906124f2565b60405180910390f35b3480156101f657600080fd5b50610211600480360381019061020c9190612539565b610713565b005b34801561021f57600080fd5b5061023a60048036038101906102359190612579565b61082a565b005b34801561024857600080fd5b50610263600480360381019061025e9190612579565b61088a565b005b34801561027157600080fd5b5061028c60048036038101906102879190612484565b6108aa565b60405161029991906124f2565b60405180910390f35b6102bc60048036038101906102b79190612484565b610930565b005b3480156102ca57600080fd5b506102e560048036038101906102e091906125cc565b610bd8565b6040516102f29190612608565b60405180910390f35b34801561030757600080fd5b50610310610c8f565b005b34801561031e57600080fd5b50610327610ca3565b6040516103349190612608565b60405180910390f35b34801561034957600080fd5b50610352610ca9565b60405161035f91906124f2565b60405180910390f35b34801561037457600080fd5b5061037d610cd3565b60405161038a919061242c565b60405180910390f35b34801561039f57600080fd5b506103ba60048036038101906103b59190612484565b610d65565b6040516103c993929190612623565b60405180910390f35b3480156103de57600080fd5b506103f960048036038101906103f49190612686565b610dbc565b005b34801561040757600080fd5b50610422600480360381019061041d91906127fb565b610dd2565b005b34801561043057600080fd5b5061044b60048036038101906104469190612484565b610e34565b005b34801561045957600080fd5b50610474600480360381019061046f9190612484565b610f6a565b604051610481919061242c565b60405180910390f35b34801561049657600080fd5b506104b160048036038101906104ac919061287e565b610fd2565b005b3480156104bf57600080fd5b506104da60048036038101906104d591906128d1565b6110e5565b6040516104e79190612381565b60405180910390f35b3480156104fc57600080fd5b50610505611179565b005b34801561051357600080fd5b5061052e600480360381019061052991906125cc565b611208565b005b34801561053c57600080fd5b5061055760048036038101906105529190612911565b61128b565b005b60007f80ac58cd000000000000000000000000000000000000000000000000000000007bffffffffffffffffffffffffffffffffffffffffffffffffffffffff1916827bffffffffffffffffffffffffffffffffffffffffffffffffffffffff1916148061062457507f5b5e139f000000000000000000000000000000000000000000000000000000007bffffffffffffffffffffffffffffffffffffffffffffffffffffffff1916827bffffffffffffffffffffffffffffffffffffffffffffffffffffffff1916145b806106345750610633826113bb565b5b9050919050565b60606000805461064a90612980565b80601f016020809104026020016040519081016040528092919081815260200182805461067690612980565b80156106c35780601f10610698576101008083540402835291602001916106c3565b820191906000526020600020905b8154815290600101906020018083116106a657829003601f168201915b5050505050905090565b60006106d882611425565b6004600083815260200190815260200160002060009054906101000a900473ffffffffffffffffffffffffffffffffffffffff169050919050565b600061071e826108aa565b90508073ffffffffffffffffffffffffffffffffffffffff168373ffffffffffffffffffffffffffffffffffffffff160361078e576040517f08c379a000000000000000000000000000000000000000000000000000000000815260040161078590612a23565b60405180910390fd5b8073ffffffffffffffffffffffffffffffffffffffff166107ad611470565b73ffffffffffffffffffffffffffffffffffffffff1614806107dc57506107db816107d6611470565b6110e5565b5b61081b576040517f08c379a000000000000000000000000000000000000000000000000000000000815260040161081290612ab5565b60405180910390fd5b6108258383611478565b505050565b61083b610835611470565b82611531565b61087a576040517f08c379a000000000000000000000000000000000000000000000000000000000815260040161087190612b47565b60405180910390fd5b6108858383836115c6565b505050565b6108a583838360405180602001604052806000815250610dd2565b505050565b6000806108b6836118bf565b9050600073ffffffffffffffffffffffffffffffffffffffff168173ffffffffffffffffffffffffffffffffffffffff1603610927576040517f08c379a000000000000000000000000000000000000000000000000000000000815260040161091e90612bb3565b60405180910390fd5b80915050919050565b610939816118fc565b610978576040517f08c379a000000000000000000000000000000000000000000000000000000000815260040161096f90612c1f565b60405180910390fd5b6008600082815260200190815260200160002060000160149054906101000a900460ff166109db576040517f08c379a00000000000000000000000000000000000000000000000000000000081526004016109d290612c8b565b60405180910390fd5b60006109e6826108aa565b90506109f0611470565b73ffffffffffffffffffffffffffffffffffffffff168173ffffffffffffffffffffffffffffffffffffffff1603610a5d576040517f08c379a0000000000000000000000000000000000000000000000000000000008152600401610a5490612cf7565b60405180910390fd5b6008600083815260200190815260200160002060010154341015610ab6576040517f08c379a0000000000000000000000000000000000000000000000000000000008152600401610aad90612d63565b60405180910390fd5b610ad881610ac2611470565b846040518060200160405280600081525061193d565b610ae0611470565b6008600084815260200190815260200160002060000160006101000a81548173ffffffffffffffffffffffffffffffffffffffff021916908373ffffffffffffffffffffffffffffffffffffffff16021790555060006008600084815260200190815260200160002060000160146101000a81548160ff0219169083151502179055506000606460095434610b759190612db2565b610b7f9190612e23565b90508173ffffffffffffffffffffffffffffffffffffffff166108fc8234610ba79190612e54565b9081150290604051600060405180830381858888f19350505050158015610bd2573d6000803e3d6000fd5b50505050565b60008073ffffffffffffffffffffffffffffffffffffffff168273ffffffffffffffffffffffffffffffffffffffff1603610c48576040517f08c379a0000000000000000000000000000000000000000000000000000000008152600401610c3f90612efa565b60405180910390fd5b600360008373ffffffffffffffffffffffffffffffffffffffff1673ffffffffffffffffffffffffffffffffffffffff168152602001908152602001600020549050919050565b610c97611999565b610ca16000611a17565b565b60075481565b6000600660009054906101000a900473ffffffffffffffffffffffffffffffffffffffff16905090565b606060018054610ce290612980565b80601f0160208091040260200160405190810160405280929190818152602001828054610d0e90612980565b8015610d5b5780601f10610d3057610100808354040283529160200191610d5b565b820191906000526020600020905b815481529060010190602001808311610d3e57829003601f168201915b5050505050905090565b60086020528060005260406000206000915090508060000160009054906101000a900473ffffffffffffffffffffffffffffffffffffffff16908060000160149054906101000a900460ff16908060010154905083565b610dce610dc7611470565b8383611add565b5050565b610de3610ddd611470565b83611531565b610e22576040517f08c379a0000000000000000000000000000000000000000000000000000000008152600401610e1990612b47565b60405180910390fd5b610e2e8484848461193d565b50505050565b610e3c611999565b600160076000828254610e4f9190612f1a565b92505081905550600060075490506000610e67611470565b9050610e738183611c49565b60405180606001604052808273ffffffffffffffffffffffffffffffffffffffff168152602001600015158152602001848152506008600084815260200190815260200160002060008201518160000160006101000a81548173ffffffffffffffffffffffffffffffffffffffff021916908373ffffffffffffffffffffffffffffffffffffffff16021790555060208201518160000160146101000a81548160ff021916908315150217905550604082015181600101559050507f4931befe04b8ef8a98f4b360614a166851a16a8c40326718fb8817059900bed582604051610f5d9190612608565b60405180910390a1505050565b6060610f7582611425565b6000610f7f611c67565b90506000815111610f9f5760405180602001604052806000815250610fca565b80610fa984611c7e565b604051602001610fba929190612f8a565b6040516020818303038152906040525b915050919050565b610fdb836118fc565b61101a576040517f08c379a000000000000000000000000000000000000000000000000000000000815260040161101190612c1f565b60405180910390fd5b611022611470565b73ffffffffffffffffffffffffffffffffffffffff16611041846108aa565b73ffffffffffffffffffffffffffffffffffffffff1614611097576040517f08c379a000000000000000000000000000000000000000000000000000000000815260040161108e90612ffa565b60405180910390fd5b816008600085815260200190815260200160002060000160146101000a81548160ff021916908315150217905550806008600085815260200190815260200160002060010181905550505050565b6000600560008473ffffffffffffffffffffffffffffffffffffffff1673ffffffffffffffffffffffffffffffffffffffff16815260200190815260200160002060008373ffffffffffffffffffffffffffffffffffffffff1673ffffffffffffffffffffffffffffffffffffffff16815260200190815260200160002060009054906101000a900460ff16905092915050565b611181611999565b7f72fb1011e9a3cffadd213283977ca02d00edc32afd0c456d4e83b4d2d9d1612a476040516111b09190612608565b60405180910390a16111c0610ca9565b73ffffffffffffffffffffffffffffffffffffffff166108fc479081150290604051600060405180830381858888f19350505050158015611205573d6000803e3d6000fd5b50565b611210611999565b600073ffffffffffffffffffffffffffffffffffffffff168173ffffffffffffffffffffffffffffffffffffffff160361127f576040517f08c379a00000000000000000000000000000000000000000000000000000000081526004016112769061308c565b60405180910390fd5b61128881611a17565b50565b611294826118fc565b6112d3576040517f08c379a00000000000000000000000000000000000000000000000000000000081526004016112ca90612c1f565b60405180910390fd5b6112db611470565b73ffffffffffffffffffffffffffffffffffffffff166112fa836108aa565b73ffffffffffffffffffffffffffffffffffffffff1614611350576040517f08c379a0000000000000000000000000000000000000000000000000000000008152600401611347906130f8565b60405180910390fd5b61136261135b611470565b82846115c6565b806008600084815260200190815260200160002060000160006101000a81548173ffffffffffffffffffffffffffffffffffffffff021916908373ffffffffffffffffffffffffffffffffffffffff1602179055505050565b60007f01ffc9a7000000000000000000000000000000000000000000000000000000007bffffffffffffffffffffffffffffffffffffffffffffffffffffffff1916827bffffffffffffffffffffffffffffffffffffffffffffffffffffffff1916149050919050565b61142e816118fc565b61146d576040517f08c379a000000000000000000000000000000000000000000000000000000000815260040161146490612bb3565b60405180910390fd5b50565b600033905090565b816004600083815260200190815260200160002060006101000a81548173ffffffffffffffffffffffffffffffffffffffff021916908373ffffffffffffffffffffffffffffffffffffffff160217905550808273ffffffffffffffffffffffffffffffffffffffff166114eb836108aa565b73ffffffffffffffffffffffffffffffffffffffff167f8c5be1e5ebec7d5bd14f71427d1e84f3dd0314c0f7b2291e5b200ac8c7c3b92560405160405180910390a45050565b60008061153d836108aa565b90508073ffffffffffffffffffffffffffffffffffffffff168473ffffffffffffffffffffffffffffffffffffffff16148061157f575061157e81856110e5565b5b806115bd57508373ffffffffffffffffffffffffffffffffffffffff166115a5846106cd565b73ffffffffffffffffffffffffffffffffffffffff16145b91505092915050565b8273ffffffffffffffffffffffffffffffffffffffff166115e6826108aa565b73ffffffffffffffffffffffffffffffffffffffff161461163c576040517f08c379a00000000000000000000000000000000000000000000000000000000081526004016116339061318a565b60405180910390fd5b600073ffffffffffffffffffffffffffffffffffffffff168273ffffffffffffffffffffffffffffffffffffffff16036116ab576040517f08c379a00000000000000000000000000000000000000000000000000000000081526004016116a29061321c565b60405180910390fd5b6116b88383836001611d4c565b8273ffffffffffffffffffffffffffffffffffffffff166116d8826108aa565b73ffffffffffffffffffffffffffffffffffffffff161461172e576040517f08c379a00000000000000000000000000000000000000000000000000000000081526004016117259061318a565b60405180910390fd5b6004600082815260200190815260200160002060006101000a81549073ffffffffffffffffffffffffffffffffffffffff02191690556001600360008573ffffffffffffffffffffffffffffffffffffffff1673ffffffffffffffffffffffffffffffffffffffff168152602001908152602001600020600082825403925050819055506001600360008473ffffffffffffffffffffffffffffffffffffffff1673ffffffffffffffffffffffffffffffffffffffff16815260200190815260200160002060008282540192505081905550816002600083815260200190815260200160002060006101000a81548173ffffffffffffffffffffffffffffffffffffffff021916908373ffffffffffffffffffffffffffffffffffffffff160217905550808273ffffffffffffffffffffffffffffffffffffffff168473ffffffffffffffffffffffffffffffffffffffff167fddf252ad1be2c89b69c2b068fc378daa952ba7f163c4a11628f55a4df523b3ef60405160405180910390a46118ba8383836001611d52565b505050565b60006002600083815260200190815260200160002060009054906101000a900473ffffffffffffffffffffffffffffffffffffffff169050919050565b60008073ffffffffffffffffffffffffffffffffffffffff1661191e836118bf565b73ffffffffffffffffffffffffffffffffffffffff1614159050919050565b6119488484846115c6565b61195484848484611d58565b611993576040517f08c379a000000000000000000000000000000000000000000000000000000000815260040161198a906132ae565b60405180910390fd5b50505050565b6119a1611470565b73ffffffffffffffffffffffffffffffffffffffff166119bf610ca9565b73ffffffffffffffffffffffffffffffffffffffff1614611a15576040517f08c379a0000000000000000000000000000000000000000000000000000000008152600401611a0c9061331a565b60405180910390fd5b565b6000600660009054906101000a900473ffffffffffffffffffffffffffffffffffffffff16905081600660006101000a81548173ffffffffffffffffffffffffffffffffffffffff021916908373ffffffffffffffffffffffffffffffffffffffff1602179055508173ffffffffffffffffffffffffffffffffffffffff168173ffffffffffffffffffffffffffffffffffffffff167f8be0079c531659141344cd1fd0a4f28419497f9722a3daafe3b4186f6b6457e060405160405180910390a35050565b8173ffffffffffffffffffffffffffffffffffffffff168373ffffffffffffffffffffffffffffffffffffffff1603611b4b576040517f08c379a0000000000000000000000000000000000000000000000000000000008152600401611b4290613386565b60405180910390fd5b80600560008573ffffffffffffffffffffffffffffffffffffffff1673ffffffffffffffffffffffffffffffffffffffff16815260200190815260200160002060008473ffffffffffffffffffffffffffffffffffffffff1673ffffffffffffffffffffffffffffffffffffffff16815260200190815260200160002060006101000a81548160ff0219169083151502179055508173ffffffffffffffffffffffffffffffffffffffff168373ffffffffffffffffffffffffffffffffffffffff167f17307eab39ab6107e8899845ad3d59bd9653f200f220920489ca2b5937696c3183604051611c3c9190612381565b60405180910390a3505050565b611c63828260405180602001604052806000815250611edf565b5050565b606060405180602001604052806000815250905090565b606060006001611c8d84611f3a565b01905060008167ffffffffffffffff811115611cac57611cab6126d0565b5b6040519080825280601f01601f191660200182016040528015611cde5781602001600182028036833780820191505090505b509050600082602001820190505b600115611d41578080600190039150507f3031323334353637383961626364656600000000000000000000000000000000600a86061a8153600a8581611d3557611d34612df4565b5b04945060008503611cec575b819350505050919050565b50505050565b50505050565b6000611d798473ffffffffffffffffffffffffffffffffffffffff1661208d565b15611ed2578373ffffffffffffffffffffffffffffffffffffffff1663150b7a02611da2611470565b8786866040518563ffffffff1660e01b8152600401611dc494939291906133fb565b6020604051808303816000875af1925050508015611e0057506040513d601f19601f82011682018060405250810190611dfd919061345c565b60015b611e82573d8060008114611e30576040519150601f19603f3d011682016040523d82523d6000602084013e611e35565b606091505b506000815103611e7a576040517f08c379a0000000000000000000000000000000000000000000000000000000008152600401611e71906132ae565b60405180910390fd5b805181602001fd5b63150b7a0260e01b7bffffffffffffffffffffffffffffffffffffffffffffffffffffffff1916817bffffffffffffffffffffffffffffffffffffffffffffffffffffffff191614915050611ed7565b600190505b949350505050565b611ee983836120b0565b611ef66000848484611d58565b611f35576040517f08c379a0000000000000000000000000000000000000000000000000000000008152600401611f2c906132ae565b60405180910390fd5b505050565b600080600090507a184f03e93ff9f4daa797ed6e38ed64bf6a1f0100000000000000008310611f98577a184f03e93ff9f4daa797ed6e38ed64bf6a1f0100000000000000008381611f8e57611f8d612df4565b5b0492506040810190505b6d04ee2d6d415b85acef81000000008310611fd5576d04ee2d6d415b85acef81000000008381611fcb57611fca612df4565b5b0492506020810190505b662386f26fc10000831061200457662386f26fc100008381611ffa57611ff9612df4565b5b0492506010810190505b6305f5e100831061202d576305f5e100838161202357612022612df4565b5b0492506008810190505b612710831061205257612710838161204857612047612df4565b5b0492506004810190505b60648310612075576064838161206b5761206a612df4565b5b0492506002810190505b600a8310612084576001810190505b80915050919050565b6000808273ffffffffffffffffffffffffffffffffffffffff163b119050919050565b600073ffffffffffffffffffffffffffffffffffffffff168273ffffffffffffffffffffffffffffffffffffffff160361211f576040517f08c379a0000000000000000000000000000000000000000000000000000000008152600401612116906134d5565b60405180910390fd5b612128816118fc565b15612168576040517f08c379a000000000000000000000000000000000000000000000000000000000815260040161215f90613541565b60405180910390fd5b612176600083836001611d4c565b61217f816118fc565b156121bf576040517f08c379a00000000000000000000000000000000000000000000000000000000081526004016121b690613541565b60405180910390fd5b6001600360008473ffffffffffffffffffffffffffffffffffffffff1673ffffffffffffffffffffffffffffffffffffffff16815260200190815260200160002060008282540192505081905550816002600083815260200190815260200160002060006101000a81548173ffffffffffffffffffffffffffffffffffffffff021916908373ffffffffffffffffffffffffffffffffffffffff160217905550808273ffffffffffffffffffffffffffffffffffffffff16600073ffffffffffffffffffffffffffffffffffffffff167fddf252ad1be2c89b69c2b068fc378daa952ba7f163c4a11628f55a4df523b3ef60405160405180910390a46122c9600083836001611d52565b5050565b6000604051905090565b600080fd5b600080fd5b60007fffffffff0000000000000000000000000000000000000000000000000000000082169050919050565b612316816122e1565b811461232157600080fd5b50565b6000813590506123338161230d565b92915050565b60006020828403121561234f5761234e6122d7565b5b600061235d84828501612324565b91505092915050565b60008115159050919050565b61237b81612366565b82525050565b60006020820190506123966000830184612372565b92915050565b600081519050919050565b600082825260208201905092915050565b60005b838110156123d65780820151818401526020810190506123bb565b60008484015250505050565b6000601f19601f8301169050919050565b60006123fe8261239c565b61240881856123a7565b93506124188185602086016123b8565b612421816123e2565b840191505092915050565b6000602082019050818103600083015261244681846123f3565b905092915050565b6000819050919050565b6124618161244e565b811461246c57600080fd5b50565b60008135905061247e81612458565b92915050565b60006020828403121561249a576124996122d7565b5b60006124a88482850161246f565b91505092915050565b600073ffffffffffffffffffffffffffffffffffffffff82169050919050565b60006124dc826124b1565b9050919050565b6124ec816124d1565b82525050565b600060208201905061250760008301846124e3565b92915050565b612516816124d1565b811461252157600080fd5b50565b6000813590506125338161250d565b92915050565b600080604083850312156125505761254f6122d7565b5b600061255e85828601612524565b925050602061256f8582860161246f565b9150509250929050565b600080600060608486031215612592576125916122d7565b5b60006125a086828701612524565b93505060206125b186828701612524565b92505060406125c28682870161246f565b9150509250925092565b6000602082840312156125e2576125e16122d7565b5b60006125f084828501612524565b91505092915050565b6126028161244e565b82525050565b600060208201905061261d60008301846125f9565b92915050565b600060608201905061263860008301866124e3565b6126456020830185612372565b61265260408301846125f9565b949350505050565b61266381612366565b811461266e57600080fd5b50565b6000813590506126808161265a565b92915050565b6000806040838503121561269d5761269c6122d7565b5b60006126ab85828601612524565b92505060206126bc85828601612671565b9150509250929050565b600080fd5b600080fd5b7f4e487b7100000000000000000000000000000000000000000000000000000000600052604160045260246000fd5b612708826123e2565b810181811067ffffffffffffffff82111715612727576127266126d0565b5b80604052505050565b600061273a6122cd565b905061274682826126ff565b919050565b600067ffffffffffffffff821115612766576127656126d0565b5b61276f826123e2565b9050602081019050919050565b82818337600083830152505050565b600061279e6127998461274b565b612730565b9050828152602081018484840111156127ba576127b96126cb565b5b6127c584828561277c565b509392505050565b600082601f8301126127e2576127e16126c6565b5b81356127f284826020860161278b565b91505092915050565b60008060008060808587031215612815576128146122d7565b5b600061282387828801612524565b945050602061283487828801612524565b93505060406128458782880161246f565b925050606085013567ffffffffffffffff811115612866576128656122dc565b5b612872878288016127cd565b91505092959194509250565b600080600060608486031215612897576128966122d7565b5b60006128a58682870161246f565b93505060206128b686828701612671565b92505060406128c78682870161246f565b9150509250925092565b600080604083850312156128e8576128e76122d7565b5b60006128f685828601612524565b925050602061290785828601612524565b9150509250929050565b60008060408385031215612928576129276122d7565b5b60006129368582860161246f565b925050602061294785828601612524565b9150509250929050565b7f4e487b7100000000000000000000000000000000000000000000000000000000600052602260045260246000fd5b6000600282049050600182168061299857607f821691505b6020821081036129ab576129aa612951565b5b50919050565b7f4552433732313a20617070726f76616c20746f2063757272656e74206f776e6560008201527f7200000000000000000000000000000000000000000000000000000000000000602082015250565b6000612a0d6021836123a7565b9150612a18826129b1565b604082019050919050565b60006020820190508181036000830152612a3c81612a00565b9050919050565b7f4552433732313a20617070726f76652063616c6c6572206973206e6f7420746f60008201527f6b656e206f776e6572206f7220617070726f76656420666f7220616c6c000000602082015250565b6000612a9f603d836123a7565b9150612aaa82612a43565b604082019050919050565b60006020820190508181036000830152612ace81612a92565b9050919050565b7f4552433732313a2063616c6c6572206973206e6f7420746f6b656e206f776e6560008201527f72206f7220617070726f76656400000000000000000000000000000000000000602082015250565b6000612b31602d836123a7565b9150612b3c82612ad5565b604082019050919050565b60006020820190508181036000830152612b6081612b24565b9050919050565b7f4552433732313a20696e76616c696420746f6b656e2049440000000000000000600082015250565b6000612b9d6018836123a7565b9150612ba882612b67565b602082019050919050565b60006020820190508181036000830152612bcc81612b90565b9050919050565b7f546f6b656e20646f6573206e6f74206578697374000000000000000000000000600082015250565b6000612c096014836123a7565b9150612c1482612bd3565b602082019050919050565b60006020820190508181036000830152612c3881612bfc565b9050919050565b7f426f6f6b206973206e6f7420666f722073616c65000000000000000000000000600082015250565b6000612c756014836123a7565b9150612c8082612c3f565b602082019050919050565b60006020820190508181036000830152612ca481612c68565b9050919050565b7f43616e6e6f7420627579206f776e20626f6f6b00000000000000000000000000600082015250565b6000612ce16013836123a7565b9150612cec82612cab565b602082019050919050565b60006020820190508181036000830152612d1081612cd4565b9050919050565b7f4d75737420706179206d696e696d756d20736574207072696365000000000000600082015250565b6000612d4d601a836123a7565b9150612d5882612d17565b602082019050919050565b60006020820190508181036000830152612d7c81612d40565b9050919050565b7f4e487b7100000000000000000000000000000000000000000000000000000000600052601160045260246000fd5b6000612dbd8261244e565b9150612dc88361244e565b9250828202612dd68161244e565b91508282048414831517612ded57612dec612d83565b5b5092915050565b7f4e487b7100000000000000000000000000000000000000000000000000000000600052601260045260246000fd5b6000612e2e8261244e565b9150612e398361244e565b925082612e4957612e48612df4565b5b828204905092915050565b6000612e5f8261244e565b9150612e6a8361244e565b9250828203905081811115612e8257612e81612d83565b5b92915050565b7f4552433732313a2061646472657373207a65726f206973206e6f74206120766160008201527f6c6964206f776e65720000000000000000000000000000000000000000000000602082015250565b6000612ee46029836123a7565b9150612eef82612e88565b604082019050919050565b60006020820190508181036000830152612f1381612ed7565b9050919050565b6000612f258261244e565b9150612f308361244e565b9250828201905080821115612f4857612f47612d83565b5b92915050565b600081905092915050565b6000612f648261239c565b612f6e8185612f4e565b9350612f7e8185602086016123b8565b80840191505092915050565b6000612f968285612f59565b9150612fa28284612f59565b91508190509392505050565b7f4e6f7420617070726f76656420746f2073657420666f722073616c6500000000600082015250565b6000612fe4601c836123a7565b9150612fef82612fae565b602082019050919050565b6000602082019050818103600083015261301381612fd7565b9050919050565b7f4f776e61626c653a206e6577206f776e657220697320746865207a65726f206160008201527f6464726573730000000000000000000000000000000000000000000000000000602082015250565b60006130766026836123a7565b91506130818261301a565b604082019050919050565b600060208201905081810360008301526130a581613069565b9050919050565b7f53656e646572206e6f7420617070726f76656420746f207472616e7366657200600082015250565b60006130e2601f836123a7565b91506130ed826130ac565b602082019050919050565b60006020820190508181036000830152613111816130d5565b9050919050565b7f4552433732313a207472616e736665722066726f6d20696e636f72726563742060008201527f6f776e6572000000000000000000000000000000000000000000000000000000602082015250565b60006131746025836123a7565b915061317f82613118565b604082019050919050565b600060208201905081810360008301526131a381613167565b9050919050565b7f4552433732313a207472616e7366657220746f20746865207a65726f2061646460008201527f7265737300000000000000000000000000000000000000000000000000000000602082015250565b60006132066024836123a7565b9150613211826131aa565b604082019050919050565b60006020820190508181036000830152613235816131f9565b9050919050565b7f4552433732313a207472616e7366657220746f206e6f6e20455243373231526560008201527f63656976657220696d706c656d656e7465720000000000000000000000000000602082015250565b60006132986032836123a7565b91506132a38261323c565b604082019050919050565b600060208201905081810360008301526132c78161328b565b9050919050565b7f4f776e61626c653a2063616c6c6572206973206e6f7420746865206f776e6572600082015250565b60006133046020836123a7565b915061330f826132ce565b602082019050919050565b60006020820190508181036000830152613333816132f7565b9050919050565b7f4552433732313a20617070726f766520746f2063616c6c657200000000000000600082015250565b60006133706019836123a7565b915061337b8261333a565b602082019050919050565b6000602082019050818103600083015261339f81613363565b9050919050565b600081519050919050565b600082825260208201905092915050565b60006133cd826133a6565b6133d781856133b1565b93506133e78185602086016123b8565b6133f0816123e2565b840191505092915050565b600060808201905061341060008301876124e3565b61341d60208301866124e3565b61342a60408301856125f9565b818103606083015261343c81846133c2565b905095945050505050565b6000815190506134568161230d565b92915050565b600060208284031215613472576134716122d7565b5b600061348084828501613447565b91505092915050565b7f4552433732313a206d696e7420746f20746865207a65726f2061646472657373600082015250565b60006134bf6020836123a7565b91506134ca82613489565b602082019050919050565b600060208201905081810360008301526134ee816134b2565b9050919050565b7f4552433732313a20746f6b656e20616c7265616479206d696e74656400000000600082015250565b600061352b601c836123a7565b9150613536826134f5565b602082019050919050565b6000602082019050818103600083015261355a8161351e565b905091905056fea2646970667358221220ac9b25bdab3ed75c5e487326d645cc7229fcc0b1aa2fea32f2346f39b4d0a77664736f6c63430008130033",
  "immutableReferences": {},
  "source": "//SPDX-License-Identifier: UNLICENSED\npragma solidity ^0.8.0;\n\nimport \"@openzeppelin/contracts/token/ERC721/ERC721.sol\";\nimport \"@openzeppelin/contracts/access/Ownable.sol\";\n\ncontract StoryToken is ERC721, Ownable {\n    \n    uint256 public _tokenIdCounter = 0;\n    \n    struct Book {\n        address bookOwner;\n        bool forSale;\n        uint price;\n    }\n    // Owner of Smart Contract is Author\n    // bookOwner of book is owner of token ID\n    mapping (uint256 => Book) public _books;\n    uint royaltyPercent;\n\n    event BookCreated(uint256 tokenNum);\n    event RoyaltyWithdrawn(uint256 tokenNum);\n    // event returnBook(string title, string author, uint price);\n    constructor(uint royalty) ERC721(\"StoryToken\", \"ST\") {\n        royaltyPercent = royalty;\n    }\n\n    function createBook(\n        uint price\n    ) public onlyOwner {\n        _tokenIdCounter += 1;\n        uint256 tokenId = _tokenIdCounter;\n        address bookOwner = _msgSender();\n        _safeMint(bookOwner, tokenId);\n        _books[tokenId] = Book(bookOwner, false, price);\n        // return tokenId;\n        emit BookCreated(tokenId);\n    }\n\n    function transferBook(uint256 tokenId, address to) public {\n        require(_exists(tokenId), \"Token does not exist\");\n        require(ownerOf(tokenId)== _msgSender(), \"Sender not approved to transfer\");\n        _transfer(_msgSender(), to, tokenId);\n        _books[tokenId].bookOwner = to;\n    }\n\n    function setForSale(uint256 tokenId, bool forSale, uint price) public {\n        require(_exists(tokenId), \"Token does not exist\");\n        require(ownerOf(tokenId) == _msgSender(), \"Not approved to set for sale\");\n\n        _books[tokenId].forSale = forSale;\n        _books[tokenId].price = price;\n    }\n\n\n    function buyBook(uint256 tokenId) public payable {\n        require(_exists(tokenId), \"Token does not exist\");\n        require(_books[tokenId].forSale, \"Book is not for sale\");\n        address bookOwner = ownerOf(tokenId);\n        require(bookOwner != _msgSender(), \"Cannot buy own book\");\n        require(msg.value >= _books[tokenId].price, \"Must pay minimum set price\");\n        \n        _safeTransfer(bookOwner, _msgSender(), tokenId, \"\");\n        _books[tokenId].bookOwner = _msgSender();\n        _books[tokenId].forSale = false;\n        uint royalty = (msg.value * royaltyPercent)/100;\n        payable(bookOwner).transfer(msg.value-royalty);\n    }\n\n    function withdrawRoyalty() public onlyOwner {\n        emit RoyaltyWithdrawn(address(this).balance);\n        payable(owner()).transfer(address(this).balance);\n    }\n}\n",
  "sourcePath": "/Users/debasmitroy/BC526/StoryToken/StoryToken/StoryToken-contract/contracts/StoryTokenV1.sol",
  "compiler": {
    "name": "solc",
    "version": "0.8.19+commit.7dd6d404.Emscripten.clang"
  },
  "schemaVersion": "3.4.13",
  "updatedAt": "2023-04-29T23:58:20.235Z",
  "networkType": "ethereum",
  "devdoc": {
    "events": {
      "Approval(address,address,uint256)": {
        "details": "Emitted when `owner` enables `approved` to manage the `tokenId` token."
      },
      "ApprovalForAll(address,address,bool)": {
        "details": "Emitted when `owner` enables or disables (`approved`) `operator` to manage all of its assets."
      },
      "Transfer(address,address,uint256)": {
        "details": "Emitted when `tokenId` token is transferred from `from` to `to`."
      }
    },
    "kind": "dev",
    "methods": {
      "approve(address,uint256)": {
        "details": "See {IERC721-approve}."
      },
      "balanceOf(address)": {
        "details": "See {IERC721-balanceOf}."
      },
      "getApproved(uint256)": {
        "details": "See {IERC721-getApproved}."
      },
      "isApprovedForAll(address,address)": {
        "details": "See {IERC721-isApprovedForAll}."
      },
      "name()": {
        "details": "See {IERC721Metadata-name}."
      },
      "owner()": {
        "details": "Returns the address of the current owner."
      },
      "ownerOf(uint256)": {
        "details": "See {IERC721-ownerOf}."
      },
      "renounceOwnership()": {
        "details": "Leaves the contract without owner. It will not be possible to call `onlyOwner` functions anymore. Can only be called by the current owner. NOTE: Renouncing ownership will leave the contract without an owner, thereby removing any functionality that is only available to the owner."
      },
      "safeTransferFrom(address,address,uint256)": {
        "details": "See {IERC721-safeTransferFrom}."
      },
      "safeTransferFrom(address,address,uint256,bytes)": {
        "details": "See {IERC721-safeTransferFrom}."
      },
      "setApprovalForAll(address,bool)": {
        "details": "See {IERC721-setApprovalForAll}."
      },
      "supportsInterface(bytes4)": {
        "details": "See {IERC165-supportsInterface}."
      },
      "symbol()": {
        "details": "See {IERC721Metadata-symbol}."
      },
      "tokenURI(uint256)": {
        "details": "See {IERC721Metadata-tokenURI}."
      },
      "transferFrom(address,address,uint256)": {
        "details": "See {IERC721-transferFrom}."
      },
      "transferOwnership(address)": {
        "details": "Transfers ownership of the contract to a new account (`newOwner`). Can only be called by the current owner."
      }
    },
    "version": 1
  },
  "userdoc": {
    "kind": "user",
    "methods": {},
    "version": 1
  }
}