{
  "contractName": "StoryToken",
  "abi": [
    {
      "inputs": [
        {
          "internalType": "uint256",
          "name": "royalty",
          "type": "uint256"
        }
      ],
      "stateMutability": "nonpayable",
      "type": "constructor"
    },
    {
      "anonymous": false,
      "inputs": [
        {
          "indexed": true,
          "internalType": "address",
          "name": "owner",
          "type": "address"
        },
        {
          "indexed": true,
          "internalType": "address",
          "name": "approved",
          "type": "address"
        },
        {
          "indexed": true,
          "internalType": "uint256",
          "name": "tokenId",
          "type": "uint256"
        }
      ],
      "name": "Approval",
      "type": "event"
    },
    {
      "anonymous": false,
      "inputs": [
        {
          "indexed": true,
          "internalType": "address",
          "name": "owner",
          "type": "address"
        },
        {
          "indexed": true,
          "internalType": "address",
          "name": "operator",
          "type": "address"
        },
        {
          "indexed": false,
          "internalType": "bool",
          "name": "approved",
          "type": "bool"
        }
      ],
      "name": "ApprovalForAll",
      "type": "event"
    },
    {
      "anonymous": false,
      "inputs": [
        {
          "indexed": false,
          "internalType": "uint256",
          "name": "tokenNum",
          "type": "uint256"
        }
      ],
      "name": "BookCreated",
      "type": "event"
    },
    {
      "anonymous": false,
      "inputs": [
        {
          "indexed": true,
          "internalType": "address",
          "name": "previousOwner",
          "type": "address"
        },
        {
          "indexed": true,
          "internalType": "address",
          "name": "newOwner",
          "type": "address"
        }
      ],
      "name": "OwnershipTransferred",
      "type": "event"
    },
    {
      "anonymous": false,
      "inputs": [
        {
          "indexed": true,
          "internalType": "address",
          "name": "from",
          "type": "address"
        },
        {
          "indexed": true,
          "internalType": "address",
          "name": "to",
          "type": "address"
        },
        {
          "indexed": true,
          "internalType": "uint256",
          "name": "tokenId",
          "type": "uint256"
        }
      ],
      "name": "Transfer",
      "type": "event"
    },
    {
      "anonymous": false,
      "inputs": [
        {
          "indexed": false,
          "internalType": "string",
          "name": "title",
          "type": "string"
        },
        {
          "indexed": false,
          "internalType": "string",
          "name": "author",
          "type": "string"
        },
        {
          "indexed": false,
          "internalType": "uint256",
          "name": "price",
          "type": "uint256"
        }
      ],
      "name": "returnBook",
      "type": "event"
    },
    {
      "inputs": [
        {
          "internalType": "address",
          "name": "to",
          "type": "address"
        },
        {
          "internalType": "uint256",
          "name": "tokenId",
          "type": "uint256"
        }
      ],
      "name": "approve",
      "outputs": [],
      "stateMutability": "nonpayable",
      "type": "function"
    },
    {
      "inputs": [
        {
          "internalType": "address",
          "name": "owner",
          "type": "address"
        }
      ],
      "name": "balanceOf",
      "outputs": [
        {
          "internalType": "uint256",
          "name": "",
          "type": "uint256"
        }
      ],
      "stateMutability": "view",
      "type": "function",
      "constant": true
    },
    {
      "inputs": [
        {
          "internalType": "uint256",
          "name": "tokenId",
          "type": "uint256"
        }
      ],
      "name": "getApproved",
      "outputs": [
        {
          "internalType": "address",
          "name": "",
          "type": "address"
        }
      ],
      "stateMutability": "view",
      "type": "function",
      "constant": true
    },
    {
      "inputs": [
        {
          "internalType": "address",
          "name": "owner",
          "type": "address"
        },
        {
          "internalType": "address",
          "name": "operator",
          "type": "address"
        }
      ],
      "name": "isApprovedForAll",
      "outputs": [
        {
          "internalType": "bool",
          "name": "",
          "type": "bool"
        }
      ],
      "stateMutability": "view",
      "type": "function",
      "constant": true
    },
    {
      "inputs": [],
      "name": "name",
      "outputs": [
        {
          "internalType": "string",
          "name": "",
          "type": "string"
        }
      ],
      "stateMutability": "view",
      "type": "function",
      "constant": true
    },
    {
      "inputs": [],
      "name": "owner",
      "outputs": [
        {
          "internalType": "address",
          "name": "",
          "type": "address"
        }
      ],
      "stateMutability": "view",
      "type": "function",
      "constant": true
    },
    {
      "inputs": [
        {
          "internalType": "uint256",
          "name": "tokenId",
          "type": "uint256"
        }
      ],
      "name": "ownerOf",
      "outputs": [
        {
          "internalType": "address",
          "name": "",
          "type": "address"
        }
      ],
      "stateMutability": "view",
      "type": "function",
      "constant": true
    },
    {
      "inputs": [],
      "name": "renounceOwnership",
      "outputs": [],
      "stateMutability": "nonpayable",
      "type": "function"
    },
    {
      "inputs": [
        {
          "internalType": "address",
          "name": "from",
          "type": "address"
        },
        {
          "internalType": "address",
          "name": "to",
          "type": "address"
        },
        {
          "internalType": "uint256",
          "name": "tokenId",
          "type": "uint256"
        }
      ],
      "name": "safeTransferFrom",
      "outputs": [],
      "stateMutability": "nonpayable",
      "type": "function"
    },
    {
      "inputs": [
        {
          "internalType": "address",
          "name": "from",
          "type": "address"
        },
        {
          "internalType": "address",
          "name": "to",
          "type": "address"
        },
        {
          "internalType": "uint256",
          "name": "tokenId",
          "type": "uint256"
        },
        {
          "internalType": "bytes",
          "name": "data",
          "type": "bytes"
        }
      ],
      "name": "safeTransferFrom",
      "outputs": [],
      "stateMutability": "nonpayable",
      "type": "function"
    },
    {
      "inputs": [
        {
          "internalType": "address",
          "name": "operator",
          "type": "address"
        },
        {
          "internalType": "bool",
          "name": "approved",
          "type": "bool"
        }
      ],
      "name": "setApprovalForAll",
      "outputs": [],
      "stateMutability": "nonpayable",
      "type": "function"
    },
    {
      "inputs": [
        {
          "internalType": "bytes4",
          "name": "interfaceId",
          "type": "bytes4"
        }
      ],
      "name": "supportsInterface",
      "outputs": [
        {
          "internalType": "bool",
          "name": "",
          "type": "bool"
        }
      ],
      "stateMutability": "view",
      "type": "function",
      "constant": true
    },
    {
      "inputs": [],
      "name": "symbol",
      "outputs": [
        {
          "internalType": "string",
          "name": "",
          "type": "string"
        }
      ],
      "stateMutability": "view",
      "type": "function",
      "constant": true
    },
    {
      "inputs": [
        {
          "internalType": "uint256",
          "name": "tokenId",
          "type": "uint256"
        }
      ],
      "name": "tokenURI",
      "outputs": [
        {
          "internalType": "string",
          "name": "",
          "type": "string"
        }
      ],
      "stateMutability": "view",
      "type": "function",
      "constant": true
    },
    {
      "inputs": [
        {
          "internalType": "address",
          "name": "from",
          "type": "address"
        },
        {
          "internalType": "address",
          "name": "to",
          "type": "address"
        },
        {
          "internalType": "uint256",
          "name": "tokenId",
          "type": "uint256"
        }
      ],
      "name": "transferFrom",
      "outputs": [],
      "stateMutability": "nonpayable",
      "type": "function"
    },
    {
      "inputs": [
        {
          "internalType": "address",
          "name": "newOwner",
          "type": "address"
        }
      ],
      "name": "transferOwnership",
      "outputs": [],
      "stateMutability": "nonpayable",
      "type": "function"
    },
    {
      "inputs": [
        {
          "internalType": "string",
          "name": "title",
          "type": "string"
        },
        {
          "internalType": "string",
          "name": "author",
          "type": "string"
        },
        {
          "internalType": "string",
          "name": "publisher",
          "type": "string"
        },
        {
          "internalType": "uint256",
          "name": "year",
          "type": "uint256"
        },
        {
          "internalType": "uint256",
          "name": "price",
          "type": "uint256"
        }
      ],
      "name": "createBook",
      "outputs": [
        {
          "internalType": "uint256",
          "name": "",
          "type": "uint256"
        }
      ],
      "stateMutability": "nonpayable",
      "type": "function"
    },
    {
      "inputs": [
        {
          "internalType": "uint256",
          "name": "tokenId",
          "type": "uint256"
        }
      ],
      "name": "getBookInfo",
      "outputs": [
        {
          "components": [
            {
              "internalType": "string",
              "name": "title",
              "type": "string"
            },
            {
              "internalType": "string",
              "name": "author",
              "type": "string"
            },
            {
              "internalType": "string",
              "name": "publisher",
              "type": "string"
            },
            {
              "internalType": "uint256",
              "name": "year",
              "type": "uint256"
            },
            {
              "internalType": "address",
              "name": "bookOwner",
              "type": "address"
            },
            {
              "internalType": "bool",
              "name": "forSale",
              "type": "bool"
            },
            {
              "internalType": "uint256",
              "name": "price",
              "type": "uint256"
            }
          ],
          "internalType": "struct StoryToken.Book",
          "name": "",
          "type": "tuple"
        }
      ],
      "stateMutability": "nonpayable",
      "type": "function"
    },
    {
      "inputs": [
        {
          "internalType": "uint256",
          "name": "tokenId",
          "type": "uint256"
        },
        {
          "internalType": "address",
          "name": "to",
          "type": "address"
        }
      ],
      "name": "transferBook",
      "outputs": [],
      "stateMutability": "nonpayable",
      "type": "function"
    },
    {
      "inputs": [
        {
          "internalType": "uint256",
          "name": "tokenId",
          "type": "uint256"
        },
        {
          "internalType": "bool",
          "name": "forSale",
          "type": "bool"
        },
        {
          "internalType": "uint256",
          "name": "price",
          "type": "uint256"
        }
      ],
      "name": "setForSale",
      "outputs": [],
      "stateMutability": "nonpayable",
      "type": "function"
    },
    {
      "inputs": [
        {
          "internalType": "uint256",
          "name": "tokenId",
          "type": "uint256"
        }
      ],
      "name": "buyBook",
      "outputs": [],
      "stateMutability": "payable",
      "type": "function",
      "payable": true
    },
    {
      "inputs": [],
      "name": "withdrawRoyalty",
      "outputs": [],
      "stateMutability": "nonpayable",
      "type": "function"
    }
  ],
  "bytecode": "0x608060405260006007553480156200001657600080fd5b50604051620042763803806200427683398181016040528101906200003c91906200020a565b6040518060400160405280600a81526020017f53746f7279546f6b656e000000000000000000000000000000000000000000008152506040518060400160405280600281526020017f53540000000000000000000000000000000000000000000000000000000000008152508160009081620000b99190620004ac565b508060019081620000cb9190620004ac565b505050620000ee620000e2620000fc60201b60201c565b6200010460201b60201c565b806009819055505062000593565b600033905090565b6000600660009054906101000a900473ffffffffffffffffffffffffffffffffffffffff16905081600660006101000a81548173ffffffffffffffffffffffffffffffffffffffff021916908373ffffffffffffffffffffffffffffffffffffffff1602179055508173ffffffffffffffffffffffffffffffffffffffff168173ffffffffffffffffffffffffffffffffffffffff167f8be0079c531659141344cd1fd0a4f28419497f9722a3daafe3b4186f6b6457e060405160405180910390a35050565b600080fd5b6000819050919050565b620001e481620001cf565b8114620001f057600080fd5b50565b6000815190506200020481620001d9565b92915050565b600060208284031215620002235762000222620001ca565b5b60006200023384828501620001f3565b91505092915050565b600081519050919050565b7f4e487b7100000000000000000000000000000000000000000000000000000000600052604160045260246000fd5b7f4e487b7100000000000000000000000000000000000000000000000000000000600052602260045260246000fd5b60006002820490506001821680620002be57607f821691505b602082108103620002d457620002d362000276565b5b50919050565b60008190508160005260206000209050919050565b60006020601f8301049050919050565b600082821b905092915050565b6000600883026200033e7fffffffffffffffffffffffffffffffffffffffffffffffffffffffffffffffff82620002ff565b6200034a8683620002ff565b95508019841693508086168417925050509392505050565b6000819050919050565b60006200038d620003876200038184620001cf565b62000362565b620001cf565b9050919050565b6000819050919050565b620003a9836200036c565b620003c1620003b88262000394565b8484546200030c565b825550505050565b600090565b620003d8620003c9565b620003e58184846200039e565b505050565b5b818110156200040d5762000401600082620003ce565b600181019050620003eb565b5050565b601f8211156200045c576200042681620002da565b6200043184620002ef565b8101602085101562000441578190505b620004596200045085620002ef565b830182620003ea565b50505b505050565b600082821c905092915050565b6000620004816000198460080262000461565b1980831691505092915050565b60006200049c83836200046e565b9150826002028217905092915050565b620004b7826200023c565b67ffffffffffffffff811115620004d357620004d262000247565b5b620004df8254620002a5565b620004ec82828562000411565b600060209050601f8311600181146200052457600084156200050f578287015190505b6200051b85826200048e565b8655506200058b565b601f1984166200053486620002da565b60005b828110156200055e5784890151825560018201915060208501945060208101905062000537565b868310156200057e57848901516200057a601f8916826200046e565b8355505b6001600288020188555050505b505050505050565b613cd380620005a36000396000f3fe6080604052600436106101355760003560e01c80638da5cb5b116100ab578063cf5c1b521161006f578063cf5c1b5214610429578063e985e9c514610452578063f1147bae1461048f578063f2fde38b146104a6578063f4eea0f2146104cf578063fc1a15c21461050c57610135565b80638da5cb5b1461034457806395d89b411461036f578063a22cb4651461039a578063b88d4fde146103c3578063c87b56dd146103ec57610135565b806342842e0e116100fd57806342842e0e1461023157806357a268471461025a5780636352211e146102975780636ee26566146102d457806370a08231146102f0578063715018a61461032d57610135565b806301ffc9a71461013a57806306fdde0314610177578063081812fc146101a2578063095ea7b3146101df57806323b872dd14610208575b600080fd5b34801561014657600080fd5b50610161600480360381019061015c9190612536565b610535565b60405161016e919061257e565b60405180910390f35b34801561018357600080fd5b5061018c610617565b6040516101999190612629565b60405180910390f35b3480156101ae57600080fd5b506101c960048036038101906101c49190612681565b6106a9565b6040516101d691906126ef565b60405180910390f35b3480156101eb57600080fd5b5061020660048036038101906102019190612736565b6106ef565b005b34801561021457600080fd5b5061022f600480360381019061022a9190612776565b610806565b005b34801561023d57600080fd5b5061025860048036038101906102539190612776565b610866565b005b34801561026657600080fd5b50610281600480360381019061027c9190612681565b610886565b60405161028e91906128ea565b60405180910390f35b3480156102a357600080fd5b506102be60048036038101906102b99190612681565b610a7a565b6040516102cb91906126ef565b60405180910390f35b6102ee60048036038101906102e99190612681565b610b00565b005b3480156102fc57600080fd5b506103176004803603810190610312919061290c565b610da8565b6040516103249190612948565b60405180910390f35b34801561033957600080fd5b50610342610e5f565b005b34801561035057600080fd5b50610359610e73565b60405161036691906126ef565b60405180910390f35b34801561037b57600080fd5b50610384610e9d565b6040516103919190612629565b60405180910390f35b3480156103a657600080fd5b506103c160048036038101906103bc919061298f565b610f2f565b005b3480156103cf57600080fd5b506103ea60048036038101906103e59190612b04565b610f45565b005b3480156103f857600080fd5b50610413600480360381019061040e9190612681565b610fa7565b6040516104209190612629565b60405180910390f35b34801561043557600080fd5b50610450600480360381019061044b9190612b87565b61100f565b005b34801561045e57600080fd5b5061047960048036038101906104749190612bda565b611122565b604051610486919061257e565b60405180910390f35b34801561049b57600080fd5b506104a46111b6565b005b3480156104b257600080fd5b506104cd60048036038101906104c8919061290c565b61120e565b005b3480156104db57600080fd5b506104f660048036038101906104f19190612cbb565b611291565b6040516105039190612948565b60405180910390f35b34801561051857600080fd5b50610533600480360381019061052e9190612d8a565b611433565b005b60007f80ac58cd000000000000000000000000000000000000000000000000000000007bffffffffffffffffffffffffffffffffffffffffffffffffffffffff1916827bffffffffffffffffffffffffffffffffffffffffffffffffffffffff1916148061060057507f5b5e139f000000000000000000000000000000000000000000000000000000007bffffffffffffffffffffffffffffffffffffffffffffffffffffffff1916827bffffffffffffffffffffffffffffffffffffffffffffffffffffffff1916145b80610610575061060f82611563565b5b9050919050565b60606000805461062690612df9565b80601f016020809104026020016040519081016040528092919081815260200182805461065290612df9565b801561069f5780601f106106745761010080835404028352916020019161069f565b820191906000526020600020905b81548152906001019060200180831161068257829003601f168201915b5050505050905090565b60006106b4826115cd565b6004600083815260200190815260200160002060009054906101000a900473ffffffffffffffffffffffffffffffffffffffff169050919050565b60006106fa82610a7a565b90508073ffffffffffffffffffffffffffffffffffffffff168373ffffffffffffffffffffffffffffffffffffffff160361076a576040517f08c379a000000000000000000000000000000000000000000000000000000000815260040161076190612e9c565b60405180910390fd5b8073ffffffffffffffffffffffffffffffffffffffff16610789611618565b73ffffffffffffffffffffffffffffffffffffffff1614806107b857506107b7816107b2611618565b611122565b5b6107f7576040517f08c379a00000000000000000000000000000000000000000000000000000000081526004016107ee90612f2e565b60405180910390fd5b6108018383611620565b505050565b610817610811611618565b826116d9565b610856576040517f08c379a000000000000000000000000000000000000000000000000000000000815260040161084d90612fc0565b60405180910390fd5b61086183838361176e565b505050565b61088183838360405180602001604052806000815250610f45565b505050565b61088e612475565b61089782611a67565b6108d6576040517f08c379a00000000000000000000000000000000000000000000000000000000081526004016108cd9061302c565b60405180910390fd5b60006008600084815260200190815260200160002060000180546108f990612df9565b80601f016020809104026020016040519081016040528092919081815260200182805461092590612df9565b80156109725780601f1061094757610100808354040283529160200191610972565b820191906000526020600020905b81548152906001019060200180831161095557829003601f168201915b50505050509050600060086000858152602001908152602001600020600101805461099c90612df9565b80601f01602080910402602001604051908101604052809291908181526020018280546109c890612df9565b8015610a155780601f106109ea57610100808354040283529160200191610a15565b820191906000526020600020905b8154815290600101906020018083116109f857829003601f168201915b505050505090506000600860008681526020019081526020016000206005015490507fa6777378c86a5ba4a5817abb50db2ee06645485a1246599050f541e5374a2aab838383604051610a6a9392919061304c565b60405180910390a1505050919050565b600080610a8683611aa8565b9050600073ffffffffffffffffffffffffffffffffffffffff168173ffffffffffffffffffffffffffffffffffffffff1603610af7576040517f08c379a0000000000000000000000000000000000000000000000000000000008152600401610aee906130dd565b60405180910390fd5b80915050919050565b610b0981611a67565b610b48576040517f08c379a0000000000000000000000000000000000000000000000000000000008152600401610b3f9061302c565b60405180910390fd5b6008600082815260200190815260200160002060040160149054906101000a900460ff16610bab576040517f08c379a0000000000000000000000000000000000000000000000000000000008152600401610ba290613149565b60405180910390fd5b6000610bb682610a7a565b9050610bc0611618565b73ffffffffffffffffffffffffffffffffffffffff168173ffffffffffffffffffffffffffffffffffffffff1603610c2d576040517f08c379a0000000000000000000000000000000000000000000000000000000008152600401610c24906131b5565b60405180910390fd5b6008600083815260200190815260200160002060050154341015610c86576040517f08c379a0000000000000000000000000000000000000000000000000000000008152600401610c7d90613221565b60405180910390fd5b610ca881610c92611618565b8460405180602001604052806000815250611ae5565b610cb0611618565b6008600084815260200190815260200160002060040160006101000a81548173ffffffffffffffffffffffffffffffffffffffff021916908373ffffffffffffffffffffffffffffffffffffffff16021790555060006008600084815260200190815260200160002060040160146101000a81548160ff0219169083151502179055506000606460095434610d459190613270565b610d4f91906132e1565b90508173ffffffffffffffffffffffffffffffffffffffff166108fc8234610d779190613312565b9081150290604051600060405180830381858888f19350505050158015610da2573d6000803e3d6000fd5b50505050565b60008073ffffffffffffffffffffffffffffffffffffffff168273ffffffffffffffffffffffffffffffffffffffff1603610e18576040517f08c379a0000000000000000000000000000000000000000000000000000000008152600401610e0f906133b8565b60405180910390fd5b600360008373ffffffffffffffffffffffffffffffffffffffff1673ffffffffffffffffffffffffffffffffffffffff168152602001908152602001600020549050919050565b610e67611b41565b610e716000611bbf565b565b6000600660009054906101000a900473ffffffffffffffffffffffffffffffffffffffff16905090565b606060018054610eac90612df9565b80601f0160208091040260200160405190810160405280929190818152602001828054610ed890612df9565b8015610f255780601f10610efa57610100808354040283529160200191610f25565b820191906000526020600020905b815481529060010190602001808311610f0857829003601f168201915b5050505050905090565b610f41610f3a611618565b8383611c85565b5050565b610f56610f50611618565b836116d9565b610f95576040517f08c379a0000000000000000000000000000000000000000000000000000000008152600401610f8c90612fc0565b60405180910390fd5b610fa184848484611ae5565b50505050565b6060610fb2826115cd565b6000610fbc611df1565b90506000815111610fdc5760405180602001604052806000815250611007565b80610fe684611e08565b604051602001610ff7929190613414565b6040516020818303038152906040525b915050919050565b61101883611a67565b611057576040517f08c379a000000000000000000000000000000000000000000000000000000000815260040161104e9061302c565b60405180910390fd5b61105f611618565b73ffffffffffffffffffffffffffffffffffffffff1661107e84610a7a565b73ffffffffffffffffffffffffffffffffffffffff16146110d4576040517f08c379a00000000000000000000000000000000000000000000000000000000081526004016110cb90613484565b60405180910390fd5b816008600085815260200190815260200160002060040160146101000a81548160ff021916908315150217905550806008600085815260200190815260200160002060050181905550505050565b6000600560008473ffffffffffffffffffffffffffffffffffffffff1673ffffffffffffffffffffffffffffffffffffffff16815260200190815260200160002060008373ffffffffffffffffffffffffffffffffffffffff1673ffffffffffffffffffffffffffffffffffffffff16815260200190815260200160002060009054906101000a900460ff16905092915050565b6111be611b41565b6111c6610e73565b73ffffffffffffffffffffffffffffffffffffffff166108fc479081150290604051600060405180830381858888f1935050505015801561120b573d6000803e3d6000fd5b50565b611216611b41565b600073ffffffffffffffffffffffffffffffffffffffff168173ffffffffffffffffffffffffffffffffffffffff1603611285576040517f08c379a000000000000000000000000000000000000000000000000000000000815260040161127c90613516565b60405180910390fd5b61128e81611bbf565b50565b600061129b611b41565b6001600760008282546112ae9190613536565b925050819055506000600754905060006112c6611618565b90506112d28183611ed6565b6040518060e001604052808981526020018881526020018781526020018681526020018273ffffffffffffffffffffffffffffffffffffffff168152602001600015158152602001858152506008600084815260200190815260200160002060008201518160000190816113469190613716565b50602082015181600101908161135c9190613716565b5060408201518160020190816113729190613716565b506060820151816003015560808201518160040160006101000a81548173ffffffffffffffffffffffffffffffffffffffff021916908373ffffffffffffffffffffffffffffffffffffffff16021790555060a08201518160040160146101000a81548160ff02191690831515021790555060c082015181600501559050507f4931befe04b8ef8a98f4b360614a166851a16a8c40326718fb8817059900bed5826040516114209190612948565b60405180910390a1505095945050505050565b61143c82611a67565b61147b576040517f08c379a00000000000000000000000000000000000000000000000000000000081526004016114729061302c565b60405180910390fd5b611483611618565b73ffffffffffffffffffffffffffffffffffffffff166114a2836106a9565b73ffffffffffffffffffffffffffffffffffffffff16146114f8576040517f08c379a00000000000000000000000000000000000000000000000000000000081526004016114ef90613834565b60405180910390fd5b61150a611503611618565b828461176e565b806008600084815260200190815260200160002060040160006101000a81548173ffffffffffffffffffffffffffffffffffffffff021916908373ffffffffffffffffffffffffffffffffffffffff1602179055505050565b60007f01ffc9a7000000000000000000000000000000000000000000000000000000007bffffffffffffffffffffffffffffffffffffffffffffffffffffffff1916827bffffffffffffffffffffffffffffffffffffffffffffffffffffffff1916149050919050565b6115d681611a67565b611615576040517f08c379a000000000000000000000000000000000000000000000000000000000815260040161160c906130dd565b60405180910390fd5b50565b600033905090565b816004600083815260200190815260200160002060006101000a81548173ffffffffffffffffffffffffffffffffffffffff021916908373ffffffffffffffffffffffffffffffffffffffff160217905550808273ffffffffffffffffffffffffffffffffffffffff1661169383610a7a565b73ffffffffffffffffffffffffffffffffffffffff167f8c5be1e5ebec7d5bd14f71427d1e84f3dd0314c0f7b2291e5b200ac8c7c3b92560405160405180910390a45050565b6000806116e583610a7a565b90508073ffffffffffffffffffffffffffffffffffffffff168473ffffffffffffffffffffffffffffffffffffffff16148061172757506117268185611122565b5b8061176557508373ffffffffffffffffffffffffffffffffffffffff1661174d846106a9565b73ffffffffffffffffffffffffffffffffffffffff16145b91505092915050565b8273ffffffffffffffffffffffffffffffffffffffff1661178e82610a7a565b73ffffffffffffffffffffffffffffffffffffffff16146117e4576040517f08c379a00000000000000000000000000000000000000000000000000000000081526004016117db906138c6565b60405180910390fd5b600073ffffffffffffffffffffffffffffffffffffffff168273ffffffffffffffffffffffffffffffffffffffff1603611853576040517f08c379a000000000000000000000000000000000000000000000000000000000815260040161184a90613958565b60405180910390fd5b6118608383836001611ef4565b8273ffffffffffffffffffffffffffffffffffffffff1661188082610a7a565b73ffffffffffffffffffffffffffffffffffffffff16146118d6576040517f08c379a00000000000000000000000000000000000000000000000000000000081526004016118cd906138c6565b60405180910390fd5b6004600082815260200190815260200160002060006101000a81549073ffffffffffffffffffffffffffffffffffffffff02191690556001600360008573ffffffffffffffffffffffffffffffffffffffff1673ffffffffffffffffffffffffffffffffffffffff168152602001908152602001600020600082825403925050819055506001600360008473ffffffffffffffffffffffffffffffffffffffff1673ffffffffffffffffffffffffffffffffffffffff16815260200190815260200160002060008282540192505081905550816002600083815260200190815260200160002060006101000a81548173ffffffffffffffffffffffffffffffffffffffff021916908373ffffffffffffffffffffffffffffffffffffffff160217905550808273ffffffffffffffffffffffffffffffffffffffff168473ffffffffffffffffffffffffffffffffffffffff167fddf252ad1be2c89b69c2b068fc378daa952ba7f163c4a11628f55a4df523b3ef60405160405180910390a4611a628383836001611efa565b505050565b60008073ffffffffffffffffffffffffffffffffffffffff16611a8983611aa8565b73ffffffffffffffffffffffffffffffffffffffff1614159050919050565b60006002600083815260200190815260200160002060009054906101000a900473ffffffffffffffffffffffffffffffffffffffff169050919050565b611af084848461176e565b611afc84848484611f00565b611b3b576040517f08c379a0000000000000000000000000000000000000000000000000000000008152600401611b32906139ea565b60405180910390fd5b50505050565b611b49611618565b73ffffffffffffffffffffffffffffffffffffffff16611b67610e73565b73ffffffffffffffffffffffffffffffffffffffff1614611bbd576040517f08c379a0000000000000000000000000000000000000000000000000000000008152600401611bb490613a56565b60405180910390fd5b565b6000600660009054906101000a900473ffffffffffffffffffffffffffffffffffffffff16905081600660006101000a81548173ffffffffffffffffffffffffffffffffffffffff021916908373ffffffffffffffffffffffffffffffffffffffff1602179055508173ffffffffffffffffffffffffffffffffffffffff168173ffffffffffffffffffffffffffffffffffffffff167f8be0079c531659141344cd1fd0a4f28419497f9722a3daafe3b4186f6b6457e060405160405180910390a35050565b8173ffffffffffffffffffffffffffffffffffffffff168373ffffffffffffffffffffffffffffffffffffffff1603611cf3576040517f08c379a0000000000000000000000000000000000000000000000000000000008152600401611cea90613ac2565b60405180910390fd5b80600560008573ffffffffffffffffffffffffffffffffffffffff1673ffffffffffffffffffffffffffffffffffffffff16815260200190815260200160002060008473ffffffffffffffffffffffffffffffffffffffff1673ffffffffffffffffffffffffffffffffffffffff16815260200190815260200160002060006101000a81548160ff0219169083151502179055508173ffffffffffffffffffffffffffffffffffffffff168373ffffffffffffffffffffffffffffffffffffffff167f17307eab39ab6107e8899845ad3d59bd9653f200f220920489ca2b5937696c3183604051611de4919061257e565b60405180910390a3505050565b606060405180602001604052806000815250905090565b606060006001611e1784612087565b01905060008167ffffffffffffffff811115611e3657611e356129d9565b5b6040519080825280601f01601f191660200182016040528015611e685781602001600182028036833780820191505090505b509050600082602001820190505b600115611ecb578080600190039150507f3031323334353637383961626364656600000000000000000000000000000000600a86061a8153600a8581611ebf57611ebe6132b2565b5b04945060008503611e76575b819350505050919050565b611ef08282604051806020016040528060008152506121da565b5050565b50505050565b50505050565b6000611f218473ffffffffffffffffffffffffffffffffffffffff16612235565b1561207a578373ffffffffffffffffffffffffffffffffffffffff1663150b7a02611f4a611618565b8786866040518563ffffffff1660e01b8152600401611f6c9493929190613b37565b6020604051808303816000875af1925050508015611fa857506040513d601f19601f82011682018060405250810190611fa59190613b98565b60015b61202a573d8060008114611fd8576040519150601f19603f3d011682016040523d82523d6000602084013e611fdd565b606091505b506000815103612022576040517f08c379a0000000000000000000000000000000000000000000000000000000008152600401612019906139ea565b60405180910390fd5b805181602001fd5b63150b7a0260e01b7bffffffffffffffffffffffffffffffffffffffffffffffffffffffff1916817bffffffffffffffffffffffffffffffffffffffffffffffffffffffff19161491505061207f565b600190505b949350505050565b600080600090507a184f03e93ff9f4daa797ed6e38ed64bf6a1f01000000000000000083106120e5577a184f03e93ff9f4daa797ed6e38ed64bf6a1f01000000000000000083816120db576120da6132b2565b5b0492506040810190505b6d04ee2d6d415b85acef81000000008310612122576d04ee2d6d415b85acef81000000008381612118576121176132b2565b5b0492506020810190505b662386f26fc10000831061215157662386f26fc100008381612147576121466132b2565b5b0492506010810190505b6305f5e100831061217a576305f5e10083816121705761216f6132b2565b5b0492506008810190505b612710831061219f576127108381612195576121946132b2565b5b0492506004810190505b606483106121c257606483816121b8576121b76132b2565b5b0492506002810190505b600a83106121d1576001810190505b80915050919050565b6121e48383612258565b6121f16000848484611f00565b612230576040517f08c379a0000000000000000000000000000000000000000000000000000000008152600401612227906139ea565b60405180910390fd5b505050565b6000808273ffffffffffffffffffffffffffffffffffffffff163b119050919050565b600073ffffffffffffffffffffffffffffffffffffffff168273ffffffffffffffffffffffffffffffffffffffff16036122c7576040517f08c379a00000000000000000000000000000000000000000000000000000000081526004016122be90613c11565b60405180910390fd5b6122d081611a67565b15612310576040517f08c379a000000000000000000000000000000000000000000000000000000000815260040161230790613c7d565b60405180910390fd5b61231e600083836001611ef4565b61232781611a67565b15612367576040517f08c379a000000000000000000000000000000000000000000000000000000000815260040161235e90613c7d565b60405180910390fd5b6001600360008473ffffffffffffffffffffffffffffffffffffffff1673ffffffffffffffffffffffffffffffffffffffff16815260200190815260200160002060008282540192505081905550816002600083815260200190815260200160002060006101000a81548173ffffffffffffffffffffffffffffffffffffffff021916908373ffffffffffffffffffffffffffffffffffffffff160217905550808273ffffffffffffffffffffffffffffffffffffffff16600073ffffffffffffffffffffffffffffffffffffffff167fddf252ad1be2c89b69c2b068fc378daa952ba7f163c4a11628f55a4df523b3ef60405160405180910390a4612471600083836001611efa565b5050565b6040518060e0016040528060608152602001606081526020016060815260200160008152602001600073ffffffffffffffffffffffffffffffffffffffff168152602001600015158152602001600081525090565b6000604051905090565b600080fd5b600080fd5b60007fffffffff0000000000000000000000000000000000000000000000000000000082169050919050565b612513816124de565b811461251e57600080fd5b50565b6000813590506125308161250a565b92915050565b60006020828403121561254c5761254b6124d4565b5b600061255a84828501612521565b91505092915050565b60008115159050919050565b61257881612563565b82525050565b6000602082019050612593600083018461256f565b92915050565b600081519050919050565b600082825260208201905092915050565b60005b838110156125d35780820151818401526020810190506125b8565b60008484015250505050565b6000601f19601f8301169050919050565b60006125fb82612599565b61260581856125a4565b93506126158185602086016125b5565b61261e816125df565b840191505092915050565b6000602082019050818103600083015261264381846125f0565b905092915050565b6000819050919050565b61265e8161264b565b811461266957600080fd5b50565b60008135905061267b81612655565b92915050565b600060208284031215612697576126966124d4565b5b60006126a58482850161266c565b91505092915050565b600073ffffffffffffffffffffffffffffffffffffffff82169050919050565b60006126d9826126ae565b9050919050565b6126e9816126ce565b82525050565b600060208201905061270460008301846126e0565b92915050565b612713816126ce565b811461271e57600080fd5b50565b6000813590506127308161270a565b92915050565b6000806040838503121561274d5761274c6124d4565b5b600061275b85828601612721565b925050602061276c8582860161266c565b9150509250929050565b60008060006060848603121561278f5761278e6124d4565b5b600061279d86828701612721565b93505060206127ae86828701612721565b92505060406127bf8682870161266c565b9150509250925092565b600082825260208201905092915050565b60006127e582612599565b6127ef81856127c9565b93506127ff8185602086016125b5565b612808816125df565b840191505092915050565b61281c8161264b565b82525050565b61282b816126ce565b82525050565b61283a81612563565b82525050565b600060e083016000830151848203600086015261285d82826127da565b9150506020830151848203602086015261287782826127da565b9150506040830151848203604086015261289182826127da565b91505060608301516128a66060860182612813565b5060808301516128b96080860182612822565b5060a08301516128cc60a0860182612831565b5060c08301516128df60c0860182612813565b508091505092915050565b600060208201905081810360008301526129048184612840565b905092915050565b600060208284031215612922576129216124d4565b5b600061293084828501612721565b91505092915050565b6129428161264b565b82525050565b600060208201905061295d6000830184612939565b92915050565b61296c81612563565b811461297757600080fd5b50565b60008135905061298981612963565b92915050565b600080604083850312156129a6576129a56124d4565b5b60006129b485828601612721565b92505060206129c58582860161297a565b9150509250929050565b600080fd5b600080fd5b7f4e487b7100000000000000000000000000000000000000000000000000000000600052604160045260246000fd5b612a11826125df565b810181811067ffffffffffffffff82111715612a3057612a2f6129d9565b5b80604052505050565b6000612a436124ca565b9050612a4f8282612a08565b919050565b600067ffffffffffffffff821115612a6f57612a6e6129d9565b5b612a78826125df565b9050602081019050919050565b82818337600083830152505050565b6000612aa7612aa284612a54565b612a39565b905082815260208101848484011115612ac357612ac26129d4565b5b612ace848285612a85565b509392505050565b600082601f830112612aeb57612aea6129cf565b5b8135612afb848260208601612a94565b91505092915050565b60008060008060808587031215612b1e57612b1d6124d4565b5b6000612b2c87828801612721565b9450506020612b3d87828801612721565b9350506040612b4e8782880161266c565b925050606085013567ffffffffffffffff811115612b6f57612b6e6124d9565b5b612b7b87828801612ad6565b91505092959194509250565b600080600060608486031215612ba057612b9f6124d4565b5b6000612bae8682870161266c565b9350506020612bbf8682870161297a565b9250506040612bd08682870161266c565b9150509250925092565b60008060408385031215612bf157612bf06124d4565b5b6000612bff85828601612721565b9250506020612c1085828601612721565b9150509250929050565b600067ffffffffffffffff821115612c3557612c346129d9565b5b612c3e826125df565b9050602081019050919050565b6000612c5e612c5984612c1a565b612a39565b905082815260208101848484011115612c7a57612c796129d4565b5b612c85848285612a85565b509392505050565b600082601f830112612ca257612ca16129cf565b5b8135612cb2848260208601612c4b565b91505092915050565b600080600080600060a08688031215612cd757612cd66124d4565b5b600086013567ffffffffffffffff811115612cf557612cf46124d9565b5b612d0188828901612c8d565b955050602086013567ffffffffffffffff811115612d2257612d216124d9565b5b612d2e88828901612c8d565b945050604086013567ffffffffffffffff811115612d4f57612d4e6124d9565b5b612d5b88828901612c8d565b9350506060612d6c8882890161266c565b9250506080612d7d8882890161266c565b9150509295509295909350565b60008060408385031215612da157612da06124d4565b5b6000612daf8582860161266c565b9250506020612dc085828601612721565b9150509250929050565b7f4e487b7100000000000000000000000000000000000000000000000000000000600052602260045260246000fd5b60006002820490506001821680612e1157607f821691505b602082108103612e2457612e23612dca565b5b50919050565b7f4552433732313a20617070726f76616c20746f2063757272656e74206f776e6560008201527f7200000000000000000000000000000000000000000000000000000000000000602082015250565b6000612e866021836125a4565b9150612e9182612e2a565b604082019050919050565b60006020820190508181036000830152612eb581612e79565b9050919050565b7f4552433732313a20617070726f76652063616c6c6572206973206e6f7420746f60008201527f6b656e206f776e6572206f7220617070726f76656420666f7220616c6c000000602082015250565b6000612f18603d836125a4565b9150612f2382612ebc565b604082019050919050565b60006020820190508181036000830152612f4781612f0b565b9050919050565b7f4552433732313a2063616c6c6572206973206e6f7420746f6b656e206f776e6560008201527f72206f7220617070726f76656400000000000000000000000000000000000000602082015250565b6000612faa602d836125a4565b9150612fb582612f4e565b604082019050919050565b60006020820190508181036000830152612fd981612f9d565b9050919050565b7f546f6b656e20646f6573206e6f74206578697374000000000000000000000000600082015250565b60006130166014836125a4565b915061302182612fe0565b602082019050919050565b6000602082019050818103600083015261304581613009565b9050919050565b6000606082019050818103600083015261306681866125f0565b9050818103602083015261307a81856125f0565b90506130896040830184612939565b949350505050565b7f4552433732313a20696e76616c696420746f6b656e2049440000000000000000600082015250565b60006130c76018836125a4565b91506130d282613091565b602082019050919050565b600060208201905081810360008301526130f6816130ba565b9050919050565b7f426f6f6b206973206e6f7420666f722073616c65000000000000000000000000600082015250565b60006131336014836125a4565b915061313e826130fd565b602082019050919050565b6000602082019050818103600083015261316281613126565b9050919050565b7f43616e6e6f7420627579206f776e20626f6f6b00000000000000000000000000600082015250565b600061319f6013836125a4565b91506131aa82613169565b602082019050919050565b600060208201905081810360008301526131ce81613192565b9050919050565b7f4d75737420706179206d696e696d756d20736574207072696365000000000000600082015250565b600061320b601a836125a4565b9150613216826131d5565b602082019050919050565b6000602082019050818103600083015261323a816131fe565b9050919050565b7f4e487b7100000000000000000000000000000000000000000000000000000000600052601160045260246000fd5b600061327b8261264b565b91506132868361264b565b92508282026132948161264b565b915082820484148315176132ab576132aa613241565b5b5092915050565b7f4e487b7100000000000000000000000000000000000000000000000000000000600052601260045260246000fd5b60006132ec8261264b565b91506132f78361264b565b925082613307576133066132b2565b5b828204905092915050565b600061331d8261264b565b91506133288361264b565b92508282039050818111156133405761333f613241565b5b92915050565b7f4552433732313a2061646472657373207a65726f206973206e6f74206120766160008201527f6c6964206f776e65720000000000000000000000000000000000000000000000602082015250565b60006133a26029836125a4565b91506133ad82613346565b604082019050919050565b600060208201905081810360008301526133d181613395565b9050919050565b600081905092915050565b60006133ee82612599565b6133f881856133d8565b93506134088185602086016125b5565b80840191505092915050565b600061342082856133e3565b915061342c82846133e3565b91508190509392505050565b7f4e6f7420617070726f76656420746f2073657420666f722073616c6500000000600082015250565b600061346e601c836125a4565b915061347982613438565b602082019050919050565b6000602082019050818103600083015261349d81613461565b9050919050565b7f4f776e61626c653a206e6577206f776e657220697320746865207a65726f206160008201527f6464726573730000000000000000000000000000000000000000000000000000602082015250565b60006135006026836125a4565b915061350b826134a4565b604082019050919050565b6000602082019050818103600083015261352f816134f3565b9050919050565b60006135418261264b565b915061354c8361264b565b925082820190508082111561356457613563613241565b5b92915050565b60008190508160005260206000209050919050565b60006020601f8301049050919050565b600082821b905092915050565b6000600883026135cc7fffffffffffffffffffffffffffffffffffffffffffffffffffffffffffffffff8261358f565b6135d6868361358f565b95508019841693508086168417925050509392505050565b6000819050919050565b600061361361360e6136098461264b565b6135ee565b61264b565b9050919050565b6000819050919050565b61362d836135f8565b6136416136398261361a565b84845461359c565b825550505050565b600090565b613656613649565b613661818484613624565b505050565b5b818110156136855761367a60008261364e565b600181019050613667565b5050565b601f8211156136ca5761369b8161356a565b6136a48461357f565b810160208510156136b3578190505b6136c76136bf8561357f565b830182613666565b50505b505050565b600082821c905092915050565b60006136ed600019846008026136cf565b1980831691505092915050565b600061370683836136dc565b9150826002028217905092915050565b61371f82612599565b67ffffffffffffffff811115613738576137376129d9565b5b6137428254612df9565b61374d828285613689565b600060209050601f831160018114613780576000841561376e578287015190505b61377885826136fa565b8655506137e0565b601f19841661378e8661356a565b60005b828110156137b657848901518255600182019150602085019450602081019050613791565b868310156137d357848901516137cf601f8916826136dc565b8355505b6001600288020188555050505b505050505050565b7f53656e646572206e6f7420617070726f76656420746f207472616e7366657200600082015250565b600061381e601f836125a4565b9150613829826137e8565b602082019050919050565b6000602082019050818103600083015261384d81613811565b9050919050565b7f4552433732313a207472616e736665722066726f6d20696e636f72726563742060008201527f6f776e6572000000000000000000000000000000000000000000000000000000602082015250565b60006138b06025836125a4565b91506138bb82613854565b604082019050919050565b600060208201905081810360008301526138df816138a3565b9050919050565b7f4552433732313a207472616e7366657220746f20746865207a65726f2061646460008201527f7265737300000000000000000000000000000000000000000000000000000000602082015250565b60006139426024836125a4565b915061394d826138e6565b604082019050919050565b6000602082019050818103600083015261397181613935565b9050919050565b7f4552433732313a207472616e7366657220746f206e6f6e20455243373231526560008201527f63656976657220696d706c656d656e7465720000000000000000000000000000602082015250565b60006139d46032836125a4565b91506139df82613978565b604082019050919050565b60006020820190508181036000830152613a03816139c7565b9050919050565b7f4f776e61626c653a2063616c6c6572206973206e6f7420746865206f776e6572600082015250565b6000613a406020836125a4565b9150613a4b82613a0a565b602082019050919050565b60006020820190508181036000830152613a6f81613a33565b9050919050565b7f4552433732313a20617070726f766520746f2063616c6c657200000000000000600082015250565b6000613aac6019836125a4565b9150613ab782613a76565b602082019050919050565b60006020820190508181036000830152613adb81613a9f565b9050919050565b600081519050919050565b600082825260208201905092915050565b6000613b0982613ae2565b613b138185613aed565b9350613b238185602086016125b5565b613b2c816125df565b840191505092915050565b6000608082019050613b4c60008301876126e0565b613b5960208301866126e0565b613b666040830185612939565b8181036060830152613b788184613afe565b905095945050505050565b600081519050613b928161250a565b92915050565b600060208284031215613bae57613bad6124d4565b5b6000613bbc84828501613b83565b91505092915050565b7f4552433732313a206d696e7420746f20746865207a65726f2061646472657373600082015250565b6000613bfb6020836125a4565b9150613c0682613bc5565b602082019050919050565b60006020820190508181036000830152613c2a81613bee565b9050919050565b7f4552433732313a20746f6b656e20616c7265616479206d696e74656400000000600082015250565b6000613c67601c836125a4565b9150613c7282613c31565b602082019050919050565b60006020820190508181036000830152613c9681613c5a565b905091905056fea264697066735822122016be4ccd5dca88691f5702584d51ce09e6b010e56f28fe72690c543554a7d3b264736f6c63430008130033",
  "immutableReferences": {},
  "source": "//SPDX-License-Identifier: UNLICENSED\npragma solidity ^0.8.0;\n\nimport \"@openzeppelin/contracts/token/ERC721/ERC721.sol\";\nimport \"@openzeppelin/contracts/access/Ownable.sol\";\n\ncontract StoryToken is ERC721, Ownable {\n    \n    uint256 private _tokenIdCounter = 0;\n    \n    struct Book {\n        string title;\n        string author;\n        string publisher;\n        uint256 year;\n        address bookOwner;\n        bool forSale;\n        uint price;\n    }\n    // Owner of Smart Contract is Author\n    // bookOwner of book is owner of token ID\n    mapping (uint256 => Book) private _books;\n    uint royaltyPercent;\n\n    event BookCreated(uint256 tokenNum);\n    event returnBook(string title, string author, uint price);\n    constructor(uint royalty) ERC721(\"StoryToken\", \"ST\") {\n        royaltyPercent = royalty;\n    }\n\n    function createBook(\n        string memory title,\n        string memory author,\n        string memory publisher,\n        uint256 year,\n        uint price\n    ) public onlyOwner returns (uint256) {\n        _tokenIdCounter += 1;\n        uint256 tokenId = _tokenIdCounter;\n        address bookOwner = _msgSender();\n        _safeMint(bookOwner, tokenId);\n        _books[tokenId] = Book(title, author, publisher, year, bookOwner, false, price);\n        // return tokenId;\n        emit BookCreated(tokenId);\n    }\n\n    function getBookInfo(uint256 tokenId) public returns (Book memory) {\n        require(_exists(tokenId), \"Token does not exist\");\n        // return _books[tokenId];\n        // Book memory book = _books[tokenId];\n        string memory title  = _books[tokenId].title;\n        string memory author  = _books[tokenId].author;\n        uint price =  _books[tokenId].price;\n        emit returnBook(title, author, price);\n    }\n\n    function transferBook(uint256 tokenId, address to) public {\n        require(_exists(tokenId), \"Token does not exist\");\n        require(getApproved(tokenId)== _msgSender(), \"Sender not approved to transfer\");\n        _transfer(_msgSender(), to, tokenId);\n        _books[tokenId].bookOwner = to;\n    }\n\n    function setForSale(uint256 tokenId, bool forSale, uint price) public {\n        require(_exists(tokenId), \"Token does not exist\");\n        require(ownerOf(tokenId) == _msgSender(), \"Not approved to set for sale\");\n\n        _books[tokenId].forSale = forSale;\n        _books[tokenId].price = price;\n    }\n\n\n    function buyBook(uint256 tokenId) public payable {\n        require(_exists(tokenId), \"Token does not exist\");\n        require(_books[tokenId].forSale, \"Book is not for sale\");\n        address bookOwner = ownerOf(tokenId);\n        require(bookOwner != _msgSender(), \"Cannot buy own book\");\n        require(msg.value >= _books[tokenId].price, \"Must pay minimum set price\");\n        \n        _safeTransfer(bookOwner, _msgSender(), tokenId, \"\");\n        _books[tokenId].bookOwner = _msgSender();\n        _books[tokenId].forSale = false;\n        uint royalty = (msg.value * royaltyPercent)/100;\n        payable(bookOwner).transfer(msg.value-royalty);\n    }\n\n    function withdrawRoyalty() public onlyOwner {\n        payable(owner()).transfer(address(this).balance);\n    }\n}\n",
  "sourcePath": "/Users/debasmitroy/BC526/StoryToken/StoryToken-contract/contracts/StoryTokenV1.sol",
  "compiler": {
    "name": "solc",
    "version": "0.8.19+commit.7dd6d404.Emscripten.clang"
  },
  "schemaVersion": "3.4.13",
  "updatedAt": "2023-04-23T05:19:06.929Z",
  "networkType": "ethereum",
  "devdoc": {
    "events": {
      "Approval(address,address,uint256)": {
        "details": "Emitted when `owner` enables `approved` to manage the `tokenId` token."
      },
      "ApprovalForAll(address,address,bool)": {
        "details": "Emitted when `owner` enables or disables (`approved`) `operator` to manage all of its assets."
      },
      "Transfer(address,address,uint256)": {
        "details": "Emitted when `tokenId` token is transferred from `from` to `to`."
      }
    },
    "kind": "dev",
    "methods": {
      "approve(address,uint256)": {
        "details": "See {IERC721-approve}."
      },
      "balanceOf(address)": {
        "details": "See {IERC721-balanceOf}."
      },
      "getApproved(uint256)": {
        "details": "See {IERC721-getApproved}."
      },
      "isApprovedForAll(address,address)": {
        "details": "See {IERC721-isApprovedForAll}."
      },
      "name()": {
        "details": "See {IERC721Metadata-name}."
      },
      "owner()": {
        "details": "Returns the address of the current owner."
      },
      "ownerOf(uint256)": {
        "details": "See {IERC721-ownerOf}."
      },
      "renounceOwnership()": {
        "details": "Leaves the contract without owner. It will not be possible to call `onlyOwner` functions anymore. Can only be called by the current owner. NOTE: Renouncing ownership will leave the contract without an owner, thereby removing any functionality that is only available to the owner."
      },
      "safeTransferFrom(address,address,uint256)": {
        "details": "See {IERC721-safeTransferFrom}."
      },
      "safeTransferFrom(address,address,uint256,bytes)": {
        "details": "See {IERC721-safeTransferFrom}."
      },
      "setApprovalForAll(address,bool)": {
        "details": "See {IERC721-setApprovalForAll}."
      },
      "supportsInterface(bytes4)": {
        "details": "See {IERC165-supportsInterface}."
      },
      "symbol()": {
        "details": "See {IERC721Metadata-symbol}."
      },
      "tokenURI(uint256)": {
        "details": "See {IERC721Metadata-tokenURI}."
      },
      "transferFrom(address,address,uint256)": {
        "details": "See {IERC721-transferFrom}."
      },
      "transferOwnership(address)": {
        "details": "Transfers ownership of the contract to a new account (`newOwner`). Can only be called by the current owner."
      }
    },
    "version": 1
  },
  "userdoc": {
    "kind": "user",
    "methods": {},
    "version": 1
  }
}